:100000000C94F0000C940B030C9432030C945903E1
:100010000C94BC030C941F040C9418010C94DE3057
:100020000C9418010C9418010C9418010C94BB0F3B
:100030000C9418010C9418010C9418010C941801DC
:100040000C94D9310C9418010C94E72B0C94192CB6
:100050000C9418010C9418010C9418010C941801BC
:100060000C9418010C941801320B370B3E0B4D0BFE
:10007000540B630B740B800B940BA50BB10BC50BCE
:10008000D20BDE0BF20B030C0A0C170C1E0C2B0C04
:100090003C0CB30EB60EB90EBC0EBF0EC20EC50E92
:1000A000C80ECB0ECE0ED10ED40ED70E0B0F0E0FE8
:1000B000110F140F170F1A0F1D0F200F230F260FEC
:1000C000290F2C0F2F0F320F350F380F3B0F3E0F1C
:1000D000410FA31ECA1EF41E2D1F461F5F1F851F42
:1000E000B91FF21F2B205F208C20B620E72017219C
:1000F000302182219B21B921AB22D3220E23A023C0
:100100004D24CA24DF240225B425A4229D221F28C1
:10011000E52805A84CCDB2D44EB93836A9020C500A
:10012000B9918688083CA6AAAA2ABE000000803F92
:10013000252500460026260025250041002626000C
:1001400025250049200026260025250042200026DE
:1001500026002525004E20002626002525004420C7
:100160000026260025250045200026260000010245
:10017000030405060700010203040500010203044D
:10018000050200000008000201000003040700004F
:10019000000000000000010204081020408001025D
:1001A00004081020010204081020040404040404BC
:1001B0000404020202020202030303030303000019
:1001C0000000230026002900000000002500280070
:1001D0002B0000000000240027002A003D06492CC7
:1001E00011241FBECFEFD8E0DEBFCDBF13E0A0E0EB
:1001F000B1E0EEECF4E702C005900D92AE39B10724
:10020000D9F728E0AEE9B3E001C01D92A432B207ED
:10021000E1F711E0C0EED1E004C02297FE010E9498
:100220003B38CC3DD107C9F70E94CA310C94653ADE
:100230000C940000CF92DF92EF92FF920F931F93E6
:10024000E82FF92F05C0015011092109310961F189
:10025000908196239417B9F305C001501109210923
:10026000310911F1908196239413F7CFC12CD12C31
:10027000E12CF12C0AC08FEFC81AD80AE80AF80A54
:100280000C151D052E053F0579F080818623841706
:1002900091F36C2D7D2D8E2D9F2D1F910F91FF9031
:1002A000EF90DF90CF90089560E070E080E090E004
:1002B0001F910F91FF90EF90DF90CF90089581E014
:1002C0008093A6039091A70391110BC08093A7037D
:1002D00021E04FE050E060E070E08CEA93E00C94A5
:1002E000B81D089581E08093A5039091A703911113
:1002F0000BC08093A70321E04FE050E060E070E086
:100300008CEA93E00C94B81D0895EF92FF920F933E
:100310001F93CF93DF931F92CDB7DEB77C01FC0113
:1003200000811181C80169830E94443A698168177C
:1003300019F0C8010E944C3AC7010F90DF91CF918C
:100340001F910F91FF90EF9008950F931F93CF93FC
:10035000DF9300D0CDB7DEB78B01FB0160819A83BC
:100360008983CE0101960E948501C8010F900F90EC
:10037000DF91CF911F910F910895A82FAF7787FD3F
:1003800005C08EEF8A0F823008F499C0B0E0FD01FD
:10039000EA56FE4F2491FD01E655FE4F8491942FBD
:1003A0009D7F9130B9F4823031F490912E07922BD9
:1003B00090932E070FC0833031F490911F07922B3A
:1003C00090931F0707C0843029F490910C07922B5B
:1003D00090930C0741504230B8F4823031F4909140
:1003E0002D07922B90932D070FC0833031F49091FD
:1003F0001E07922B90931E0707C0843029F490911A
:100400000B07922B90930B07FD01E359FE4FA4912C
:100410008230C1F4B0E0AA0FBB1FA15DB84F6D934D
:100420007C93E2ECF1E0A591B4918C9180932C0740
:100430008BE690E09093400780933F07809168009F
:10044000816033C08330C1F4B0E0AA0FBB1FA05E4F
:10045000B84F6D937C93E4ECF1E0A591B4918C914D
:1004600080931D078CE690E09093400780933F07B0
:1004700080916800826019C08430C9F4B0E0AA0F8E
:10048000BB1FA35FB84F6D937C93E6ECF1E0A591A1
:10049000B4918C9180930A078DE690E09093400789
:1004A00080933F0780916800846080936800A091EA
:1004B0003F07B09140078C91822B8C9316C09FB759
:1004C000F894A230B1F470933C0760933B07E8982E
:1004D000809169008C7F8093690080916900842BF2
:1004E00080936900E09AE89A9FBF8FB780688FBFBA
:1004F000089570933E0760933D07E99880916900E5
:10050000837F809369008091690024E0429FA0016D
:100510001124842B80936900E19AE99AE5CF3FB7D3
:10052000F894982F9F7787FD05C08EEF890F823052
:1005300008F45EC0892F90E0FC01EA56FE4F24913A
:10054000FC01E655FE4F84918230D1F480916B001E
:100550002095822380936B0080916B00811105C0F0
:10056000809168008E7F8093680080912E0782239F
:1005700080932E0780912D07822380932D0741C001
:100580008330D1F480916C002095822380936C009D
:1005900080916C00811105C0809168008D7F8093EF
:1005A000680080911F07822380931F0780911E0798
:1005B000822380931E0725C0843019F580916D0039
:1005C0002095822380936D0080916D00811105C07C
:1005D000809168008B7F8093680080910C07822354
:1005E00080930C0780910B07822380930B0709C02F
:1005F000923049F4E898809169008C7F809369007B
:10060000E09A3FBF0895E99880916900837F8093C5
:100610006900E19AF6CF1F920F920FB60F92112444
:100620002F933F934F935F936F937F938F939F93FA
:10063000AF93BF93EF93FF93E0913B07F0913C079B
:100640000995FF91EF91BF91AF919F918F917F910C
:100650006F915F914F913F912F910F900FBE0F902F
:100660001F9018951F920F920FB60F9211242F937F
:100670003F934F935F936F937F938F939F93AF932A
:10068000BF93EF93FF93E0913D07F0913E070995EB
:10069000FF91EF91BF91AF919F918F917F916F915A
:1006A0005F914F913F912F910F900FBE0F901F9030
:1006B00018951F920F920FB60F9211242F933F930C
:1006C0004F935F936F937F938F939F93AF93BF935A
:1006D000CF93EF93FF9393B1C0912C0720912E07F6
:1006E00030912D07892F809583232923822B2091F8
:1006F0006B00C927C223C82390932C07CC2351F148
:10070000C0FF05C0E0912F07F09130070995C1FFA8
:1007100005C0E0913107F09132070995C2FF05C08D
:10072000E0913307F09134070995C3FF05C0E091CC
:100730003507F09136070995C4FF05C0E0913707EA
:10074000F09138070995C5FF05C0E0913907F09190
:100750003A070995FF91EF91CF91BF91AF919F918A
:100760008F917F916F915F914F913F912F910F905A
:100770000FBE0F901F9018951F920F920FB60F92F9
:1007800011242F933F934F935F936F937F938F9396
:100790009F93AF93BF93CF93EF93FF9396B1C09185
:1007A0001D0720911F0730911E07892F80958323F5
:1007B0002923822B20916C00C927C223C823909340
:1007C0001D07CC2351F1C0FF05C0E0912007F09137
:1007D00021070995C1FF05C0E0912207F091230789
:1007E0000995C2FF05C0E0912407F09125070995FE
:1007F000C3FF05C0E0912607F09127070995C4FFC4
:1008000005C0E0912807F09129070995C5FF05C0AB
:10081000E0912A07F0912B070995FF91EF91CF9175
:10082000BF91AF919F918F917F916F915F914F9108
:100830003F912F910F900FBE0F901F9018951F9210
:100840000F920FB60F9211242F933F934F935F9304
:100850006F937F938F939F93AF93BF93CF93EF93B8
:10086000FF9399B1C0910A0720910C0730910B07B3
:10087000892F809583232923822B20916D00C927FE
:10088000C223C82390930A07CC23C1F1C0FF05C03F
:10089000E0910D07F0910E070995C1FF05C0E091A9
:1008A0000F07F09110070995C2FF05C0E0911107ED
:1008B000F09112070995C3FF05C0E0911307F0916D
:1008C00014070995C4FF05C0E0911507F0911607BC
:1008D0000995C5FF05C0E0911707F0911807099524
:1008E000C6FF05C0E0911907F0911A070995C7FFE7
:1008F00005C0E0911B07F0911C070995FF91EF914E
:10090000CF91BF91AF919F918F917F916F915F91A7
:100910004F913F912F910F900FBE0F901F90189500
:100920008CEA93E00E94931C0E94F7356F307105AA
:1009300024F481E080939E03089510929E0308950D
:100940008F929F92AF92BF92CF92DF92EF92FF92DF
:100950000F931F93CF938CEA93E00E94C01C20E07A
:1009600030E044E352E40E948B3587FF54C0C3E07B
:100970008091A70381114FC021E04CE150E060E07D
:1009800070E08CEA93E00E94B81D1F92CF9348E07C
:10099000842E912CA12CB12C58EBC52E5EE1D52EC6
:1009A00055E8E52E5FE3F52E00E010E02AEF34E491
:1009B00040E050E06CE574E48CEA93E00E94F21DA4
:1009C0006EE170E080E090E00E9452321F92CF937F
:1009D0006CE5C62E6FE8D62E62E8E62E6FE3F62EA3
:1009E00000E010E02CE534E440E050E06AEF74E40D
:1009F0008CEA93E00E94F21D8CEA93E00E94BD1DF8
:100A000064EF71E080E090E00E9452320F900F900E
:100A10000F900F90ADCFCF911F910F91FF90EF905E
:100A2000DF90CF90BF90AF909F908F9008954F929E
:100A30005F926F927F928F929F92AF92BF92CF926E
:100A4000DF92EF92FF920F931F93CF93DF93CDB777
:100A5000DEB728970FB6F894DEBF0FBECDBF88E093
:100A6000EAE0F1E0DE01119601900D928A95E1F73E
:100A70008091A703811109C0AE014F5F5F4F6CEBFE
:100A800072E08CEA93E00E94D113F4E06F2E712C97
:100A9000AAE05A2E442443948091A7038823A1F00E
:100AA0008091A7038111C1C021E043E150E060E0E3
:100AB00070E08CEA93E00E94B81D69E070E08CEA77
:100AC00093E00E948C1EB1C020E030E041E050E095
:100AD00060E070E08CEA93E00E94A81D1F925F9294
:100AE0007AE0872E912CA12CB12CE8EBCE2EEEE1F2
:100AF000DE2EE5E8EE2EEFE3FE2E00E010E028E427
:100B000033E440E050E068EC72E48CEA93E00E9449
:100B1000F21D8091A7030F900F908111C1CF21E0AA
:100B200030E041E050E060E070E08CEA93E00E9449
:100B3000A81D1F925F9200E010E026E933E440E038
:100B400050E068E473E48CEA93E00E94F21D809127
:100B5000A7030F900F908111A3CF22E030E041E076
:100B600050E060E070E08CEA93E00E94A81D1F92C4
:100B70005F9200E010E02AEF33E440E050E066E9E5
:100B800073E48CEA93E00E94F21D64EF71E080E070
:100B900090E00E9452328091A7030F900F90811134
:100BA0007FCF21E030E041E050E060E070E08CEA8F
:100BB00093E00E94A81D1F924F9200E010E02AE7E8
:100BC00033E440E050E068EC73E48CEA93E00E9488
:100BD000F21D8091A7030F900F90811161CF20E04B
:100BE00030E041E050E060E070E08CEA93E00E9489
:100BF000A81D1F924F9200E010E028EC32E440E084
:100C000050E06AE773E48CEA93E00E94F21D64EF1F
:100C100071E080E090E00E94523281E0681A710831
:100C20000F900F9009F038CF3BCF8CEA93E00E94F1
:100C300038168091A703811109C021E04BE050E0F4
:100C400060E070E08CEA93E00E94B81D28960FB631
:100C5000F894DEBF0FBECDBFDF91CF911F910F91F2
:100C6000FF90EF90DF90CF90BF90AF909F908F90CC
:100C70007F906F905F904F900895CF93DF9381EDB9
:100C800094E00E948F292CE04DE06BE08CEA93E029
:100C90000E94611283EB93E00E94CC11C4EBD3E07D
:100CA000CE010E947710188A1F86E99684E0C83921
:100CB000D807B1F788E994E0DF91CF910C949612B0
:100CC000CF92DF92EF92FF920F931F93CF93DF9318
:100CD000CDB7DEB72B970FB6F894DEBF0FBECDBFF2
:100CE0008CEA93E00E94381619821A821B821C82B9
:100CF000FE01359687E0DF011D928A95E9F78E01A6
:100D00000F5F1F4FB5E0EB2EF12C6801C7010E9469
:100D1000443AF80181938F01FFEFEF1AFF0A80E157
:100D2000E816F10499F76AE671E087E697E00E9419
:100D3000CA2C67E671E087E697E00E94CA2CB601EC
:100D400087E697E00E94ED2C64E671E087E697E085
:100D50000E94FA2C87E697E00E94FE2A2B960FB697
:100D6000F894DEBF0FBECDBFDF91CF911F910F91E1
:100D7000FF90EF90DF90CF900895CF92DF92EF92A7
:100D8000FF928CEA93E00E9438168CEA93E00E946E
:100D9000931C6B017C0161E671E087E697E00E949D
:100DA000CA2C6EE571E087E697E00E94CA2CC70165
:100DB000B6010E94F7354AE050E087E697E00E94CE
:100DC000A52D6BE571E087E697E00E94FA2C87E697
:100DD00097E0FF90EF90DF90CF900C94FE2ACF9396
:100DE000DF938CEA93E00E9438168CEA93E00E942D
:100DF000971CEC0168E571E087E697E00E94CA2C39
:100E000065E571E087E697E00E94CA2C4AE050E071
:100E1000BE0187E697E00E94A52D62E571E087E6B6
:100E200097E00E94FA2C87E697E0DF91CF910C942F
:100E3000FE2ACF92DF92EF92FF928CEA93E00E941B
:100E400038168CEA93E00E94C01C6B017C016FE4B1
:100E500071E087E697E00E94CA2C6CE471E087E6B7
:100E600097E00E94CA2C22E030E0B701A60187E695
:100E700097E00E94982E69E471E087E697E00E946F
:100E8000FA2C87E697E0FF90EF90DF90CF900C94DC
:100E9000FE2A8CEA93E00E94381666E471E087E649
:100EA00097E00E94CA2C63E471E087E697E00E9415
:100EB000CA2C6FE673E087E697E00E94ED2C60E4B1
:100EC00071E087E697E00E94FA2C87E697E00C94A1
:100ED000FE2A8F929F92AF92BF92CF92DF92EF92B3
:100EE000FF920F931F93CF93DF931F92CDB7DEB77F
:100EF00026E040E052EC61E070E087E697E00E9477
:100F0000852B60E086E00E94183360E087E00E9455
:100F100018331F9289E08F9308E0802E912C8AE08D
:100F2000A82EB12C94E1C92ED12CEE24E39405E037
:100F300010E024E030E043E050E062E070E08CEA52
:100F400093E00E940E1384E10E94D232BC018827F4
:100F500077FD8095982F0E943A3143E06FE571E06C
:100F600086E00E94BD0143E062E771E087E00E94F5
:100F7000BD0143EA59E062E573E081ED94E00E942F
:100F8000A4294BEA59E064E573E081ED94E00E9406
:100F9000A42945EE59E066E573E081ED94E00E94F6
:100FA000A42947E359E068E573E081ED94E00E94ED
:100FB000A42947E85EE06AE573E081ED94E00E94D1
:100FC000A4294FED5EE06CE573E081ED94E00E94B2
:100FD000A42942E45AE06EE573E081ED94E00E94BA
:100FE000A42946EA5AE060E673E081ED94E00E94AD
:100FF000A42949E45FE062E673E081ED94E00E9499
:10100000A42940E656E064E673E081ED94E00E9496
:10101000A4294DEB56E066E673E081ED94E00E9472
:10102000A4294FEE56E068E673E081ED94E00E945B
:10103000A42949E157E06AE673E081ED94E00E945B
:10104000A42949E457E06CE673E081ED94E00E9446
:10105000A42963EA79E081ED94E00E94D62960E05A
:1010600070E08CEA93E00E948C1E8CEA93E00E9470
:10107000381685E090E00E94443A0F900F90843239
:10108000F1F46EE673E085E090E00E94A50119821C
:10109000BE016F5F7F4F86E090E00E94A50121E0D6
:1010A0004DE150E060E070E08CEA93E00E94B81DF2
:1010B00068EE73E080E090E00E945232F9CF0E9427
:1010C000600662E370E080E090E00E9452320E948D
:1010D000490762E370E080E090E00E9452320E9493
:1010E00019070E94A00412E0E12EF12C00E010E0AC
:1010F0008091A703882329F081E0E81AF108A9F07C
:10110000F5CF980140E050E0BA018CEA93E00E94EC
:10111000A81D66E970E080E090E00E9452320F5F07
:101120001F4F0830110521F7E7CF8091A7038111E8
:1011300015C021E04AE050E060E070E08CEA93E006
:101140000E94B81D6BE070E08CEA93E00E948C1E58
:1011500068EC70E080E090E00E94523285E090E020
:101160000E94443A833209F041C08091A703811163
:1011700010C02CEB32E040E050E060E87FE38CEA06
:1011800093E00E94CB1668EC70E080E090E00E9453
:1011900052328091A70381110CC0409106015091F9
:1011A000070121E030E061E070E08CEA93E00E940A
:1011B0005C188091A703811119C021E04FE050E035
:1011C00060E070E08CEA93E00E94B81D04E110E05A
:1011D00020E233E040E050E060E070E48CEA93E02D
:1011E0000E9461198CEA93E00E9438168091A7034F
:1011F000811109C021E04BE050E060E070E08CEA32
:1012000093E00E94B81D0E9423326093A103709363
:10121000A2038093A3039093A4030F90DF91CF9137
:101220001F910F91FF90EF90DF90CF90BF90AF9004
:101230009F908F9008956EE170E080E090E00E94B2
:1012400052326DE371E087E697E00E94CA2C6BE3AF
:1012500071E087E697E00E94CA2C68E371E087E6B8
:1012600097E00E94FA2C87E697E00C94FE2A0E94F1
:101270001B098CEA93E00E947416882329F060E031
:101280008CEA93E00E94791681ED94E00E949A29FD
:10129000009739F00E94CA399093AB038093AA0358
:1012A00017C021E04AE150E060E070E08CEA93E092
:1012B0000E94B81D60ED77E080E090E00E9452321D
:1012C0008CEA93E00E94BD1D1092AB031092AA031A
:1012D00081ED94E00E949A29009719F00E94CA3982
:1012E00002C088EE93E0909307018093060181EDA0
:1012F00094E00E949A29009719F00E94CA3902C00E
:101300008FE090E0909305018093040108956EE1D1
:1013100070E080E090E00E94523265E371E087E681
:1013200097E00E94CA2C63E371E087E697E00E9491
:10133000CA2C60E371E087E697E00E94FA2C87E60A
:1013400097E00C94FE2A0E941B098CEA93E00E940D
:1013500038160C948709CF93DF9300D0CDB7DEB752
:101360000E941B098CEA93E00E94381681ED94E0FC
:101370000E949A29009779F042E050E0BE016F5F29
:101380007F4F0E94B638AB01BC0120E08CEA93E0AD
:101390000E94B81D13C021E04AE150E060E070E017
:1013A0008CEA93E00E94B81D60ED77E080E090E069
:1013B0000E9452328CEA93E00E94BD1D0E94870970
:1013C0000F900F90DF91CF9108958F929F92AF92DF
:1013D000BF92EF92FF920F931F93CF93DF930E94E0
:1013E0001B098CEA93E00E94381681ED94E00E947C
:1013F0009A29009729F00E94CA39EC0110E001C037
:1014000011E081ED94E00E949A29009721F00E945A
:10141000CA391123A1F021E04AE150E060E070E018
:101420008CEA93E00E94B81D60ED77E080E090E0E8
:101430000E9452328CEA93E00E94BD1D17C04C01FD
:10144000AA2497FCA094BA2CBE01882777FD80952A
:10145000982F0E942A36AB01BC01EE24E394F12CB4
:10146000950184018CEA93E00E94BF1DDF91CF912A
:101470001F910F91FF90EF90BF90AF909F908F9032
:101480000C948709CF92DF92EF92FF920F931F93F4
:10149000CF93DF930E941B098CEA93E00E943816D9
:1014A00081ED94E00E949A29009729F00E94CA39A0
:1014B000EC0110E001C011E081ED94E00E949A2956
:1014C000009721F00E94CA397C0101C011E081ED32
:1014D00094E00E949A29009721F00E94CA396C0179
:1014E00001C011E081ED94E00E949A29009721F05B
:1014F0000E94CA391123A1F021E04AE150E060E0E6
:1015000070E08CEA93E00E94B81D60ED77E080E027
:1015100090E00E9452328CEA93E00E94BD1D0CC004
:101520008C019601A701BE018CEA93E00E94A013F2
:101530008CEA93E00E94B213DF91CF911F910F913B
:10154000FF90EF90DF90CF900C948709BF92CF92DD
:10155000DF92EF92FF920F931F93CF93DF93CDB75C
:10156000DEB728970FB6F894DEBF0FBECDBF0E943E
:101570001B098EE190E09093AB038093AA0381ED69
:1015800094E00E949A29009729F00E94CA396C01C0
:10159000B12C02C0BB24B39481ED94E00E949A293F
:1015A000009721F00E94CA397C0102C0BB24B39489
:1015B00081ED94E00E949A29009721F00E94CA3997
:1015C0008C0102C0BB24B39481ED94E00E949A295F
:1015D000009721F00E94CA39BB20A1F021E04AE126
:1015E00050E060E070E08CEA93E00E94B81D60ED8E
:1015F00077E080E090E00E9452328CEA93E00E9413
:10160000BD1D11C0DA82C982FC82EB821E830D836C
:1016100098878F83AE014F5F5F4F68EC70E08CEA74
:1016200093E00E94D1130E94870928960FB6F89480
:10163000DEBF0FBECDBFDF91CF911F910F91FF9005
:10164000EF90DF90CF90BF900895EF92FF920F93AD
:101650001F938531910508F025C1FC01EC5CFF4F1B
:101660000C9439388CEA93E00E94381615C1209109
:1016700006013091070101E010E006C0209106014B
:10168000309107010FEF1FEF40E050E060E87FE38B
:101690008CEA93E00E940817FFC020910601309168
:1016A000070101E010E006C020910601309107011A
:1016B0000FEF1FEF40E050E060E87FE38CEA93E03B
:1016C0000E947817E9C00091040110910501209152
:1016D00006013091070140E050E060E87FE38CEACA
:1016E00093E00E941719D8C00091040110910501E0
:1016F0002091060130910701EE24E394F12C0BC0F8
:10170000009104011091050120910601309107011B
:10171000EE24EA94FE2C40E050E060E87FE38CEA9F
:1017200093E00E94921AB8C0009104011091050143
:10173000209106013091070140E050E060E87FE32E
:101740008CEA93E00E946119A7C0009104011091F6
:1017500005012091060130910701EE24E394F12C5C
:101760000BC00091040110910501209106013091F8
:101770000701EE24EA94FE2C40E050E060E87FE3AD
:101780008CEA93E00E94441B87C0209106013091AF
:10179000070140E050E060E87FE38CEA93E00E94BC
:1017A000CB167AC000910401109105012091060129
:1017B00030910701EE24E394F12C0BC00091040159
:1017C000109105012091060130910701EE24EA9461
:1017D000FE2C40E050E060E87FE38CEA93E00E945A
:1017E000E51B5AC0009104011091050120910601EA
:1017F0003091070140E050E060E87FE38CEA93E03D
:101800000E94B21949C0409106015091070121E0A0
:1018100030E006C040910601509107012FEF3FEFE5
:1018200061E070E08CEA93E00E94D41735C04091EB
:1018300006015091070121E030E006C04091060109
:10184000509107012FEF3FEF61E070E08CEA93E0E9
:101850000E945C1821C000910401109105012091A3
:1018600006013091070140E050E060E87FE38CEA38
:1018700093E00E94F81910C0009104011091050135
:10188000209106013091070140E050E060E87FE3DD
:101890008CEA93E00E94401A1F910F91FF90EF9005
:1018A0000C9487091F910F91FF90EF9008950F936B
:1018B0001F93CF93DF9387E697E00E94A22A181622
:1018C00019063CF48091A8039091A903049709F0AC
:1018D000A2C18091A703882341F18CEA93E00E9482
:1018E000381664E670E080E090E00E94523262E0D8
:1018F00070E08CEA93E00E948C1E68EC70E080E05F
:1019000090E00E9452328091A603882309F49BC183
:101910008091A503811197C181E090E09093A90384
:101920008093A80363E070E0D6C18091A8039091F2
:10193000A90382309105E1F194F40097C1F0019779
:1019400009F062C161E687E697E00E94EF2C8CEA1D
:1019500093E0DF91CF911F910F910C947E1683300D
:10196000910509F4DBC0049709F43AC14DC10E9406
:1019700023320091A1031091A2032091A30330917F
:10198000A403601B710B820B930B6038784381407A
:10199000910508F4B7C10E9417050E942332609395
:1019A000A1037093A2038093A3039093A403AAC1FD
:1019B00080919E03882309F49FC08091A703811121
:1019C00019C021E04EE050E060E070E08CEA93E066
:1019D0000E94B81D66E070E08CEA93E00E948C1EC5
:1019E00024EF31E040E050E060EA70E48CEA93E0FC
:1019F0000E94CB168091A70381110FC021E044E122
:101A000050E060E070E08CEA93E00E94B81D69E06D
:101A100070E08CEA93E00E948C1EC3E0D0E08091DD
:101A2000A703882399F064E670E080E090E00E94CC
:101A300052320E94900464E670E080E090E00E94E0
:101A4000523280919E0381115DC10FC00FEF1FEFD5
:101A500024E135E040E050E060E87FE38CEA93E089
:101A60000E9408172197D9F6DECF8091A703811134
:101A700049C121E04AE050E060E070E08CEA93E088
:101A80000E94B81D62E370E080E090E00E94523254
:101A90000E949004C3E0D0E080919E03882329F047
:101AA00080919E0381112EC106C08091A7038823D7
:101AB00009F416C1F5CF8091A703811123C18CEAE7
:101AC00093E00E94381621E04BE050E060E070E0C7
:101AD0008CEA93E00E94B81D6DE070E08CEA93E020
:101AE0000E948C1E68EC70E080E090E0DF91CF9166
:101AF0001F910F910C94523201E010E028EE33E078
:101B000040E050E060E87FE38CEA93E00E94081731
:101B1000DF91CF911F910F910C9490048CEA93E088
:101B20000E94971C8A3892400CF4ECC062E370E08B
:101B300080E090E00E9452328091A70381113FC063
:101B400021E04EE050E060E070E08CEA93E00E941B
:101B5000B81D67E070E08CEA93E00E948C1E8091D3
:101B6000A7038111CFC025E130E040E050E06AE0FA
:101B700070E080E090E00E946631AB01BC0121E0A2
:101B80008CEA93E00E94B81D25E130E040E050E08F
:101B900065E070E080E090E00E9466317093A00301
:101BA00060939F03CB010E94250B8CEA93E00E9477
:101BB000381664EF71E080E090E00E94523280912C
:101BC000A70381119FC021E04BE050E060E070E08E
:101BD0008CEA93E0DF91CF911F910F910C94B81D87
:101BE00081ED94E00E94DC298CEA93E00E94741657
:101BF000811188C08091AA039091AB03DF91CF91AE
:101C00001F910F910C94250B84E090E09093A90311
:101C10008093A80377C084E090E09093A903809319
:101C2000A80321E04BE050E060E070E08CEA93E034
:101C30000E94B81D86E00E948F0287E00E948F02FA
:101C40001092A70346CE8091A60381110DC080910A
:101C5000A503882349F082E090E09093A903809344
:101C6000A80364E070E037C08091A603882321F0C8
:101C70008091A503811127C04091A8035091A90329
:101C8000662757FD6095762F21E08CEA93E00E944D
:101C9000B81DC8ECD0E06AE070E080E090E00E94FF
:101CA00052322197C1F721E04BE050E060E070E054
:101CB0008CEA93E00E94B81D1092A7031092A6032D
:101CC0001092A5031FC083E090E09093A903809336
:101CD000A80365E070E08CEA93E00E948C1ECCCFF4
:101CE00001E010E028EE33E040E050E060E87FE300
:101CF0008CEA93E00E9478170E949004219709F0E3
:101D0000CBCECECEDF91CF911F910F9108950E943F
:101D10001B098CEA93E00E94381681ED94E00E9442
:101D20009A29009761F00E94CA3901978D30910578
:101D300008F043C0875B9F4FFC010C94393821E0C9
:101D40004AE150E060E070E08CEA93E00E94B81D48
:101D500060ED77E080E090E00E9452328CEA93E000
:101D60000E94BD1D2AC060E070E023C061E070E009
:101D700020C062E070E01DC063E070E01AC064E063
:101D800070E017C065E070E014C066E070E011C05C
:101D900067E070E00EC068E070E00BC069E070E0E2
:101DA00008C06AE070E005C06BE070E002C06CE063
:101DB00070E08CEA93E00E94F3210C9487090E9462
:101DC0001B098CEA93E00E94381681ED94E00E9492
:101DD0009A29009761F00E94CA39019783319105D1
:101DE00008F055C08A5A9F4FFC010C94393821E005
:101DF0004AE150E060E070E08CEA93E00E94B81D98
:101E000060ED77E080E090E00E9452328CEA93E04F
:101E10000E94BD1D3CC060E070E035C061E070E034
:101E200032C066E070E02FC067E070E02CC068E070
:101E300070E029C069E070E026C06AE070E023C06D
:101E40006BE070E020C06CE070E01DC06DE070E001
:101E50001AC06EE070E017C06FE070E014C060E17F
:101E600070E011C061E170E00EC062E170E00BC093
:101E700063E070E008C064E070E005C065E070E019
:101E800002C062E070E08CEA93E00E948C1E0C9429
:101E90008709CF92DF92EF92FF920F931F93CF9318
:101EA000DF93CDB7DEB72D970FB6F894DEBF0FBE28
:101EB000CDBF0E941B098CEA93E00E94381619825C
:101EC0001A821B821C82FE01359687E0DF011D927B
:101ED0008A95E9F781ED94E00E949A29009739F1FB
:101EE000DC01FE0131969E2F2F2F6E018CE0C80E73
:101EF000D11C8D91811106C0092F122FA5E0EA2E69
:101F0000F12C05C0EC15FD05B9F38193F2CFD80192
:101F10006D918D01FD86EC86C6010E948501BFEFA3
:101F2000EB1AFB0AE0E1EE16F10489F713C021E099
:101F30004AE150E060E070E08CEA93E00E94B81D56
:101F400060ED77E080E090E00E9452328CEA93E00E
:101F50000E94BD1D0E9487092D960FB6F894DEBF22
:101F60000FBECDBFDF91CF911F910F91FF90EF90EA
:101F7000DF90CF9008951F920F920FB60F92112409
:101F80002F933F934F935F936F937F938F939F9381
:101F9000AF93BF93EF93FF938091420787FF05C0F4
:101FA00010928500109284001AC0209142073327B6
:101FB00027FD30958091410790E0281739077CF480
:101FC00080914207992787FD9095FC01EE0FFF1F36
:101FD000E80FF91FED5BF84F808186FD15C08091F9
:101FE00042078F5F8093420720914207332727FDE6
:101FF00030958091410790E028173907BCF4809113
:1020000042078C305CF112C080914207992787FD0E
:102010009095FC01EE0FFF1FE80FF91FED5BF84FE5
:10202000808160E08F730E945133D9CF809184000A
:1020300090918500049680349C4918F480E49CE9D2
:1020400005C080918400909185000496909389004A
:10205000809388008FEF8093420738C020918400DE
:102060003091850080914207992787FD9095FC016A
:10207000EE0FFF1FE80FF91FED5BF84F8181928192
:10208000820F931F9093890080938800809142076C
:10209000992787FD9095FC01EE0FFF1FE80FF91FB0
:1020A000ED5BF84F808186FF11C080914207992730
:1020B00087FD9095FC01EE0FFF1FE80FF91FED5B08
:1020C000F84F808161E08F730E945133FF91EF914F
:1020D000BF91AF919F918F917F916F915F914F9140
:1020E0003F912F910F900FBE0F901F901895209148
:1020F00041072C30A0F431E0320F30934107FC014E
:102100002083822F90E0FC01EE0FFF1FE80FF91FE4
:10211000ED5BF84F88EB9BE09283818308952FEF6E
:10212000FC0120830895DF92EF92FF920F931F939B
:10213000CF93DF93EC01D62E7A01890188818C3010
:1021400008F066C061E08D2D0E9418338881A82FA9
:10215000B0E0FD01EE0FFF1FEA0FFB1FED5BF84F34
:102160002D2D2F739081907C922B908360E272E0F2
:102170006E197F0977FF02C06D5F7F4F7595679578
:1021800075956795698340E659E0401B510B57FFF1
:1021900002C04D5F5F4F55954795559547954A83CA
:1021A0006CE00E94D8379CE0899FB001112420E0A8
:1021B00030E0A901460F571FFA01EE0FFF1FE40F91
:1021C000F51FED5BF84F908196FD16C02F5F3F4FD6
:1021D0002C30310571F781110FC01092800082E020
:1021E000809381001092850010928400B19A8091B2
:1021F0006F00826080936F00888190E0FC01EE0F99
:10220000FF1FE80FF91FED5BF84F8081806480832A
:102210008881DF91CF911F910F91FF90EF90DF9018
:10222000089520E639E040E252E00C949310FC015E
:10223000808190E0FC01EE0FFF1FE80FF91FED5BBE
:10224000F84F80818F7B80830895FC0180818C30E2
:1022500070F5918128E830E0291B310997FD33950D
:10226000220F331F220F331F621773077CF09281F6
:1022700028E532E0291B310997FD3395220F331FE2
:10228000220F331F621773070CF49B012250310990
:10229000220F331F4FB7F89490E0FC01EE0FFF1FA1
:1022A000E80FF91FED5BF84F328321834FBF08958C
:1022B0004F925F926F927F92AF92BF92CF92DF92D6
:1022C000EF92FF920F931F93CF93DF93EC01603255
:1022D00082E078070CF040C077FD06C0653B7105D1
:1022E0002CF064EB70E002C060E070E0898128E8C7
:1022F00030E0281B310987FD3395220F331F220F51
:10230000331F5901CC24B7FCC094DC2C882777FDFF
:102310008095982F2A8148E552E0421B510927FDFC
:102320005395440F551F440F551F2A01662457FC2F
:102330006094762C7F926F925F924F9214EBE12E15
:10234000F12C00E010E020E030E0A9010E94823191
:102350000F900F900F900F90CE01DF91CF911F91B2
:102360000F91FF90EF90DF90CF90BF90AF907F9054
:102370006F905F904F900C942511FC01808190E04C
:10238000FC01EE0FFF1FE80FF91FED5BF84F808196
:1023900086FB882780F9089508950F931F93CF93A4
:1023A000DF9385E10E94D23225E0AC01249FC00179
:1023B000259F900D1124BC01882777FD8095982FCB
:1023C0000E942A3620E030E040E85AE30E94DE36E0
:1023D0008B01D82FC92F26E636E646E850E40E9446
:1023E000DA36181624F406E616E6D6E8C0E4B80194
:1023F0008D2F9C2FDF91CF911F910F9108950F93F7
:102400001F93CF93DF930E94CD112FEB36E842ED5F
:1024100052E40E94DE362CE73DE04BEA53E40E9492
:1024200026358B01D82FC92F20E030E0A9010E946A
:102430008B3587FF04C000E010E0D0E0C0E0B801B9
:102440008D2F9C2FDF91CF911F910F9108950F93A6
:102450001F93CF93DF93EC0100E010E04881598196
:102460006A817B81002E04C07695679557954795C4
:102470000A94D2F7642F61708C810E94513300005E
:102480000000000061E08D810E94513300000000D7
:10249000000060E08D810E9451330F5F1F4F0E31AD
:1024A0001105E1F661E08E810E94513300000000C9
:1024B000000060E08E81DF91CF911F910F910C940D
:1024C0005133CF93DF93EC01862F188219821A8241
:1024D0001B826C834D832E8361E00E94183361E080
:1024E0008D810E94183361E08E810E94183360E074
:1024F0008C810E94513360E08D810E94513360E0F5
:102500008E810E945133CE01DF91CF910C9427121E
:10251000FC0140835183628373830C942712FC0176
:1025200010821182128213820C9427120895CF9385
:10253000DF93EC01862F688379835B834A8361E0B4
:102540000E94183360E08A81DF91CF910C94183398
:10255000CF93DF93EC0160E088810E94513382E0E9
:1025600090E00E948C3261E088810E9451338AE0C1
:1025700090E00E948C3260E088810E94513320E418
:102580003CE940E050E061E08A81DF91CF910C941A
:1025900087330E94A8122AE330E040E050E00E9416
:1025A0001A38211531054105510521F427EE33E094
:1025B00040E050E0CA01B9010E942A360895CF9345
:1025C000DF93EC01FC01E051FF4F6081718140E03D
:1025D00008960E94E533FE01EE50FF4F6081718145
:1025E00040E0CE018F5B9F4F0E94E533FE01EC502F
:1025F000FF4F6081718140E0CE0186589F4F0E945D
:10260000E533FE01EA50FF4F6081718140E0CE0169
:102610008D549F4FDF91CF910C94E5334F925F9291
:102620006F927F928F929F92AF92BF92CF92DF92E2
:10263000EF92FF920F931F93CF93DF93CDB7DEB747
:102640003C014B885C88FC01E051FF4F7183608343
:1026500032965183408332963183208332961183A0
:1026600000830E94DF12F301EC5DFE4F1082E11047
:1026700036C0F301F3958AE590E09183808332962A
:102680009183808332969183808332969183808375
:10269000A201B401C30184519F4F0E949712F3011C
:1026A000E85FFE4FA082B1823296C082D18261E0A3
:1026B0008A2D0E94183360E08C2DDF91CF911F91FD
:1026C0000F91FF90EF90DF90CF90BF90AF909F90D1
:1026D0008F907F906F905F904F900C941833E12C07
:1026E000F12C00E010E0C8010E94443A90E08138EB
:1026F00091050CF09A95F301EE0DFF1D908F878BDD
:102700000F5F1F4F89E3E80EF11C0430110559F7E4
:10271000B0CFCF93DF93EC0108960E944634CE01F0
:102720008F5B9F4F0E944634CE0186589F4F0E9478
:102730004634CE018D549F4FDF91CF910C94463497
:102740000F931F93FC01708F678BE05BFF4F5183EA
:102750004083F99631832083F996118300831F917A
:102760000F910895EF92FF920F931F93CF93DF93F2
:102770007C0100E010E0C0E0D0E0F701E00FF11FC5
:102780006789CE010E944C3A2196075C1F4FC430E6
:10279000D10599F7DF91CF911F910F91FF90EF90A5
:1027A00008952F923F924F925F926F927F928F92F5
:1027B0009F92AF92BF92CF92DF92EF92FF920F93D0
:1027C0001F93CF93DF93CDB7DEB72A970FB6F89458
:1027D000DEBF0FBECDBF1C016B0149835A830E942F
:1027E000DF12F101EC5DFE4F8081811110822BE040
:1027F000C216D1040CF4CCC0EE24D7FCE094FE2C1D
:10280000C701B6010E942A3620E030E040E251E4E0
:102810000E948F352B013C0139813B838A818C8357
:10282000510100E010E0AB81BC818D919D91BC8392
:10283000AB834501BCEE8B1ABEEF9B0AF101E00FA2
:10284000F11FF39520813181821B930BBC018827F6
:1028500077FD8095982F0E942A36A30192010E944D
:102860008F35F40160837183828393830E5F1F4FE2
:10287000F4E0AF0EB11C08301105A9F60E94233216
:102880009101245F3E4F3C832B836C0D7D1D8E1D7B
:102890009F1DD9016D937D938D939C931397442431
:1028A0004394512CF101E05FFE4FFE83ED832450F1
:1028B000314038872F830E942332EB81FC810081D5
:1028C000118122813381601771078207930708F015
:1028D00075C00E942332665F7F4F8F4F9F4FAD813F
:1028E000BE816D937D938D939C9313976F807884B5
:1028F00081011A8619864201AA2497FCA094BA2C59
:10290000E985FA85E20DF31DF39580819181BC0183
:10291000882777FD8095982F0E942A366B017C01CD
:10292000C501B4010E942A36F801EC5EFE4F2081F9
:102930003181428153810E94DE369B01AC01C70187
:10294000B6010E9427350E94F735C3010E948E34DC
:10295000E985FA853296FA87E9870C5F1F4FF9E31C
:102960006F0E711C29853A852830310549F60E9481
:102970002332AD81BE810D911D912D913C91601747
:1029800071078207930798F3BFEF4B1A5B0A93CF47
:10299000C980DA8000E010E07101F8E0EF0EF11C70
:1029A000D6016D917D916D01C701800F911F0E942D
:1029B0008E34075C1F4F043E110591F7E981FA81BF
:1029C00080E090E021913191D101A80FB91FB3951A
:1029D0002D933C93029688309105A1F72A960FB665
:1029E000F894DEBF0FBECDBFDF91CF911F910F9145
:1029F000FF90EF90DF90CF90BF90AF909F908F901F
:102A00007F906F905F904F903F902F9008952F92FE
:102A10003F924F925F926F927F928F929F92AF926E
:102A2000BF92CF92DF92EF92FF920F931F93CF93BB
:102A3000DF9300D000D0CDB7DEB75C01CA01290119
:102A4000A70196013C014B01650188E0C80ED11C2D
:102A5000780104E010E03C2C2D2CF3018191919140
:102A60003F01F60196838583F401819191914F0195
:102A7000F60194838383B201C60129833A834B8391
:102A80005C830E945534F70181919191A191B1919C
:102A90007F01F60181879287A387B48701501109CE
:102AA000F9E3CF0ED11C29813A814B815C8101155C
:102AB000110599F60E9423320E9428366B017C0191
:102AC000B201882777FD8095982F0E942A362981A8
:102AD0003A814B815C810E94DE36A70196010E94FB
:102AE00027352B013C0185010F5B1F4F45018AE70C
:102AF000880E911CE3EBAE0EB11CA3019201C7013D
:102B0000B6010E948B351816A4F0832D922D0E94D9
:102B10009534C8010E949534C4010E949534C501C2
:102B20000E9495340E9423320E9428366B017C015A
:102B3000E4CF0F900F900F900F90DF91CF911F91E6
:102B40000F91FF90EF90DF90CF90BF90AF909F904C
:102B50008F907F906F905F904F903F902F9008954F
:102B60002F923F924F925F926F927F928F929F929D
:102B7000AF92BF92CF92DF92EF92FF920F931F938B
:102B8000CF93DF93CDB7DEB72C970FB6F894DEBFA7
:102B90000FBECDBF4C017A8369835C834B833E8338
:102BA0002D831801260137010E94DF12F401EC5D2C
:102BB000FE4F808181111082C301B2010E94F7355E
:102BC0006F83788789879A87AF80B8841A141B042B
:102BD000A4F12F813885B901882777FD8095982F3A
:102BE0000E942A369B01AC01C301B2010E94263526
:102BF0006B017C0181012D813E814B815C8169816A
:102C00007A81C4010E9407152C960FB6F894DEBF96
:102C10000FBECDBFDF91CF911F910F91FF90EF902D
:102C2000DF90CF90BF90AF909F908F907F906F90EC
:102C30005F904F903F902F9008951C861B86C12C6B
:102C4000D12C90E8E92E9FE3F92E81012D813E8160
:102C50004B815C8169817A81C4010E9407158B8553
:102C60009C8501969C878B878A159B0541F7B1CF80
:102C7000EF92FF920F931F93CF93DF93CDB7DEB701
:102C800028970FB6F894DEBF0FBECDBF8C017C0134
:102C90008CEDE81A8EEFF80AF7018081811117C0D8
:102CA00088E0E2E1F1E0DE01119601900D928A9553
:102CB000E1F7AE014F5F5F4F64EF71E0C8010E9422
:102CC000D113C8010E94891381E0F70180832896FF
:102CD0000FB6F894DEBF0FBECDBFDF91CF911F912D
:102CE0000F91FF90EF9008958C5D9E4FFC018081C5
:102CF00008958C5D9E4FFC0160830895CF92DF9212
:102D0000EF92FF920F931F93CF93DF93CDB7DEB770
:102D1000A0970FB6F894DEBF0FBECDBF28E0E2E665
:102D2000F1E0DE01599601900D922A95E1F728E035
:102D3000EAE6F1E0DE01519601900D922A95E1F765
:102D400020E1E2E7F1E0DE01119601900D922A9573
:102D5000E1F7C12CD12C40E8E42E4FE3F42E8E0194
:102D60000F5F1F4F28EE33E0AE014F5E5F4FBE0195
:102D7000675E7F4F0E94B015A0960FB6F894DEBF35
:102D80000FBECDBFDF91CF911F910F91FF90EF90BC
:102D9000DF90CF900895EF92FF920F931F93CF9300
:102DA000DF93CDB7DEB760970FB6F894DEBF0FBEE6
:102DB000CDBF8C01790188E0EAE1F1E0DE011996EE
:102DC00001900D928A95E1F7AE01475F5F4FB9011F
:102DD000C8010E94D11388E0E2E1F1E0DE01119622
:102DE00001900D928A95E1F7AE014F5F5F4FB701F9
:102DF000C8010E94D11360960FB6F894DEBF0FBED3
:102E0000CDBFDF91CF911F910F91FF90EF9008956B
:102E10008F929F92AF92BF92CF92DF92EF92FF92EA
:102E20000F931F93CF93DF93CDB7DEB7A0970FB665
:102E3000F894DEBF0FBECDBF5C016A017B01490182
:102E4000980188E0E2E6F1E0DE01599601900D92EA
:102E50008A95E1F788E0EAE6F1E0DE01519601901B
:102E60000D928A95E1F78E010F5F1F4F80E1F80107
:102E700011928A95E9F746EA4203B001439F700D2B
:102E80001124882777FD8095982F0E942A362BEDF4
:102E90003FE049E450E40E94DE3620E030E044E3C5
:102EA00053E40E948F3569877A878B879C876D876B
:102EB0007E878F87988B9401AE014F5E5F4FBE0176
:102EC000675E7F4FC5010E94B015A0960FB6F894BB
:102ED000DEBF0FBECDBFDF91CF911F910F91FF904D
:102EE000EF90DF90CF90BF90AF909F908F9008951C
:102EF000CF92DF92EF92FF920F931F93CF93DF93C6
:102F0000CDB7DEB7A0970FB6F894DEBF0FBECDBF2A
:102F1000E8E0FE2EE2E6F1E0DE01599601900D9226
:102F2000FA94E1F7F8E0FF2EE2E8F1E0DE015196D5
:102F300001900D92FA94E1F7A0E1FA2EEAE8F1E0AF
:102F4000DE01119601900D92FA94E1F7013011051E
:102F500039F4EEE1F0E0FA8FE98FEAE0F0E006C044
:102F6000EAE0F0E0FA8FE98FEEE1F0E0FC8FEB8F22
:102F70006A017B018E010F5F1F4FAE014F5E5F4FF5
:102F8000BE01675E7F4F0E94B015A0960FB6F89401
:102F9000DEBF0FBECDBFDF91CF911F910F91FF908C
:102FA000EF90DF90CF9008958F929F92AF92BF9253
:102FB000CF92DF92EF92FF920F931F93CF93DF9305
:102FC000CDB7DEB768970FB6F894DEBF0FBECDBFA2
:102FD0005C014B0188E0EAE9F1E0DE0151960190E5
:102FE0000D928A95E1F788E0E2EAF1E0DE011996B8
:102FF00001900D928A95E1F788E0E2E1F1E0DE01CF
:10300000119601900D928A95E1F72F3F3F4F71F491
:1030100081E990E09E8B8D8B88E790E0988F8F8B75
:103020002BE430E03E872D87988B8F8700E010E0FF
:103030006A01EE24D7FCE094FE2C081519054CF526
:10304000AE014F5E5F4F60E971E0C5010E94D11390
:10305000AE01475F5F4F60E971E0C5010E94D11387
:10306000C701B6010E942A362DEC3CEC4CE45FE32C
:103070000E94DE360E94FC350E945232AE014F5F44
:103080005F4F64EF71E0C5010E94D1130F5F1F4FC6
:10309000D4CF68960FB6F894DEBF0FBECDBFDF91D8
:1030A000CF911F910F91FF90EF90DF90CF90BF9045
:1030B000AF909F908F9008958F929F92AF92BF9202
:1030C000CF92DF92EF92FF920F931F93CF93DF93F4
:1030D000CDB7DEB7A0970FB6F894DEBF0FBECDBF59
:1030E0008C014B0188E0EAEAF1E0DE01599601909B
:1030F0000D928A95E1F788E0E2EBF1E0DE0151966E
:1031000001900D928A95E1F788E0EAEBF1E0DE01AB
:10311000199601900D928A95E1F788E0E2E1F1E0DD
:10312000DE01119601900D928A95E1F72F3F3F4FF6
:10313000A1F481E990E09E8F8D8F8AE790E098A3BB
:103140008F8F2CE330E03E8B2D8B988F8F8B28E771
:1031500030E03E872D87988B8F876A0188EEC81AEA
:1031600083E0D80A80E9C81681E0D80624F480E913
:10317000C82EDD24D3947601F594E794F594E79472
:10318000A12CB12CA814B904C4F5AE01475E5F4F61
:1031900064EF71E0C8010E94D113AE014F5E5F4F32
:1031A00064EF71E0C8010E94D113AE01475F5F4F29
:1031B000B701C8010E94D113AE014F5E5F4FB70146
:1031C000C8010E94D113AE01475F5F4FB701C8012C
:1031D0000E94D113AE014F5E5F4FB701C8010E943C
:1031E000D113AE014F5F5F4F64EF71E0C8010E94E1
:1031F000D1138FEFA81AB80AC5CFB601882777FD7B
:103200008095982F0E945232A0960FB6F894DEBF98
:103210000FBECDBFDF91CF911F910F91FF90EF9027
:10322000DF90CF90BF90AF909F908F900895CF92F6
:10323000DF92EF92FF920F931F93CF93DF93CDB75F
:10324000DEB7A0970FB6F894DEBF0FBECDBF6A0100
:103250007B01E8E0BE01675E7F4FDB014E2F1D92D0
:103260004A95E9F71E8F0D8F18A30F8FAE014F5EA1
:103270005F4FDA011D92EA95E9F71E8B0D8B1195D0
:1032800001951109188F0F8B10E1E2ECF1E0DE01DE
:10329000119601900D921A95E1F78E010F5F1F4F65
:1032A0000E94B015A0960FB6F894DEBF0FBECDBF3A
:1032B000DF91CF911F910F91FF90EF90DF90CF9012
:1032C0000895CF92DF92EF92FF920F931F93CF93C7
:1032D000DF93CDB7DEB7A0970FB6F894DEBF0FBE71
:1032E000CDBF6A017B01E8E0BE01675E7F4FDB0175
:1032F0004E2F1D924A95E9F71E8F0D8F18A30F8F41
:10330000AE014F5E5F4FDA011D92EA95E9F7F801D1
:1033100017FD3196F595E795FE8BED8B17FF02C0F3
:103320000F5F1F4F15950795119501951109188F7E
:103330000F8B8E010F5F1F4FE0E1D8011D92EA95C0
:10334000E9F70E94B015A0960FB6F894DEBF0FBE45
:10335000CDBFDF91CF911F910F91FF90EF90DF9044
:10336000CF900895CF92DF92EF92FF920F931F9329
:10337000CF93DF93CDB7DEB7A0970FB6F894DEBF3B
:103380000FBECDBF6A017B01E8E0BE01675E7F4FE3
:10339000DB014E2F1D924A95E9F71E8F0D8F18A362
:1033A0000F8FAE014F5E5F4FDA011D92EA95E9F78C
:1033B0001E8B0D8B119501951109188F0F8B8E01A6
:1033C0000F5F1F4FE0E1D8011D92EA95E9F70E94D7
:1033D000B015A0960FB6F894DEBF0FBECDBFDF913B
:1033E000CF911F910F91FF90EF90DF90CF900895B4
:1033F000CF92DF92EF92FF920F931F93CF93DF93C1
:10340000CDB7DEB7A0970FB6F894DEBF0FBECDBF25
:103410006A017B010A31110514F009E110E0E8E0CE
:10342000BE01675E7F4FDB014E2F1D924A95E9F783
:103430001A8F098F1C8F0B8FAE014F5E5F4FDA0121
:103440001D92EA95E9F710E1E2EDF1E0DE01119657
:1034500001900D921A95E1F78E010F5F1F4F0E94A8
:10346000B015A0960FB6F894DEBF0FBECDBFDF91AA
:10347000CF911F910F91FF90EF90DF90CF90089523
:10348000CF92DF92EF92FF920F931F93CF93DF9330
:10349000CDB7DEB7A0970FB6F894DEBF0FBECDBF95
:1034A0006A017B010E30110514F00DE010E01A8F57
:1034B000098F1C8F0B8F1E8F0D8F18A30F8FAE01DE
:1034C0004F5E5F4F68E0FA0111926A95E9F7B80123
:1034D0006C5F7F4F7E8B6D8B64E070E0601B710BC7
:1034E000788F6F8B60E1E2EEF1E0DE0111960190E2
:1034F0000D926A95E1F78E010F5F1F4FBE01675E67
:103500007F4F0E94B015A0960FB6F894DEBF0FBE95
:10351000CDBFDF91CF911F910F91FF90EF90DF9082
:10352000CF9008952F923F924F925F926F927F9229
:103530008F929F92AF92BF92CF92DF92EF92FF92C3
:103540000F931F93CF93DF93CDB7DEB7A2970FB63C
:10355000F894DEBF0FBECDBF4C011A012B0139011B
:1035600088E09E01275E3F4F3AA329A3F901282F47
:1035700011922A95E9F71E8F0D8F18A30F8F5E0108
:1035800031E1A30EB11CF50111928A95E9F7C8014A
:1035900017FD01969595879502969E8B8D8B17FF4B
:1035A00002C00F5F1F4F15950795119501951109E1
:1035B00002501109188F0F8B26EAA701240360011E
:1035C000259FD00C11248E010F5F1F4F80E1F80161
:1035D00011928A95E9F7B601882777FD8095982F93
:1035E0000E942A362BED3FE049E450E40E94DE368B
:1035F00020E030E044E353E40E948F3569877A8706
:103600008B879C8724ECA7012403B001259F700DB4
:1036100011246C0D7D1D882777FD8095982F0E94C1
:103620002A362BED3FE049E450E40E94DE3620E0EC
:1036300030E044E353E40E948F356D877E878F87A7
:10364000988B720161019301A501BE01675E7F4FF6
:10365000C4010E94B015A2960FB6F894DEBF0FBE4B
:10366000CDBFDF91CF911F910F91FF90EF90DF9031
:10367000CF90BF90AF909F908F907F906F905F9012
:103680004F903F902F9008952F923F924F925F92CC
:103690006F927F928F929F92AF92BF92CF92DF9262
:1036A000EF92FF920F931F93CF93DF93CDB7DEB7C7
:1036B000A0970FB6F894DEBF0FBECDBF4C015A01E4
:1036C0006B01390128E02E0149E1440E511CF20141
:1036D000422F11924A95E9F789E190E09A8F898FFC
:1036E0009C8F8B8F1E8F0D8F18A30F8F1E0151E1A2
:1036F000250E311CF10111922A95E9F7C80117FD39
:1037000001969595879504969E8B8D8B17FF02C029
:103710000F5F1F4F159507951195019511090450DD
:103720001109188F0F8B8E010F5F1F4F80E1F80179
:1037300011928A95E9F780E090E0A4EBB2E48983E6
:103740009A83AB83BC838D839E83AF83B88724EC3D
:10375000A7012403B001259F700D1124882777FD50
:103760008095982F0E942A362BED3FE049E450E4E3
:103770000E94DE3620E030E044E353E40E948F35BF
:103780006D877E878F87988B760165019301A101F4
:10379000B201C4010E94B015A0960FB6F894DEBF26
:1037A0000FBECDBFDF91CF911F910F91FF90EF9092
:1037B000DF90CF90BF90AF909F908F907F906F9051
:1037C0005F904F903F902F9008952F923F924F928D
:1037D0005F926F927F928F929F92AF92BF92CF92A1
:1037E000DF92EF92FF920F931F93CF93DF93CDB7AA
:1037F000DEB7A0970FB6F894DEBF0FBECDBF4C0169
:103800005A016B01390128E02E0149E1440E511C97
:10381000F201422F11924A95E9F78CE090E09A8FDD
:10382000898F9C8F8B8F1E8F0D8F18A30F8F1E017A
:1038300051E1250E311CF10111922A95E9F7C801D9
:103840000A979E8B8D8B8AE090E0801B910B988F5E
:103850008F8B8E010F5F1F4F80E1F80111928A95C7
:10386000E9F78BED9FE0A9E4B0E48D839E83AF83FD
:10387000B88726EAA7012403B001259F700D112403
:10388000882777FD8095982F0E942A362BED3FE000
:1038900049E450E40E94DE3620E030E044E353E4A3
:1038A0000E948F3569877A878B879C878AE58E9DF2
:1038B000B0018F9D700D1124882777FD8095982F7A
:1038C0000E942A362BED3FE049E450E40E94DE36A8
:1038D00020E030E044E353E40E948F356D877E871B
:1038E0008F87988B760165019301A101B201C40114
:1038F0000E94B015A0960FB6F894DEBF0FBECDBFE4
:10390000DF91CF911F910F91FF90EF90DF90CF90BB
:10391000BF90AF909F908F907F906F905F904F90EF
:103920003F902F90089584519F4F0C94C9120F938C
:103930001F93CF93DF93EC01C65FDE4F88810E9417
:10394000D23288810E94D2328C0164E070E080E043
:1039500090E00E94523288810E94D232080F191FD3
:1039600064E070E080E090E00E945232C80117FDF0
:10397000019695958795DF91CF911F910F910895AD
:10398000CF92DF92EF92FF920F931F93CF93DF932B
:103990008C01095F1F4FC8010E94FF11CAE0D0E0EF
:1039A000C12CD12C7601C8010E94FF119B01AC01F2
:1039B000C701B6010E9427356B017C0161E070E010
:1039C00080E090E00E945232219769F720E030E0D9
:1039D00040E251E4C701B6010E948F35DF91CF91DB
:1039E0001F910F91FF90EF90DF90CF900895CF93AC
:1039F000DF93CDB7DEB7C058D1090FB6F894DEBF5C
:103A00000FBECDBF80E8E2EFF1E0DE01119601903C
:103A10000D928A95E1F7660F771F660F771F81E099
:103A200090E08C0F9D1F680F791FFB0160817181F1
:103A300082819381C058DF4F0FB6F894DEBF0FBE6E
:103A4000CDBFDF91CF910895CF93DF93EC01BA0101
:103A50000E94F71CAB01BC01CE01DF91CF910C9409
:103A60008812CF93DF93CDB7DEB7C057D1090FB619
:103A7000F894DEBF0FBECDBF80E2E2E7F2E0DE01E8
:103A8000999601900D928A95E1F780E1E2E9F2E0E2
:103A9000DE01AF59BF4F01900D928A95E1F788E1A1
:103AA000E2EAF2E0DE01A75BBF4F01900D928A953A
:103AB000E1F788E2EAEBF2E0DE01119601900D9267
:103AC0008A95E1F76130710509F194F4672BB1F53E
:103AD000FA01EE0FFF1FEE0FFF1F81E090E08C0F49
:103AE0009D1FE80FF91F60A571A582A593A526C0AB
:103AF0006230710599F06330710501F5FA01EE0F3E
:103B0000FF1FEE0FFF1F81E090E00FC0FA01EE0FE4
:103B1000FF1FEE0FFF1F81E690E007C0FA01EE0FD6
:103B2000FF1FEE0FFF1F89E490E08C0F9D1FE80F31
:103B3000F91F608171818281938100C0C059DF4F7C
:103B40000FB6F894DEBF0FBECDBFDF91CF910895C1
:103B5000CF93DF93EC01CB01BA01A901CE010E9402
:103B6000311DAB01BC01CE01DF91CF910C948812C5
:103B700021110C94241D0C9488120C948F128F9296
:103B80009F92AF92BF92EF92FF920F931F93CF93AA
:103B9000DF93EC0148015901E114F10419F4EE241A
:103BA000E394F12CCB01BA010E94FC35C85FDE4FD3
:103BB000A501940188810E949A2EC501B4010E943A
:103BC0005232B701882777FD8095982FDF91CF91EA
:103BD0001F910F91FF90EF90BF90AF909F908F90AB
:103BE0000C9452322F923F924F925F926F927F923B
:103BF0008F929F92AF92BF92CF92DF92EF92FF92FD
:103C00000F931F93CF93DF93CDB7DEB728970FB6EF
:103C1000F894DEBF0FBECDBF1C012A013B01098312
:103C20001A832B833C83CD82DE82EF82F886CD8C93
:103C3000DE8CC114D10419F4CC24C394D12C298175
:103C40003A814B815C81C301B2010E948B3587FFB1
:103C500025C0C301B2010E94F735882777FD809502
:103C6000982F0E942A362B013C0129813A814B81F1
:103C70005C810E948B3587FF36C0760195018401F7
:103C8000B301A201C1010E94BF1D2D813E814F8160
:103C90005885C301B2010E94DE36DDCFC301B201F7
:103CA0000E94F735882777FD8095982F0E942A3645
:103CB0002B013C0129813A814B815C810E94DA36DB
:103CC00018168CF4760195018401B301A201C1019B
:103CD0000E94BF1D2D813E814F815885C301B201D5
:103CE0000E948F35DDCF28960FB6F894DEBF0FBE49
:103CF000CDBFDF91CF911F910F91FF90EF90DF909B
:103D0000CF90BF90AF909F908F907F906F905F907B
:103D10004F903F902F9008957F928F929F92AF92F5
:103D2000BF92CF92DF92EF92FF920F931F93CF93A8
:103D3000DF93EC016331710508F047C3FB01E759DC
:103D4000FF4F0C9439385EE1E52EF12C02E310E0D0
:103D500020E030E044EA50ED64E274E40E94BF1DCC
:103D600069E1E62EF12C07E310E020E030E042E5C7
:103D700050ED64EA74E4CE010E94BF1D7AE0E72EA4
:103D8000F12C0CE310E020E030E040E050E06CED7E
:103D900074E426C02EE1E22EF12C02E310E020E0D4
:103DA00030E044EA50ED64E274E40E94BF1D39E162
:103DB000E32EF12C07E310E020E030E040E050E09B
:103DC0006CED74E4CE010E94BF1D4AE0E42EF12C9C
:103DD00002E310E020E030E042E550ED64EA74E4F4
:103DE000CE010E94BF1DF1C21F92B2E07B2E7F92D6
:103DF00014E1812E912CA12CB12C0AE0C02E07EDEC
:103E0000D02E03E8E02E0FE3F02E0CE51FEF23EC9D
:103E100034E442E550ED64EA74E40E94F21D6EE180
:103E200070E080E090E00E9452321F927F928AE020
:103E3000882E912CA12CB12C98EBC92E9EE1D92E65
:103E400095E8E92E9FE3F92E0FE115ED22E135E427
:103E500042E550ED64EA74E4B1C21F928AE08F93A8
:103E6000FEE18F2E912CA12CB12CACE5CA2EAFE82F
:103E7000DA2EA2E8EA2EAFE3FA2E00E010E02CEDF5
:103E800034E442E550ED64EA74E46DC21F928AE0C6
:103E90008F937EE1872E912CA12CB12CEAE0CE2EBF
:103EA000E7EDDE2EE3E8EE2EEFE3FE2E0FE115ED5B
:103EB00022E135E44CE55FEF63EC74E454C254E670
:103EC000E52EF12C02E310E020E030E042E550ED79
:103ED00064EA74E40E94BF1D60E5E62EF12C02E363
:103EE00010E020E030E04CE55FEF63EC74E4CE01DD
:103EF0000E94BF1DE12CF12C0CE211E020E030E02B
:103F00004FE155ED62E175E46BCF1F927724739416
:103F10007F929AE0892E912CA12CB12C2CE5C22EF7
:103F20002FE8D22E22E8E22E2FE3F22E00E010E658
:103F300026E035E440E050E068E474E4CE010E94FD
:103F4000F21D1F927F9237E0832E912CA12CB12C71
:103F50004AE0C42E47EDD42E43E8E42E4FE3F42E7E
:103F600000E010E028E434E440E050E566E075E469
:103F700025C21F9283E08F9318E0812E912CA12CF3
:103F8000B12C08EBC02E0EE1D02E05E8E02E0FE399
:103F9000F02E00E010E02AEF34E440E050E06CE561
:103FA00074E4CE010E94F21D68EC70E080E090E0C5
:103FB0000E9452320F900F9086E1C82ED12CBAE0A9
:103FC000EB2EF12C05E010E020E030E048E451EF6A
:103FD00066E774E4CE010E94BF1D81E0C81AD108D3
:103FE00071F7F3C11F9283E08F93E8E08E2E912C3E
:103FF000A12CB12CFAE0CF2EF7EDDF2EF3E8EF2E57
:10400000FFE3FF2E00E010E82BE335E440E050E052
:104010006BEE74E4CE010E94F21D68EC70E080E06B
:1040200090E00E9452320F900F90A0E1CA2ED12C46
:104030007AE0E72EF12C0AE010E020E030E040E0EA
:1040400050ED62E874E4CE010E94BF1D81E0C81A01
:10405000D10871F7BAC11F9284E08F9330E1832EAB
:10406000912CA12CB12C4AE0C42E47EDD42E43E86C
:10407000E42E4FE3F42E00E010E021E634E440E0CB
:1040800050E06FE274E4CE010E94F21D1F9287E0BF
:104090008F9352E1852E912CA12CB12C6EEAC62E65
:1040A00067E4D62E61E8E62E6FE3F62E00E010E816
:1040B00022E234E440E050EC60E674E47FC11F92F9
:1040C0008AE08F939AE0892E912CA12CB12C28EBB9
:1040D000C22E2EE1D22E25E8E22E2FE3F22E00E0B2
:1040E00010E02AEF33E440E050E068EC72E4CE01E7
:1040F0000E94F21D64EF71E080E090E00E94523275
:104100001F9281E08F9300E010E028EC32E440E061
:1041100050E068EC73E452C11F92B8E07B2E7F92AE
:1041200014E1812E912CA12CB12C06E6C02EDC2CA2
:1041300006E8E02E0FE3F02E00E010E42CE135E479
:1041400040E050E86BEB74E40E94F21D1F927F92F6
:1041500089E1882E912CA12CB12C00E010E82BEBEA
:1041600034E440E050E36CE175E428C11F9283E041
:104170008F93E8E08E2E912CA12CB12CF6E6CF2E59
:10418000DC2CF6E8EF2EFFE3FF2E00E010E82BEB2F
:1041900035E440E050E06AEF74E4CE010E94F21D85
:1041A00062E370E080E090E00E9452321F9282E071
:1041B0008F93ADE08A2E912CA12CB12C00E010E061
:1041C0002AEF34E440E058E76BEB75E4F7C01F9248
:1041D00048E0742E7F925FE0852E912CA12CB12CAB
:1041E00066E6C62EDC2C66E8E62E6FE3F62E00E0CF
:1041F00010E02AEF34E440E050E86BEB74E40E94F6
:10420000F21D64E670E080E090E00E9452321F925E
:104210007F927AE0872E912CA12CB12C00E010E443
:104220002CE135E440E050E86DEE74E4C7C01F9225
:1042300088EC8F9324E1822E912CA12CB12C3CE5AB
:10424000C32E3FE8D32E32E8E32E3FE3F32E00E007
:1042500010E427E234E440E050E06CE574E483C00D
:104260001F9282E08F93B8E08B2E912CA12CB12C61
:104270001AE0C12E17EDD12E13E8E12E1FE3F12E27
:1042800000E010E824ED34E440E050E06AE774E434
:10429000CE010E94F21D1F9283E08F9308EBC02E87
:1042A0000EE1D02E05E8E02E0FE3F02E00E010E046
:1042B0002AEF33E440E050E664ED74E4CE010E945E
:1042C000F21D1F928AE08F9389E0882E912CA12CF9
:1042D000B12C96E6C92EDC2C96E8E92E9FE3F92E48
:1042E00000E010E824ED34E440E050E06AE774E4D4
:1042F000CE010E94F21D0F900F900F900F900F9023
:104300000F9063C01F928FE08F93F2E08F2E912C5D
:10431000A12CB12CACE5CA2EAFE8DA2EA2E8EA2E29
:10432000AFE3FA2E00E010E82BE335E440E050E084
:1043300068EC74E418C01F9284E18F9372E0872EBA
:10434000912CA12CB12CECE5CE2EEFE8DE2EE2E88C
:10435000EE2EEFE3FE2E00E010E82BEB35E440E01C
:1043600050E06AEF74E4CE010E94F21D0F900F90AE
:104370002CC01F9244E1742E7F9252E0852E912C26
:10438000A12CB12C6CE5C62E6FE8D62E62E8E62E85
:104390006FE3F62E00E010E02AE735E440E050E05D
:1043A00068EC74E40E94F21D1F927F9200E010E816
:1043B0002BE335E440E050E06AE775E4CE010E946B
:1043C000F21D0F900F900F900F90DF91CF911F91E2
:1043D0000F91FF90EF90DF90CF90BF90AF909F90A4
:1043E0008F907F9008952F923F924F925F926F929D
:1043F0007F928F929F92AF92BF92CF92DF92EF9275
:10440000FF920F931F93CF93DF93CDB7DEB7C258C0
:10441000D1090FB6F894DEBF0FBECDBF3C0188E0D6
:10442000E2EEF2E0DE01AF58BF4F01900D928A95A7
:10443000E1F788E0EAEEF2E0DE01A759BF4F019014
:104440000D928A95E1F788E0E2EFF2E0DE01AF59E4
:10445000BF4F01900D928A95E1F788E0EAEFF2E014
:10446000DE01A75ABF4F01900D928A95E1F788E0CF
:10447000E2E0F3E0DE01AF5ABF4F01900D928A9562
:10448000E1F788E0EAE0F3E0DE01A75BBF4F0190CF
:104490000D928A95E1F788E0E2E1F3E0DE01AF5B9F
:1044A000BF4F01900D928A95E1F788E0EAE1F3E0D1
:1044B000DE01D99601900D928A95E1F788E0E2E25B
:1044C000F3E0DE01D19601900D928A95E1F788E044
:1044D000EAE2F3E0DE01999601900D928A95E1F708
:1044E00088E0E2E3F3E0DE01919601900D928A9577
:1044F000E1F788E0EAE3F3E0DE01599601900D92DE
:104500008A95E1F788E0E2E4F3E0DE01519601905C
:104510000D928A95E1F788E0EAE4F3E0DE0119966E
:1045200001900D928A95E1F76D30710508F0CEC6C5
:10453000FB01E458FF4F0C94393882E090E0EF968D
:104540009FAF8EAFEF973DC4E4E0F0E0EF96FFAF92
:10455000EEAFEF976BC3FEE1EF2EF12C02E310E01C
:1045600020E030E044EA50ED64E274E4C3010E94CC
:10457000BF1D4AE050E060E070E0C3010E94241DCE
:104580006DE070E0C3010E948C1E04E110E020E2A7
:1045900033E040E050E060E87FE3C3010E9461192E
:1045A0006DE070E076C14BE050E060E070E0C30188
:1045B0000E94241D6BE070E0C3010E948C1E4CE041
:1045C00050E060E070E0C3010E94241D04E110E0AF
:1045D00024EF31E040E050E060E87FE3C3010E9457
:1045E000B2194BE050E060E070E0C3010E94241D6E
:1045F0006CE070E0C3010E948C1E4CE050E060E073
:1046000070E0C3010E94241D24EF31E040E050E03F
:1046100060E87FE3C3010E94B21904C346E150E0A1
:1046200060E070E0C3010E94241DAE014F585F4F4F
:104630006CEB72E0C3010E94D1131F9268EC562EFE
:104640005F9274E1872E912CA12CB12CECE5CE2E3B
:10465000EFE8DE2EE2E8EE2EEFE3FE2E00E010E8BB
:104660002FE434E440E050E06CE574E4C3010E94C0
:10467000F21D48E150E060E070E0C3010E94241D9B
:104680001F925F9200E010E825E434E440E050E837
:104690006FE474E4C3010E94F21D47E150E060E062
:1046A00070E0C3010E94241D1F925F9200E010E0A1
:1046B00029E334E440E050E865E474E4C3010E9477
:1046C000F21D48E150E060E070E0C3010E94241D4B
:1046D0001F925F9200E010E02FE234E440E050E0EF
:1046E00069E374E4C3010E94F21D47E150E060E019
:1046F00070E0C3010E94241D1F925F9200E010E44D
:1047000027E234E440E050E06FE274E4C3010E9429
:10471000F21D46E150E060E070E0C3010E94241DFC
:1047200064EF71E080E090E00E945232C3010E9489
:1047300038166CE271E080E090E00E94523207C2CD
:10474000AE0147595F4F6CEB72E0C3010E94D11379
:1047500044E0442E512C5AE0352E2224239420E0AC
:1047600030E041E050E060E070E0C3010E94A81D2D
:104770001F923F922AE0822E912CA12CB12C38EB73
:10478000C32E3EE1D32E35E8E32E3FE3F32E00E0C7
:1047900010E028E433E440E050E068EC72E4C30148
:1047A0000E94F21D21E030E041E050E060E070E066
:1047B000C3010E94A81D1F923F9200E010E026E96D
:1047C00033E440E050E068E473E4C3010E94F21D6A
:1047D00022E030E041E050E060E070E0C3010E9480
:1047E000A81D1F923F9200E010E02AEF33E440E062
:1047F00050E066E973E4C3010E94F21D64EF71E0CA
:1048000080E090E00E94523221E030E041E050E050
:1048100060E070E0C3010E94A81D1F922F9200E08B
:1048200010E02AE733E440E050E068EC73E4C301B1
:104830000E94F21D20E030E041E050E060E070E0D6
:10484000C3010E94A81D1F922F9200E010E028ECE7
:1048500032E440E050E06AE773E4C3010E94F21DD5
:1048600064EF71E080E090E00E94523291E0491ADA
:1048700051080FB6F894DEBF0FBECDBF09F06FCF61
:1048800043E150E060E070E0C3010E94241D69E054
:1048900070E0C3010E948C1EC5C1AE014F595F4F2D
:1048A00064EF71E0C3010E94D1136CE271E080E01B
:1048B00090E00E94523243E150E060E070E0C301BA
:1048C0000E94241D60E170E0C3010E948C1E40E143
:1048D00050E060E070E0C3010E94241D6AEF70E0C8
:1048E00080E090E00E945232AE01475A5F4F64EF81
:1048F00071E0C3010E94D1136CE271E080E090E0AE
:104900000E94523243E150E060E070E0C3010E9437
:10491000241D61E170E0C3010E948C1E40E150E063
:1049200060E070E0C3010E94241D6AEF70E080E047
:1049300090E00E945232AE014F5A5F4F64EF71E037
:10494000C3010E94D1136CE271E080E090E00E940C
:10495000523243E150E060E070E0C3010E94241D48
:1049600062E170E0C3010E948C1E40E150E060E013
:1049700070E0C3010E94241D6CE271E080E090E0D1
:104980000E945232C3010E94381664EF71E080E049
:1049900090E052C3AE01475B5F4F6CE271E0C30130
:1049A0000E94D11344E150E060E070E0C3010E9436
:1049B000241D6FE070E0C3010E948C1E2DC14DE0EC
:1049C00050E060E070E0C3010E94241D69E070E0E7
:1049D000C3010E948C1EEE24E394F12C0FE010E042
:1049E0002CED35E040E050E060E070E4C3010E944F
:1049F000441BC3010E9438166DE070E0C3010E94A1
:104A00008C1EDBC3AE014F5B5F4F6CE271E0C301F4
:104A10000E94D1134EE150E060E070E0C3010E94BB
:104A2000241DFEE1EF2EF12C04E610E020E030E042
:104A300040E050E06CE574E4C3010E94BF1D1F928A
:104A4000A4E05A2E5F92B7E08B2E912CA12CB12CB2
:104A50001CE5C12E1FE8D12E12E8E12E1FE3F12E36
:104A60000FE115ED22E934E440E050E06CE574E438
:104A7000C3010E94F21D1F92442443944F920AE006
:104A8000802E912CA12CB12C0CE51FEF23EC34E4EB
:104A90004FE155ED62E974E4C3010E94F21D1F92DB
:104AA0004F9200E010E02CE534E44CE55FEF63EC5E
:104AB00074E4C3010E94F21D6FE070E080E090E0BA
:104AC0000E9452321F925F9284E1882E912CA12C79
:104AD000B12C04EA10ED24E234E440E050E06CE54F
:104AE00074E4C3010E94F21D60E971E080E090E08F
:104AF0000E945232AE01475C5F4F68EC70E0C30128
:104B00000E94D1131F925F920FE115ED22E934E468
:104B100040E050E06CE574E4C3010E94F21DAE0178
:104B20004F5C5F4F68EC70E0C3010E94D1131F928D
:104B30005F9204EA10ED24E234E440E050E06CE5DA
:104B400074E4C3010E94F21DC3010E9438164BE0B9
:104B500050E060E070E0C3010E94241D0FB6F8949D
:104B6000DEBF0FBECDBFB2C34EE150E060E070E0EB
:104B7000C3010E94241D1F9264E0562E5F9274E1CF
:104B8000872E912CA12CB12CECE5CE2EEFE8DE2E59
:104B9000E2E8EE2EEFE3FE2E0FE115ED22E934E41C
:104BA00040E050E06CE574E4C3010E94F21D1F92E6
:104BB0005F9204EA10ED24E234E440E050E06CE55A
:104BC00074E4C3010E94F21D6CE271E080E090E0A9
:104BD0000E94523243E150E060E070E0C3010E9465
:104BE000241D0F900F900F900F9004E010E0AE0185
:104BF000475D5F4F64E670E0C3010E94D113C301BB
:104C00000E9438160150110991F74EE150E060E022
:104C100070E0C3010E94241D64EF71E080E090E029
:104C20000E945232C3010E943816C7C2EB961FAED3
:104C30001EAEEB9700E911E0EB962EAD3FADEB9782
:104C400042E050E060E070E0C3010E94A81D18013E
:104C500094E6290E311CB801882777FD8095982F9E
:104C60000E942A36C158DF4F688379838A839B83E9
:104C7000CF57D040B101882777FD8095982F0E94AB
:104C80002A368B019C011F92EAE0EF934AE0842EC2
:104C9000912CA12CB12C58EBC52E5EE1D52E55E8F8
:104CA000E52E5FE3F52EC158DF4F488159816A81B7
:104CB0007B81CF57D040C3010E94F21DEB968EAD91
:104CC0009FADEB970196EB969FAF8EAFEB970F9052
:104CD0000F9098EE291693E0390611F08101ACCFC0
:104CE000C3010E948F121F92EAE0EF9300E010E8E8
:104CF00029E834E4C158DF4F488159816A817B81BA
:104D0000CF57D040C3010E94F21D0F900F90412C4D
:104D1000512C920142E050E060E070E0C3010E943B
:104D2000A81DB1016C597F4F882777FD8095982F7A
:104D30000E942A36ED966CAF7DAF8EAF9FAFED9798
:104D4000B101882777FD8095982F0E942A36AB0104
:104D5000BC011F92FAE0FF932AE0822E912CA12C35
:104D6000B12C38EBC32E3EE1D32E35E8E32E3FE3E2
:104D7000F32EED960CAD1DAD2EAD3FADED97C301FD
:104D80000E94F21D84E6281A31089FEF491A590A39
:104D90000F900F90E0E92E16E1E03E0609F0B9CF42
:104DA000EF968EAD9FADEF970197EF969FAF8EAFC9
:104DB000EF97892B09F03ACF6CE271E080E090E048
:104DC0003BC1212C312C54EF452E55245394910195
:104DD00043E050E060E070E0C3010E94A81DB20112
:104DE0006C597F4F882777FD8095982F0E942A362F
:104DF000ED966CAF7DAF8EAF9FAFED97B201882778
:104E000077FD8095982F0E942A36AB01BC011F9236
:104E10009AE09F938AE0882E912CA12CB12C9CE5DE
:104E2000C92E9FE8D92E92E8E92E9FE3F92EED9640
:104E30000CAD1DAD2EAD3FADED97C3010E94F21D2F
:104E4000E5E64E0E511CFFEF2F1A3F0A0F900F9010
:104E500086EE481685E0580609F0B9CF212C312C92
:104E6000910143E050E060E070E0C3010E94A81DA2
:104E7000B2016C597F4F882777FD8095982F0E944B
:104E80002A36ED966CAF7DAF8EAF9FAFED97B20136
:104E9000882777FD8095982F0E942A36AB01BC01A8
:104EA0001F929AE09F931AE0812E912CA12CB12C95
:104EB0000CE5C02E0FE8D02E02E8E02E0FE3F02E16
:104EC000ED960CAD1DAD2EAD3FADED97C3010E942B
:104ED000F21DE5E64E0E511CFFEF2F1A3F0A0F9010
:104EE0000F9088ED481689E0580609F0B9CF212CBB
:104EF000312C910143E050E060E070E0C3010E947A
:104F0000A81DB20164567109882777FD8095982FF6
:104F10000E942A36ED966CAF7DAF8EAF9FAFED97B6
:104F2000B201882777FD8095982F0E942A36AB0121
:104F3000BC011F929AE09F93AAE08A2E912CA12C8B
:104F4000B12CBCE5CB2EBFE8DB2EB2E8EB2EBFE3E5
:104F5000FB2EED960CAD1DAD2EAD3FADED97C30113
:104F60000E94F21DE5E64E1A5108FFEF2F1A3F0A84
:104F70000F900F9086EE481685E0580609F0B9CFDD
:104F8000212C312C910143E050E060E070E0C3013E
:104F90000E94A81DB20164567109882777FD80958B
:104FA000982F0E942A36ED966CAF7DAF8EAF9FAFE3
:104FB000ED97B201882777FD8095982F0E942A36B9
:104FC000AB01BC011F929AE09F93EAE08E2E912CD8
:104FD000A12CB12CFCE5CF2EFFE8DF2EF2E8EF2E5E
:104FE000FFE3FF2EED960CAD1DAD2EAD3FADED9761
:104FF000C3010E94F21DE5E64E1A5108FFEF2F1A79
:105000003F0A0F900F9084EF481681E0580609F090
:10501000B9CFEF96EEADFFADEF973197EF96FFAFBB
:10502000EEAFEF97EF2B09F0CCCEC3010E948F12A9
:1050300064E670E080E090E00E945232BEC04FE033
:1050400050E060E070E0C3010E94241D90E4C92E8E
:1050500096E0D92E2AE5422E512CCE0101961C0154
:105060003AE5A32EB12C44EB842E912CF10188E07B
:1050700011928A95E9F7BA82A982BC82AB825E82DC
:105080004D82C4018419950998878F83A1016AE034
:1050900070E0C3010E94D113B601882777FD809587
:1050A000982F0E942A36AB01BC01EE24E394F12C28
:1050B0000FE010E020E030E0C3010E94BF1D9FEF31
:1050C000491A590AE4E1CE0ED11CF6E94F165104F3
:1050D00069F64EE050E060E070E0C3010E94241DDC
:1050E000A0EFAA2EAAE0BA2EB6E9CB2ED12C1AE553
:1050F000412E512C04EB802E912CF10188E011926D
:105100008A95E9F75A8249825C824B82DE82CD829F
:10511000C4018C199D0998878F83A1016AE070E012
:10512000C3010E94D113B501882777FD8095982F80
:105130000E942A36AB01BC01EE24E394F12C0FE06F
:1051400010E020E030E0C3010E94BF1D91E0C91AC9
:10515000D108E4E1AE0EB11CFAE5CF16D10469F630
:105160004BE050E060E070E0C3010E94241D04E1C8
:1051700010E024EF31E040E050E060E87FE3C3015D
:105180000E94B2196CE070E0C3010E948C1E4CE0DA
:1051900050E060E070E0C3010E94241D24EF31E084
:1051A00040E050E060E87FE3C3010E94B219C30110
:1051B0000E943816C3010E948F124BE050E060E05D
:1051C00070E0C3010E94241D81C047E150E060E00F
:1051D00070E0C3010E94241DAE014F5D5F4F6CE281
:1051E00071E0C3010E94D113EE24E394F12C08EC8A
:1051F00010E020E030E040E050E061E674E4C301FC
:105200000E94BF1D48E150E060E070E0C3010E94D1
:10521000241DAE01475E5F4F6CE271E0C3010E9446
:10522000D11308EC10E020E030E040E050E066E10F
:1052300074E4C3010E94BF1D44E150E060E070E0EF
:10524000C3010E94241DAE014F5E5F4F6CE271E00E
:10525000C3010E94D11308EC10E020E030E040E0F0
:1052600050E066E973E4C3010E94BF1DAE01475FD1
:105270005F4F6CE271E0C3010E94D1134AE150E03C
:1052800060E070E0C3010E94241DC3010E948913E5
:1052900008E918E020E030E040E050E066E173E427
:1052A000C3010E94BF1D68E572E080E090E00E94AB
:1052B0005232C3010E948F124BE050E060E070E078
:1052C000C3010E94241DC3010E943816CE57DF4F30
:1052D0000FB6F894DEBF0FBECDBFDF91CF911F9107
:1052E0000F91FF90EF90DF90CF90BF90AF909F9085
:1052F0008F907F906F905F904F903F902F90089588
:1053000021E030E0FC01E20FF31F10822F5F3F4FDE
:1053100024323105B9F7FC0115A214A2089520E248
:1053200030E0FC0137A326A32DE020A716A615A682
:105330000C948029AC01455D5F4FBC016A5D7F4FD5
:1053400080E090E00C94153AFF920F931F93CF9357
:10535000DF93EC018A012DA53EA52E30310504F521
:1053600085E2F82EF29EC001F39E900D11248F96D7
:1053700043E250E08C0F9D1F0E94063A2DA53EA5EA
:10538000F29EC001F39E900D11248C0F9D1FFC0115
:10539000EE5AFF4F118300832F5F3F4F3EA72DA78B
:1053A000DF91CF911F910F91FF9008958B5C9D4FDE
:1053B000FC017183608308952F923F924F925F9218
:1053C0006F927F928F929F92AF92BF92CF92DF9215
:1053D000EF92FF920F931F93CF93DF9300D000D0F3
:1053E000CDB7DEB79C838B8311E05C012BE2A20E6C
:1053F000B11C1C0136E2230E311C2C018FEF481A20
:10540000580ACB80DC809FE2C90ED11C2B813C81E5
:105410002B5C3D4F3A83298387E697E00E94A22ABE
:10542000181619060CF077C0112309F474C087E62A
:1054300097E00E94BB2AEB81FC81808390A58913B1
:1054400044C0AB81BC8195961C921E929497A50195
:10545000B101C2010E94153A3C01EB81FC8192A787
:1054600081A7009709F457C085A496A4760100E0AF
:1054700010E008151905FCF443E250E0B701C30140
:105480000E94F839F5E2EF0EF11C892B89F425E230
:10549000209FC001219F900D11242B813C81820F00
:1054A000931FFC01EE5AFF4F0190F081E02D07C0E1
:1054B0000F5F1F4FDECFA981BA81ED91FC91099555
:1054C0008B819C810E94802910E0AB81BC810C9172
:1054D000802F992787FD90950E94EA39892B09F43E
:1054E0009BCFEB81FC8124A135A1C901019695A335
:1054F00084A3E20FF31F0183EB81FC81E80FF91F06
:10550000118283970CF488CFAB81BC8195961C9255
:105510001E92949781CF0F900F900F900F90DF9174
:10552000CF911F910F91FF90EF90DF90CF90BF90A0
:10553000AF909F908F907F906F905F904F903F9033
:105540002F900895FC01818D228D90E0805C9F4F0B
:10555000821B91098F7399270895FC01918D828D8B
:10556000981731F0828DE80FF11D858D90E0089538
:105570008FEF9FEF0895FC01918D828D981761F058
:10558000828DDF01A80FB11D5D968C91928D9F5F7A
:105590009F73928F90E008958FEF9FEF08958FE3B0
:1055A0009CE2892B49F080E090E0892B29F00E9451
:1055B0003F2C81110C9400000895FC01848DDF01C3
:1055C000A80FB11DA35ABF4F2C91848D90E0019676
:1055D0008F739927848FA689B7892C93A089B18965
:1055E0008C9180648C93938D848D981306C002886F
:1055F000F389E02D80818F7D80830895CF93DF93A1
:10560000EC01888D8823C9F0EA89FB89808185FDBA
:1056100005C0A889B9898C9186FD0FC00FB607FC1B
:10562000F5CF808185FFF2CFA889B9898C9185FF5C
:10563000EDCFCE010E94DD2AE7CFDF91CF91089513
:10564000CF92DF92FF920F931F93CF93DF931F921E
:10565000CDB7DEB76C0181E0D60158968C93589790
:105660005B969C915B975C968C915C97981307C0B6
:105670005096ED91FC915197808185FD2EC0F601E9
:10568000038D10E00F5F1F4F0F731127F02EF601EF
:10569000848DF81211C00FB607FCF9CFD6015096D1
:1056A000ED91FC915197808185FFF1CFC60169830F
:1056B0000E94DD2A6981EBCF838DE80FF11DE35A4B
:1056C000FF4F6083D6015B960C935B975296ED91EA
:1056D000FC915397808180620CC0D6015696ED9163
:1056E000FC91579760835096ED91FC915197808182
:1056F0008064808381E090E00F90DF91CF911F91D3
:105700000F91FF90DF90CF900895BF92CF92DF92DC
:10571000EF92FF92CF93DF93EC016A017B01B22EEF
:10572000E889F98982E08083411581EE5807610597
:105730007105A1F060E079E08DE390E0A7019601AA
:105740000E94F83721503109410951095695479572
:1057500037952795211580E1380798F0E889F98970
:10576000108260E874E88EE190E0A70196010E9443
:10577000F837215031094109510956954795379518
:105780002795EC85FD853083EE85FF852083188E77
:10579000EC89FD89B082EA89FB8980818061808300
:1057A000EA89FB89808188608083EA89FB8980811E
:1057B00080688083EA89FB8980818F7D8083DF9187
:1057C000CF91FF90EF90DF90CF90BF9008951F9200
:1057D0000F920FB60F9211242F938F939F93EF93F5
:1057E000FF93E0917707F09178078081E0917D0742
:1057F000F0917E0782FD12C09081809180078F5FBB
:105800008F7320918107821751F0E0918007F0E0BB
:10581000E959F84F958F8093800701C08081FF91EF
:10582000EF919F918F912F910F900FBE0F901F902E
:1058300018951F920F920FB60F9211242F933F933A
:105840004F935F936F937F938F939F93AF93BF9388
:10585000EF93FF9387E697E00E94DD2AFF91EF9197
:10586000BF91AF919F918F917F916F915F914F9178
:105870003F912F910F900FBE0F901F90189587E6C4
:1058800097E00E94A22A21E0892B09F420E0822FD0
:10589000089510926A071092690788EE93E0A0E0DD
:1058A000B0E080936B0790936C07A0936D07B09363
:1058B0006E0780E893E0909368078093670785EC14
:1058C00090E0909374078093730784EC90E090933A
:1058D00076078093750780EC90E09093780780932B
:1058E000770781EC90E090937A078093790782ECB8
:1058F00090E090937C0780937B0786EC90E09093F8
:105900007E0780937D071092800710928107109286
:105910008207109283070895CF92DF92EF92FF9251
:105920000F931F93CF93DF937C016A01EB0100E09B
:1059300010E00C151D0571F06991D701ED91FC91F6
:105940000190F081E02DC7010995892B19F00F5FB7
:105950001F4FEFCFC801DF91CF911F910F91FF90A3
:10596000EF90DF90CF9008956115710581F0DB0114
:105970000D900020E9F7AD0141505109461B570B2E
:10598000DC01ED91FC910280F381E02D099480E02F
:1059900090E00895EF92FF920F931F93CF93DF93C0
:1059A0008C017B01C0E0D0E0F701EC0FFD1F64919A
:1059B000662359F0F801A081B181ED91FC91C801F5
:1059C0000995892B11F02196EFCFCE01DF91CF9170
:1059D0001F910F91FF90EF9008950C94B42CDC016F
:1059E000ED91FC910190F081E02D09946CE873E059
:1059F0000C94B42C0F931F93CF93DF93EC010E9470
:105A0000CA2C8C01CE010E94F62C800F911FDF91D1
:105A1000CF911F910F9108958F929F92AF92BF9255
:105A2000DF92EF92FF920F931F93CF93DF93CDB747
:105A3000DEB7A1970FB6F894DEBF0FBECDBF7C01D5
:105A4000F42FD52ECB0119A2223008F42AE08E01C2
:105A50000F5D1F4F822E912CA12CB12C6F2F7D2D0D
:105A6000A50194010E94F837F22FD32ECA010150EC
:105A700011096A3014F4E0E301C0E7E3E60FD8014E
:105A8000EC93232B242B252B49F7B801C7010E9447
:105A9000B42CA1960FB6F894DEBF0FBECDBFDF9138
:105AA000CF911F910F91FF90EF90DF90BF90AF903B
:105AB0009F908F900895CF92DF92EF92FF920F9375
:105AC0001F93CF93DF93EC016A017B012115310510
:105AD00079F4E881F9810190F081E02D642FDF9164
