:100000000C94F0000C940B030C9432030C945903E1
:100010000C94BC030C941F040C9418010C949130A4
:100020000C9418010C9418010C9418010C94BB0F3B
:100030000C9418010C9418010C9418010C941801DC
:100040000C948C310C9418010C949A2B0C94CC2B9E
:100050000C9418010C9418010C9418010C941801BC
:100060000C9418010C941801320B370B3E0B4D0BFE
:10007000540B630B740B800B940BA50BB10BC50BCE
:10008000D20BDE0BF20B030C0A0C170C1E0C2B0C04
:100090003C0CB30EB60EB90EBC0EBF0EC20EC50E92
:1000A000C80ECB0ECE0ED10ED40ED70E0B0F0E0FE8
:1000B000110F140F170F1A0F1D0F200F230F260FEC
:1000C000290F2C0F2F0F320F350F380F3B0F3E0F1C
:1000D000410F561E7D1EA71EE01EF91E121F381F5F
:1000E0006C1FA51FDE1F12203F2069209A20CA2006
:1000F000E32035214E216C215E228622C12253232A
:1001000000247D249224B524672557225022D2272B
:10011000982805A84CCDB2D44EB93836A9020C5057
:10012000B9918688083CA6AAAA2ABE000000803F92
:10013000252500460026260025250041002626000C
:1001400025250049200026260025250042200026DE
:1001500026002525004E20002626002525004420C7
:100160000026260025250045200026260000010245
:10017000030405060700010203040500010203044D
:10018000050200000008000201000003040700004F
:10019000000000000000010204081020408001025D
:1001A00004081020010204081020040404040404BC
:1001B0000404020202020202030303030303000019
:1001C0000000230026002900000000002500280070
:1001D0002B0000000000240027002A003D06FC2B15
:1001E00011241FBECFEFD8E0DEBFCDBF13E0A0E0EB
:1001F000B1E0E8EEF3E702C005900D92AE38B1072A
:10020000D9F727E0AEE8B3E001C01D92A43DB207E4
:10021000E1F711E0C0EED1E004C02297FE010E9498
:10022000C837CC3DD107C9F70E947D310C94F23913
:100230000C940000CF92DF92EF92FF920F931F93E6
:10024000E82FF92F05C0015011092109310961F189
:10025000908196239417B9F305C001501109210923
:10026000310911F1908196239413F7CFC12CD12C31
:10027000E12CF12C0AC08FEFC81AD80AE80AF80A54
:100280000C151D052E053F0579F080818623841706
:1002900091F36C2D7D2D8E2D9F2D1F910F91FF9031
:1002A000EF90DF90CF90089560E070E080E090E004
:1002B0001F910F91FF90EF90DF90CF90089581E014
:1002C000809396039091970391110BC080939703AD
:1002D00021E04FE050E060E070E08CE993E00C94A6
:1002E0006B1D089581E08093950390919703911180
:1002F0000BC08093970321E04FE050E060E070E096
:100300008CE993E00C946B1D0895EF92FF920F938C
:100310001F93CF93DF931F92CDB7DEB77C01FC0113
:1003200000811181C80169830E94D13969816817F0
:1003300019F0C8010E94D939C7010F90DF91CF9100
:100340001F910F91FF90EF9008950F931F93CF93FC
:10035000DF9300D0CDB7DEB78B01FB0160819A83BC
:100360008983CE0101960E948501C8010F900F90EC
:10037000DF91CF911F910F910895A82FAF7787FD3F
:1003800005C08EEF8A0F823008F499C0B0E0FD01FD
:10039000EA56FE4F2491FD01E655FE4F8491942FBD
:1003A0009D7F9130B9F4823031F49091DE06922B2A
:1003B0009093DE060FC0833031F49091CF06922BDC
:1003C0009093CF0607C0843029F49091BC06922BFD
:1003D0009093BC0641504230B8F4823031F4909191
:1003E000DD06922B9093DD060FC0833031F490919F
:1003F000CE06922B9093CE0607C0843029F49091BC
:10040000BB06922B9093BB06FD01E359FE4FA491CE
:100410008230C1F4B0E0AA0FBB1FA152B94F6D9357
:100420007C93E2ECF1E0A591B4918C918093DC0691
:100430008BE690E09093F0068093EF068091680041
:10044000816033C08330C1F4B0E0AA0FBB1FA0535A
:10045000B94F6D937C93E4ECF1E0A591B4918C914C
:100460008093CD068CE690E09093F0068093EF06A3
:1004700080916800826019C08430C9F4B0E0AA0F8E
:10048000BB1FA354B94F6D937C93E6ECF1E0A591AB
:10049000B4918C918093BA068DE690E09093F0062B
:1004A0008093EF0680916800846080936800A0913B
:1004B000EF06B091F0068C91822B8C9316C09FB7FB
:1004C000F894A230B1F47093EC066093EB06E898D0
:1004D000809169008C7F8093690080916900842BF2
:1004E00080936900E09AE89A9FBF8FB780688FBFBA
:1004F00008957093EE066093ED06E9988091690087
:10050000837F809369008091690024E0429FA0016D
:100510001124842B80936900E19AE99AE5CF3FB7D3
:10052000F894982F9F7787FD05C08EEF890F823052
:1005300008F45EC0892F90E0FC01EA56FE4F24913A
:10054000FC01E655FE4F84918230D1F480916B001E
:100550002095822380936B0080916B00811105C0F0
:10056000809168008E7F809368008091DE068223F0
:100570008093DE068091DD0682238093DD0641C0F4
:100580008330D1F480916C002095822380936C009D
:1005900080916C00811105C0809168008D7F8093EF
:1005A00068008091CF0682238093CF068091CE068B
:1005B00082238093CE0625C0843019F580916D008A
:1005C0002095822380936D0080916D00811105C07C
:1005D000809168008B7F809368008091BC068223A5
:1005E0008093BC068091BB0682238093BB0609C022
:1005F000923049F4E898809169008C7F809369007B
:10060000E09A3FBF0895E99880916900837F8093C5
:100610006900E19AF6CF1F920F920FB60F92112444
:100620002F933F934F935F936F937F938F939F93FA
:10063000AF93BF93EF93FF93E091EB06F091EC063D
:100640000995FF91EF91BF91AF919F918F917F910C
:100650006F915F914F913F912F910F900FBE0F902F
:100660001F9018951F920F920FB60F9211242F937F
:100670003F934F935F936F937F938F939F93AF932A
:10068000BF93EF93FF93E091ED06F091EE0609958D
:10069000FF91EF91BF91AF919F918F917F916F915A
:1006A0005F914F913F912F910F900FBE0F901F9030
:1006B00018951F920F920FB60F9211242F933F930C
:1006C0004F935F936F937F938F939F93AF93BF935A
:1006D000CF93EF93FF9393B1C091DC062091DE0698
:1006E0003091DD06892F809583232923822B209149
:1006F0006B00C927C223C8239093DC06CC2351F199
:10070000C0FF05C0E091DF06F091E0060995C1FF4A
:1007100005C0E091E106F091E2060995C2FF05C02F
:10072000E091E306F091E4060995C3FF05C0E0916E
:10073000E506F091E6060995C4FF05C0E091E706DD
:10074000F091E8060995C5FF05C0E091E906F09132
:10075000EA060995FF91EF91CF91BF91AF919F91DB
:100760008F917F916F915F914F913F912F910F905A
:100770000FBE0F901F9018951F920F920FB60F92F9
:1007800011242F933F934F935F936F937F938F9396
:100790009F93AF93BF93CF93EF93FF9396B1C09185
:1007A000CD062091CF063091CE06892F80958323E8
:1007B0002923822B20916C00C927C223C823909340
:1007C000CD06CC2351F1C0FF05C0E091D006F091D9
:1007D000D1060995C1FF05C0E091D206F091D3067C
:1007E0000995C2FF05C0E091D406F091D5060995A0
:1007F000C3FF05C0E091D606F091D7060995C4FF66
:1008000005C0E091D806F091D9060995C5FF05C04D
:10081000E091DA06F091DB060995FF91EF91CF9117
:10082000BF91AF919F918F917F916F915F914F9108
:100830003F912F910F900FBE0F901F9018951F9210
:100840000F920FB60F9211242F933F934F935F9304
:100850006F937F938F939F93AF93BF93CF93EF93B8
:10086000FF9399B1C091BA062091BC063091BB06A6
:10087000892F809583232923822B20916D00C927FE
:10088000C223C8239093BA06CC23C1F1C0FF05C090
:10089000E091BD06F091BE060995C1FF05C0E0914B
:1008A000BF06F091C0060995C2FF05C0E091C106E0
:1008B000F091C2060995C3FF05C0E091C306F0910F
:1008C000C4060995C4FF05C0E091C506F091C606AF
:1008D0000995C5FF05C0E091C706F091C8060995C6
:1008E000C6FF05C0E091C906F091CA060995C7FF89
:1008F00005C0E091CB06F091CC060995FF91EF91F0
:10090000CF91BF91AF919F918F917F916F915F91A7
:100910004F913F912F910F900FBE0F901F90189500
:100920008CE993E00E94461C0E9484356F3071056B
:1009300024F481E080938E03089510928E0308952D
:100940008F929F92AF92BF92CF92DF92EF92FF92DF
:100950000F931F93CF938CE993E00E94731C20E0C8
:1009600030E044E352E40E94183587FF54C0C3E0EE
:100970008091970381114FC021E04CE150E060E08D
:1009800070E08CE993E00E946B1D1F92CF9348E0CA
:10099000842E912CA12CB12C58EBC52E5EE1D52EC6
:1009A00055E8E52E5FE3F52E00E010E02AEF34E491
:1009B00040E050E06CE574E48CE993E00E94A51DF2
:1009C0006EE170E080E090E00E9405321F92CF93CC
:1009D0006CE5C62E6FE8D62E62E8E62E6FE3F62EA3
:1009E00000E010E02CE534E440E050E06AEF74E40D
:1009F0008CE993E00E94A51D8CE993E00E94701D94
:100A000064EF71E080E090E00E9405320F900F905B
:100A10000F900F90ADCFCF911F910F91FF90EF905E
:100A2000DF90CF90BF90AF909F908F9008954F929E
:100A30005F926F927F928F929F92AF92BF92CF926E
:100A4000DF92EF92FF920F931F93CF93DF93CDB777
:100A5000DEB728970FB6F894DEBF0FBECDBF88E093
:100A6000EAE0F1E0DE01119601900D928A95E1F73E
:100A700080919703811109C0AE014F5F5F4F6CEB0E
:100A800072E08CE993E00E94D013F4E06F2E712C99
:100A9000AAE05A2E44244394809197038823A1F01E
:100AA000809197038111C1C021E043E150E060E0F3
:100AB00070E08CE993E00E946B1D69E070E08CE9C6
:100AC00093E00E943F1EB1C020E030E041E050E0E2
:100AD00060E070E08CE993E00E945B1D1F925F92E2
:100AE0007AE0872E912CA12CB12CE8EBCE2EEEE1F2
:100AF000DE2EE5E8EE2EEFE3FE2E00E010E028E427
:100B000033E440E050E068EC72E48CE993E00E944A
:100B1000A51D809197030F900F908111C1CF21E007
:100B200030E041E050E060E070E08CE993E00E944A
:100B30005B1D1F925F9200E010E026E933E440E085
:100B400050E068E473E48CE993E00E94A51D809175
:100B500097030F900F908111A3CF22E030E041E086
:100B600050E060E070E08CE993E00E945B1D1F9212
:100B70005F9200E010E02AEF33E440E050E066E9E5
:100B800073E48CE993E00E94A51D64EF71E080E0BE
:100B900090E00E940532809197030F900F90811191
:100BA0007FCF21E030E041E050E060E070E08CE990
:100BB00093E00E945B1D1F924F9200E010E02AE735
:100BC00033E440E050E068EC73E48CE993E00E9489
:100BD000A51D809197030F900F90811161CF20E0A8
:100BE00030E041E050E060E070E08CE993E00E948A
:100BF0005B1D1F924F9200E010E028EC32E440E0D1
:100C000050E06AE773E48CE993E00E94A51D64EF6D
:100C100071E080E090E00E94053281E0681A71087E
:100C20000F900F9009F038CF3BCF8CE993E00E94F2
:100C3000391680919703811109C021E04BE050E003
:100C400060E070E08CE993E00E946B1D28960FB67F
:100C5000F894DEBF0FBECDBFDF91CF911F910F91F2
:100C6000FF90EF90DF90CF90BF90AF909F908F90CC
:100C70007F906F905F904F900895CF93DF9381E8BE
:100C800094E00E9442292CE04DE06BE08CE993E077
:100C90000E94611283EA93E00E94CC11C4EAD3E07F
:100CA000CE010E947710188A1F86A99684E0C83466
:100CB000D807B1F788E494E0DF91CF910C949612B5
:100CC000CF92DF92EF92FF920F931F93CF93DF9318
:100CD000CDB7DEB72B970FB6F894DEBF0FBECDBFF2
:100CE0008CE993E00E94391619821A821B821C82B9
:100CF000FE01359687E0DF011D928A95E9F78E01A6
:100D00000F5F1F4FB5E0EB2EF12C6801C7010E9469
:100D1000D139F80181938F01FFEFEF1AFF0A80E1CB
:100D2000E816F10499F76AE671E087E197E00E941E
:100D30007D2C67E671E087E197E00E947D2CB6018B
:100D400087E197E00E94A02C64E671E087E197E0DC
:100D50000E94AD2C87E197E00E94B12A2B960FB636
:100D6000F894DEBF0FBECDBFDF91CF911F910F91E1
:100D7000FF90EF90DF90CF900895CF92DF92EF92A7
:100D8000FF928CE993E00E9439168CE993E00E946F
:100D9000461C6B017C0161E671E087E197E00E94EF
:100DA0007D2C6EE571E087E197E00E947D2CC70104
:100DB000B6010E9484354AE050E087E197E00E9446
:100DC000582D6BE571E087E197E00E94AD2C87E13B
:100DD00097E0FF90EF90DF90CF900C94B12ACF93E3
:100DE000DF938CE993E00E9439168CE993E00E942E
:100DF0004A1CEC0168E571E087E197E00E947D2CD8
:100E000065E571E087E197E00E947D2C4AE050E0C3
:100E1000BE0187E197E00E94582D62E571E087E10D
:100E200097E00E94AD2C87E197E0DF91CF910C9481
:100E3000B12ACF92DF92EF92FF928CE993E00E9469
:100E400039168CE993E00E94731C6B017C016FE4FE
:100E500071E087E197E00E947D2C6CE471E087E10E
:100E600097E00E947D2C22E030E0B701A60187E1E7
:100E700097E00E944B2E69E471E087E197E00E94C1
:100E8000AD2C87E197E0FF90EF90DF90CF900C942E
:100E9000B12A8CE993E00E94391666E471E087E19B
:100EA00097E00E947D2C63E471E087E197E00E9467
:100EB0007D2C6FE573E087E197E00E94A02C60E451
:100EC00071E087E197E00E94AD2C87E197E00C94F8
:100ED000B12A8F929F92AF92BF92CF92DF92EF9200
:100EE000FF920F931F93CF93DF931F92CDB7DEB77F
:100EF00026E040E052EC61E070E087E197E00E947C
:100F0000382B60E086E00E94CB3260E087E00E94F0
:100F1000CB321F9289E08F9308E0802E912C8AE0DB
:100F2000A82EB12C94E1C92ED12CEE24E39405E037
:100F300010E024E030E043E050E062E070E08CE953
:100F400093E00E940D1384E10E948532BC01882742
:100F500077FD8095982F0E94ED3043E06FE571E0BA
:100F600086E00E94BD0143E062E771E087E00E94F5
:100F7000BD0143EA59E062E473E081E894E00E9435
:100F800057294BEA59E064E473E081E894E00E9459
:100F9000572945EE59E066E473E081E894E00E9449
:100FA000572947E359E068E473E081E894E00E9440
:100FB000572947E85EE06AE473E081E894E00E9424
:100FC00057294FED5EE06CE473E081E894E00E9405
:100FD000572942E45AE06EE473E081E894E00E940D
:100FE000572946EA5AE060E573E081E894E00E9400
:100FF000572949E45FE062E573E081E894E00E94EC
:10100000572940E656E064E573E081E894E00E94E9
:1010100057294DEB56E066E573E081E894E00E94C5
:1010200057294FEE56E068E573E081E894E00E94AE
:10103000572949E157E06AE573E081E894E00E94AE
:10104000572949E457E06CE573E081E894E00E9499
:10105000572963EA79E081E894E00E94892960E0F9
:1010600070E08CE993E00E943F1E8CE993E00E94BF
:10107000391685E090E00E94D1390F900F908432AC
:10108000F1F46EE573E085E090E00E94A50119821D
:10109000BE016F5F7F4F86E090E00E94A50121E0D6
:1010A0004DE150E060E070E08CE993E00E946B1D40
:1010B00068EE73E080E090E00E940532F9CF0E9474
:1010C000600662E370E080E090E00E9405320E94DA
:1010D000490762E370E080E090E00E9405320E94E0
:1010E00019070E94A00412E0E12EF12C00E010E0AC
:1010F00080919703882329F081E0E81AF108A9F08C
:10110000F5CF980140E050E0BA018CE993E00E94ED
:101110005B1D66E970E080E090E00E9405320F5FA1
:101120001F4F0830110521F7E7CF809197038111F8
:1011300015C021E04AE050E060E070E08CE993E007
:101140000E946B1D6BE070E08CE993E00E943F1EF3
:1011500068EC70E080E090E00E94053285E090E06D
:101160000E94D139833209F041C0809197038111E7
:1011700010C02CEB32E040E050E060E87FE38CE907
:1011800093E00E947E1668EC70E080E090E00E94A0
:1011900005328091970381110CC040910601509156
:1011A000070121E030E061E070E08CE993E00E940B
:1011B0000F1880919703811119C021E04FE050E092
:1011C00060E070E08CE993E00E946B1D04E110E0A8
:1011D00020E233E040E050E060E070E48CE993E02E
:1011E0000E9414198CE993E00E94391680919703AC
:1011F000811109C021E04BE050E060E070E08CE933
:1012000093E00E946B1D0E94D6316093910370930E
:10121000920380939303909394030F90DF91CF9167
:101220001F910F91FF90EF90DF90CF90BF90AF9004
:101230009F908F9008956EE170E080E090E00E94B2
:1012400005326DE371E087E197E00E947D2C6BE34E
:1012500071E087E197E00E947D2C68E371E087E10F
:1012600097E00E94AD2C87E197E00C94B12A0E9490
:101270001B098CE993E00E947416882329F060E032
:101280008CE993E00E94791681E894E00E944D2950
:10129000009739F00E94573990939B0380939A03EB
:1012A00017C021E04AE150E060E070E08CE993E093
:1012B0000E946B1D60ED77E080E090E00E940532B7
:1012C0008CE993E00E94701D10929B0310929A0388
:1012D00081E894E00E944D29009719F00E94573947
:1012E00002C088EE93E0909307018093060181E8A5
:1012F00094E00E944D29009719F00E94573902C0CE
:101300008FE090E0909305018093040108956EE1D1
:1013100070E080E090E00E94053265E371E087E1D3
:1013200097E00E947D2C63E371E087E197E00E94E3
:101330007D2C60E371E087E197E00E94AD2C87E1AE
:1013400097E00C94B12A0E941B098CE993E00E945B
:1013500039160C948709CF93DF9300D0CDB7DEB751
:101360000E941B098CE993E00E94391681E894E001
:101370000E944D29009779F042E050E0BE016F5F76
:101380007F4F0E944338AB01BC0120E08CE993E021
:101390000E946B1D13C021E04AE150E060E070E064
:1013A0008CE993E00E946B1D60ED77E080E090E0B7
:1013B0000E9405328CE993E00E94701D0E9487090B
:1013C0000F900F90DF91CF9108958F929F92AF92DF
:1013D000BF92EF92FF920F931F93CF93DF930E94E0
:1013E0001B098CE993E00E94391681E894E00E9481
:1013F0004D29009729F00E945739EC0110E001C0F7
:1014000011E081E894E00E944D29009721F00E94AC
:1014100057391123A1F021E04AE150E060E070E08B
:101420008CE993E00E946B1D60ED77E080E090E036
:101430000E9405328CE993E00E94701D17C04C0198
:10144000AA2497FCA094BA2CBE01882777FD80952A
:10145000982F0E94B735AB01BC01EE24E394F12C28
:10146000950184018CE993E00E94721DDF91CF9178
:101470001F910F91FF90EF90BF90AF909F908F9032
:101480000C948709CF92DF92EF92FF920F931F93F4
:10149000CF93DF930E941B098CE993E00E943916D9
:1014A00081E894E00E944D29009729F00E94573965
:1014B000EC0110E001C011E081E894E00E944D29A8
:1014C000009721F00E9457397C0101C011E081E8AA
:1014D00094E00E944D29009721F00E9457396C0139
:1014E00001C011E081E894E00E944D29009721F0AD
:1014F0000E9457391123A1F021E04AE150E060E059
:1015000070E08CE993E00E946B1D60ED77E080E075
:1015100090E00E9405328CE993E00E94701D0CC09F
:101520008C019601A701BE018CE993E00E949F13F4
:101530008CE993E00E94B113DF91CF911F910F913D
:10154000FF90EF90DF90CF900C948709BF92CF92DD
:10155000DF92EF92FF920F931F93CF93DF93CDB75C
:10156000DEB728970FB6F894DEBF0FBECDBF0E943E
:101570001B098EE190E090939B0380939A0381E88E
:1015800094E00E944D29009729F00E9457396C0180
:10159000B12C02C0BB24B39481E894E00E944D2991
:1015A000009721F00E9457397C0102C0BB24B394FC
:1015B00081E894E00E944D29009721F00E9457395C
:1015C0008C0102C0BB24B39481E894E00E944D29B1
:1015D000009721F00E945739BB20A1F021E04AE199
:1015E00050E060E070E08CE993E00E946B1D60EDDC
:1015F00077E080E090E00E9405328CE993E00E9461
:10160000701D11C0DA82C982FC82EB821E830D83B9
:1016100098878F83AE014F5F5F4F68EC70E08CE975
:1016200093E00E94D0130E94870928960FB6F89481
:10163000DEBF0FBECDBFDF91CF911F910F91FF9005
:10164000EF90DF90CF90BF900895EF92FF920F93AD
:101650001F938531910508F025C1FC01EC5CFF4F1B
:101660000C94C6378CE993E00E94391615C120917D
:1016700006013091070101E010E006C0209106014B
:10168000309107010FEF1FEF40E050E060E87FE38B
:101690008CE993E00E94BB16FFC0209106013091B7
:1016A000070101E010E006C020910601309107011A
:1016B0000FEF1FEF40E050E060E87FE38CE993E03C
:1016C0000E942B17E9C0009104011091050120919F
:1016D00006013091070140E050E060E87FE38CE9CB
:1016E00093E00E94CA18D8C000910401109105012E
:1016F0002091060130910701EE24E394F12C0BC0F8
:10170000009104011091050120910601309107011B
:10171000EE24EA94FE2C40E050E060E87FE38CE9A0
:1017200093E00E94451AB8C0009104011091050190
:10173000209106013091070140E050E060E87FE32E
:101740008CE993E00E941419A7C000910401109144
:1017500005012091060130910701EE24E394F12C5C
:101760000BC00091040110910501209106013091F8
:101770000701EE24EA94FE2C40E050E060E87FE3AD
:101780008CE993E00E94F71A87C0209106013091FE
:10179000070140E050E060E87FE38CE993E00E94BD
:1017A0007E167AC000910401109105012091060176
:1017B00030910701EE24E394F12C0BC00091040159
:1017C000109105012091060130910701EE24EA9461
:1017D000FE2C40E050E060E87FE38CE993E00E945B
:1017E000981B5AC000910401109105012091060137
:1017F0003091070140E050E060E87FE38CE993E03E
:101800000E94651949C0409106015091070121E0ED
:1018100030E006C040910601509107012FEF3FEFE5
:1018200061E070E08CE993E00E94871735C0409139
:1018300006015091070121E030E006C04091060109
:10184000509107012FEF3FEF61E070E08CE993E0EA
:101850000E940F1821C000910401109105012091F0
:1018600006013091070140E050E060E87FE38CE939
:1018700093E00E94AB1910C0009104011091050182
:10188000209106013091070140E050E060E87FE3DD
:101890008CE993E00E94F3191F910F91FF90EF9054
:1018A0000C9487091F910F91FF90EF9008950F936B
:1018B0001F93CF93DF9387E197E00E94552A181674
:1018C00019063CF48091980390919903049709F0CC
:1018D000A2C180919703882341F18CE993E00E9493
:1018E000391664E670E080E090E00E94053262E024
:1018F00070E08CE993E00E943F1E68EC70E080E0AD
:1019000090E00E94053280919603882309F49BC1E0
:1019100080919503811197C181E090E090939903A4
:101920008093980363E070E0D6C180919803909112
:10193000990382309105E1F194F40097C1F0019789
:1019400009F062C101E010E028EE33E040E050E031
:1019500060E87FE38CE993E00E94BB16D3C183303B
:10196000910509F4DBC0049709F43AC14DC10E9406
:10197000D6310091910310919203209193033091FD
:101980009403601B710B820B930B6038784381408A
:10199000910508F4B7C10E9417050E94D6316093E3
:1019A0009103709392038093930390939403AAC13D
:1019B00080918E03882309F49FC080919703811141
:1019C00019C021E04EE050E060E070E08CE993E067
:1019D0000E946B1D66E070E08CE993E00E943F1E60
:1019E00024EF31E040E050E060EA70E48CE993E0FD
:1019F0000E947E168091970381110FC021E044E17F
:101A000050E060E070E08CE993E00E946B1D69E0BB
:101A100070E08CE993E00E943F1EC3E0D0E080912B
:101A20009703882399F064E670E080E090E00E94DC
:101A300005320E94900464E670E080E090E00E942D
:101A4000053280918E0381115DC10FC00FEF1FEF32
:101A500024E135E040E050E060E87FE38CE993E08A
:101A60000E94BB162197D9F6DECF80919703811192
:101A700049C121E04AE050E060E070E08CE993E089
:101A80000E946B1D62E370E080E090E00E940532EE
:101A90000E949004C3E0D0E080918E03882329F057
:101AA00080918E0381112EC106C0809197038823F7
:101AB00009F416C1F5CF80919703811123C18CE9F8
:101AC00093E00E94391621E04BE050E060E070E0C6
:101AD0008CE993E00E946B1D6DE070E08CE993E06F
:101AE0000E943F1E68EC70E080E090E0DF91CF91B3
:101AF0001F910F910C94053201E010E028EE33E0C5
:101B000040E050E060E87FE38CE993E00E94BB1680
:101B1000DF91CF911F910F910C9490048CE993E089
:101B20000E944A1C8A3892400CF4ECC062E370E0D8
:101B300080E090E00E9405328091970381113FC0C0
:101B400021E04EE050E060E070E08CE993E00E941C
:101B50006B1D67E070E08CE993E00E943F1E80916E
:101B600097038111CFC025E130E040E050E06AE00A
:101B700070E080E090E00E941931AB01BC0121E0EF
:101B80008CE993E00E946B1D25E130E040E050E0DD
:101B900065E070E080E090E00E941931709390035E
:101BA00060938F03CB010E94250B8CE993E00E9488
:101BB000391664EF71E080E090E00E940532809178
:101BC000970381119FC021E04BE050E060E070E09E
:101BD0008CE993E0DF91CF911F910F910C946B1DD5
:101BE00081E894E00E948F298CE993E00E947416AA
:101BF000811188C080919A0390919B03DF91CF91CE
:101C00001F910F910C94250B84E090E09093990321
:101C10008093980377C084E090E090939903809339
:101C2000980321E04BE050E060E070E08CE993E045
:101C30000E946B1D86E00E948F0287E00E948F0247
:101C40001092970346CE8091960381110DC080912A
:101C50009503882349F082E090E090939903809364
:101C6000980364E070E037C080919603882321F0E8
:101C700080919503811127C0409198035091990359
:101C8000662757FD6095762F21E08CE993E00E944E
:101C90006B1DC8ECD0E06AE070E080E090E00E944C
:101CA00005322197C1F721E04BE050E060E070E0A1
:101CB0008CE993E00E946B1D10929703109296039B
:101CC000109295031FC083E090E090939903809356
:101CD000980365E070E08CE993E00E943F1ECCCF52
:101CE00001E010E028EE33E040E050E060E87FE300
:101CF0008CE993E00E942B170E949004219709F031
:101D0000CBCECECEDF91CF911F910F9108950E943F
:101D10001B098CE993E00E94391681E894E00E9447
:101D20004D29009761F00E94573901978D30910538
:101D300008F043C0875B9F4FFC010C94C63721E03D
:101D40004AE150E060E070E08CE993E00E946B1D96
:101D500060ED77E080E090E00E9405328CE993E04E
:101D60000E94701D2AC060E070E023C061E070E056
:101D700020C062E070E01DC063E070E01AC064E063
:101D800070E017C065E070E014C066E070E011C05C
:101D900067E070E00EC068E070E00BC069E070E0E2
:101DA00008C06AE070E005C06BE070E002C06CE063
:101DB00070E08CE993E00E94A6210C9487090E94B0
:101DC0001B098CE993E00E94391681E894E00E9497
:101DD0004D29009761F00E94573901978331910591
:101DE00008F055C08A5A9F4FFC010C94C63721E079
:101DF0004AE150E060E070E08CE993E00E946B1DE6
:101E000060ED77E080E090E00E9405328CE993E09D
:101E10000E94701D3CC060E070E035C061E070E081
:101E200032C066E070E02FC067E070E02CC068E070
:101E300070E029C069E070E026C06AE070E023C06D
:101E40006BE070E020C06CE070E01DC06DE070E001
:101E50001AC06EE070E017C06FE070E014C060E17F
:101E600070E011C061E170E00EC062E170E00BC093
:101E700063E070E008C064E070E005C065E070E019
:101E800002C062E070E08CE993E00E943F1E0C9477
:101E90008709CF92DF92EF92FF920F931F93CF9318
:101EA000DF93CDB7DEB72D970FB6F894DEBF0FBE28
:101EB000CDBF0E941B098CE993E00E94391619825C
:101EC0001A821B821C82FE01359687E0DF011D927B
:101ED0008A95E9F781E894E00E944D29009739F14D
:101EE000DC01FE0131969E2F2F2F6E018CE0C80E73
:101EF000D11C8D91811106C0092F122FA5E0EA2E69
:101F0000F12C05C0EC15FD05B9F38193F2CFD80192
:101F10006D918D01FD86EC86C6010E948501BFEFA3
:101F2000EB1AFB0AE0E1EE16F10489F713C021E099
:101F30004AE150E060E070E08CE993E00E946B1DA4
:101F400060ED77E080E090E00E9405328CE993E05C
:101F50000E94701D0E9487092D960FB6F894DEBF6F
:101F60000FBECDBFDF91CF911F910F91FF90EF90EA
:101F7000DF90CF9008951F920F920FB60F92112409
:101F80002F933F934F935F936F937F938F939F9381
:101F9000AF93BF93EF93FF938091F20687FF05C045
:101FA00010928500109284001AC02091F206332707
:101FB00027FD30958091F10690E0281739077CF4D1
:101FC0008091F206992787FD9095FC01EE0FFF1F87
:101FD000E80FF91FED50F94F808186FD15C0809103
:101FE000F2068F5F8093F2062091F206332727FDD9
:101FF00030958091F10690E028173907BCF4809164
:10200000F2068C305CF112C08091F206992787FDB0
:102010009095FC01EE0FFF1FE80FF91FED50F94FEF
:10202000808160E08F730E940433D9CF8091840057
:1020300090918500049680349C4918F480E49CE9D2
:1020400005C080918400909185000496909389004A
:10205000809388008FEF8093F20638C0209184002F
:10206000309185008091F206992787FD9095FC01BB
:10207000EE0FFF1FE80FF91FED50F94F818192819C
:10208000820F931F90938900809388008091F206BD
:10209000992787FD9095FC01EE0FFF1FE80FF91FB0
:1020A000ED50F94F808186FF11C08091F20699278B
:1020B00087FD9095FC01EE0FFF1FE80FF91FED5013
:1020C000F94F808161E08F730E940433FF91EF919B
:1020D000BF91AF919F918F917F916F915F914F9140
:1020E0003F912F910F900FBE0F901F901895209148
:1020F000F1062C30A0F431E0320F3093F106FC01F0
:102100002083822F90E0FC01EE0FFF1FE80FF91FE4
:10211000ED50F94F88EB9BE09283818308952FEF78
:10212000FC0120830895DF92EF92FF920F931F939B
:10213000CF93DF93EC01D62E7A01890188818C3010
:1021400008F066C061E08D2D0E94CB328881A82FF7
:10215000B0E0FD01EE0FFF1FEA0FFB1FED50F94F3E
:102160002D2D2F739081907C922B908360E272E0F2
:102170006E197F0977FF02C06D5F7F4F7595679578
:1021800075956795698340E659E0401B510B57FFF1
:1021900002C04D5F5F4F55954795559547954A83CA
:1021A0006CE00E9465379CE0899FB001112420E01B
:1021B00030E0A901460F571FFA01EE0FFF1FE40F91
:1021C000F51FED50F94F908196FD16C02F5F3F4FE0
:1021D0002C30310571F781110FC01092800082E020
:1021E000809381001092850010928400B19A8091B2
:1021F0006F00826080936F00888190E0FC01EE0F99
:10220000FF1FE80FF91FED50F94F80818064808334
:102210008881DF91CF911F910F91FF90EF90DF9018
:10222000089520E639E040E252E00C949310FC015E
:10223000808190E0FC01EE0FFF1FE80FF91FED50C9
:10224000F94F80818F7B80830895FC0180818C30E1
:1022500070F5918128E830E0291B310997FD33950D
:10226000220F331F220F331F621773077CF09281F6
:1022700028E532E0291B310997FD3395220F331FE2
:10228000220F331F621773070CF49B012250310990
:10229000220F331F4FB7F89490E0FC01EE0FFF1FA1
:1022A000E80FF91FED50F94F328321834FBF089596
:1022B0004F925F926F927F92AF92BF92CF92DF92D6
:1022C000EF92FF920F931F93CF93DF93EC01603255
:1022D00082E078070CF040C077FD06C0653B7105D1
:1022E0002CF064EB70E002C060E070E0898128E8C7
:1022F00030E0281B310987FD3395220F331F220F51
:10230000331F5901CC24B7FCC094DC2C882777FDFF
:102310008095982F2A8148E552E0421B510927FDFC
:102320005395440F551F440F551F2A01662457FC2F
:102330006094762C7F926F925F924F9214EBE12E15
:10234000F12C00E010E020E030E0A9010E943531DE
:102350000F900F900F900F90CE01DF91CF911F91B2
:102360000F91FF90EF90DF90CF90BF90AF907F9054
:102370006F905F904F900C942511FC01808190E04C
:10238000FC01EE0FFF1FE80FF91FED50F94F8081A0
:1023900086FB882780F9089508950F931F93CF93A4
:1023A000DF9385E10E94853225E0AC01249FC001C6
:1023B000259F900D1124BC01882777FD8095982FCB
:1023C0000E94B73520E030E040E85AE30E946B36C7
:1023D0008B01D82FC92F26E636E646E850E40E9446
:1023E0006736181624F406E616E6D6E8C0E4B80107
:1023F0008D2F9C2FDF91CF911F910F9108950F93F7
:102400001F93CF93DF930E94CD112FEB36E842ED5F
:1024100052E40E946B362CE73DE04BEA53E40E9405
:10242000B3348B01D82FC92F20E030E0A9010E94DE
:10243000183587FF04C000E010E0D0E0C0E0B8012C
:102440008D2F9C2FDF91CF911F910F9108950F93A6
:102450001F93CF93DF93EC0100E010E04881598196
:102460006A817B81002E04C07695679557954795C4
:102470000A94D2F7642F61708C810E9404330000AB
:102480000000000061E08D810E9404330000000024
:10249000000060E08D810E9404330F5F1F4F0E31FA
:1024A0001105E1F661E08E810E9404330000000016
:1024B000000060E08E81DF91CF911F910F910C940D
:1024C0000433CF93DF93EC01862F188219821A828E
:1024D0001B826C834D832E8361E00E94CB3261E0CE
:1024E0008D810E94CB3261E08E810E94CB3260E010
:1024F0008C810E94043360E08D810E94043360E08F
:102500008E810E940433CE01DF91CF910C9427126B
:10251000FC0140835183628373830C942712FC0176
:1025200010821182128213820C9427120895CF9385
:10253000DF93EC01862F688379835B834A8361E0B4
:102540000E94CB3260E08A81DF91CF910C94CB3234
:10255000CF93DF93EC0160E088810E94043382E036
:1025600090E00E943F3261E088810E9404338AE05B
:1025700090E00E943F3260E088810E94043320E4B2
:102580003CE940E050E061E08A81DF91CF910C941A
:102590003A330E94A8122AE330E040E050E00E9463
:1025A000A737211531054105510521F427EE33E008
:1025B00040E050E0CA01B9010E94B7350895CF93B9
:1025C000DF93EC01FC01E055FF4F6081718140E039
:1025D00008960E949833FE01EE54FF4F608171818E
:1025E00040E0CE01C1960E949833FE01EC54FF4FAB
:1025F0006081718140E0CE01865A9F4F0E949833DE
:10260000FE01EA54FF4F6081718140E0CE018D5799
:102610009F4FDF91CF910C9498334F925F926F92BE
:102620007F928F929F92AF92BF92CF92DF92EF9262
:10263000FF920F931F93CF93DF93CDB7DEB73C018B
:102640004B885C88FC01E055FF4F718360833296B4
:1026500051834083329631832083329611830083E5
:102660000E94DF12F301EC51FF4F1082E11037C0DE
:10267000F301E054FF4F8AE590E091838083329626
:102680009183808332969183808332969183808375
:10269000A201B401C30184559F4F0E949712F30118
:1026A000E853FF4FA082B1823296C082D18261E0AE
:1026B0008A2D0E94CB3260E08C2DDF91CF911F914B
:1026C0000F91FF90EF90DF90CF90BF90AF909F90D1
:1026D0008F907F906F905F904F900C94CB32E12C55
:1026E000F12C00E010E0C8010E94D13990E081385F
:1026F00091050CF09A95F301EE0DFF1D908F878BDD
:102700000F5F1F4F89E2E80EF11C0430110559F7E5
:10271000AFCFCF93DF93EC0108960E94EB33CE014D
:10272000C1960E94EB33CE01865A9F4F0E94EB3335
:10273000CE018D579F4FDF91CF910C94EB330F93C8
:102740001F93FC01708F678BE05CFF4F51834083C8
:10275000B99631832083B996118300831F910F911D
:102760000895EF92FF920F931F93CF93DF937C0115
:1027700000E010E0C0E0D0E0F701E00FF11F678952
:10278000CE010E94D9392196075D1F4FC430D10573
:1027900099F7DF91CF911F910F91FF90EF900895DE
:1027A0002F923F924F925F926F927F928F929F9261
:1027B000AF92BF92CF92DF92EF92FF920F931F934F
:1027C000CF93DF93CDB7DEB72A970FB6F894DEBF6D
:1027D0000FBECDBF1C016B0149835A830E94DF12DB
:1027E000F101EC51FF4F8081811110822BE0C21664
:1027F000D1040CF4CDC0EE24D7FCE094FE2CC7012C
:10280000B6010E94B73520E030E040E251E40E947A
:102810001C352B013C0139813B838A818C8351011A
:1028200000E010E0AB81BC818D919D91BC83AB83B6
:102830004501B4ED8B0E911CF101E00FF11FE05446
:10284000FF4F20813181821B930BBC01882777FDCC
:102850008095982F0E94B735A30192010E941C35E4
:10286000F40160837183828393830E5F1F4FF4E0D2
:10287000AF0EB11C08301105A9F60E94D6319101A6
:1028800024533F4F3C832B836C0D7D1D8E1D9F1D5C
:10289000D9016D937D938D939C9313974424439416
:1028A000512CF101E053FF4FFE83ED83245C31098D
:1028B00038872F830E94D631EB81FC810081118102
:1028C00022813381601771078207930708F076C071
:1028D0000E94D631665F7F4F8F4F9F4FAD81BE8183
:1028E0006D937D938D939C9313976F807884810172
:1028F0001A8619864201AA2497FCA094BA2CE9856D
:10290000FA85E20DF31DE054FF4F80819181BC01F7
:10291000882777FD8095982F0E94B7356B017C0141
:10292000C501B4010E94B735F801EC52FF4F208178
:102930003181428153810E946B369B01AC01C701FA
:10294000B6010E94B4340E948435C3010E941B3436
:10295000E985FA853296FA87E9870C5F1F4FF9E21D
:102960006F0E711C29853A852830310541F60E9489
:10297000D631AD81BE810D911D912D913C91601795
:1029800071078207930798F3BFEF4B1A5B0A92CF48
:10299000C980DA8000E010E07101F8E0EF0EF11C70
:1029A000D6016D917D916D01C701800F911F0E942D
:1029B0001B34075D1F4F043A110591F7E981FA8135
:1029C00080E090E021913191D101A80FB91FA0546E
:1029D000BF4F2D933C9302968830910599F72A9624
:1029E0000FB6F894DEBF0FBECDBFDF91CF911F9120
:1029F0000F91FF90EF90DF90CF90BF90AF909F909E
:102A00008F907F906F905F904F903F902F900895A0
:102A10002F923F924F925F926F927F928F929F92EE
:102A2000AF92BF92CF92DF92EF92FF920F931F93DC
:102A3000CF93DF9300D000D0CDB7DEB75C01CA01E1
:102A40002901A70196013C014B01650188E0C80EF0
:102A5000D11C780104E010E03C2C2D2CF301819175
:102A600091913F01F60196838583F40181919191C3
:102A70004F01F60194838383B201C60129833A830F
:102A80004B835C830E94FA33F70181919191A1916C
:102A9000B1917F01F60181879287A387B4870150A6
:102AA0001109F9E2CF0ED11C29813A814B815C8159
:102AB0000115110599F60E94D6310E94B5356B01BA
:102AC0007C01B201882777FD8095982F0E94B73549
:102AD00029813A814B815C810E946B36A701960166
:102AE0000E94B4342B013C0185010F5C1F4F45014E
:102AF0008AE5880E911CE3E8AE0EB11CA301920199
:102B0000C701B6010E9418351816A4F0832D922D26
:102B10000E942234C8010E942234C4010E9422343F
:102B2000C5010E9422340E94D6310E94B5356B0146
:102B30007C01E4CF0F900F900F900F90DF91CF9119
:102B40001F910F91FF90EF90DF90CF90BF90AF90CB
:102B50009F908F907F906F905F904F903F902F90BD
:102B600008952F923F924F925F926F927F928F9231
:102B70009F92AF92BF92CF92DF92EF92FF920F930C
:102B80001F93CF93DF93CDB7DEB72C970FB6F89492
:102B9000DEBF0FBECDBF4C017A8369835C834B835C
:102BA0003E832D831801260137010E94DF12F401B4
:102BB000EC51FF4F808181111082C301B2010E944C
:102BC00084356F83788789879A87AF80B8841A1491
:102BD0001B04A4F12F813885B901882777FD8095E2
:102BE000982F0E94B7359B01AC01C301B2010E942E
:102BF000B3346B017C0181012D813E814B815C816D
:102C000069817A81C4010E9408152C960FB6F89448
:102C1000DEBF0FBECDBFDF91CF911F910F91FF900F
:102C2000EF90DF90CF90BF90AF909F908F907F906C
:102C30006F905F904F903F902F9008951C861B8659
:102C4000C12CD12C90E8E92E9FE3F92E81012D8132
:102C50003E814B815C8169817A81C4010E940815A3
:102C60008B859C8501969C878B878A159B0541F7F0
:102C7000B1CFEF92FF920F931F93CF93DF93CDB716
:102C8000DEB728970FB6F894DEBF0FBECDBF8C011C
:102C90007C0184EEE80EF11CF7018081811117C0E0
:102CA00088E0E2E1F1E0DE01119601900D928A9553
:102CB000E1F7AE014F5F5F4F64EF71E0C8010E9422
:102CC000D013C8010E94891381E0F7018083289600
:102CD0000FB6F894DEBF0FBECDBFDF91CF911F912D
:102CE0000F91FF90EF9008958C519F4FFC018081D0
:102CF00008958C519F4FFC0160830895EF92FF92DD
:102D00000F931F93CF93DF93CDB7DEB760970FB6C6
:102D1000F894DEBF0FBECDBF8C01790188E0EAE1F7
:102D2000F1E0DE01199601900D928A95E1F7AE016E
:102D3000475F5F4FB901C8010E94D01388E0E2E10C
:102D4000F1E0DE01119601900D928A95E1F7AE0156
:102D50004F5F5F4FB701C8010E94D01360960FB656
:102D6000F894DEBF0FBECDBFDF91CF911F910F91C1
:102D7000FF90EF9008958F929F92AF92BF92CF9263
:102D8000DF92EF92FF920F931F93CF93DF93CDB714
:102D9000DEB7A0970FB6F894DEBF0FBECDBF5C01C3
:102DA0006A017B014901980188E0E2E6F1E0DE0179
:102DB000599601900D928A95E1F788E0EAE6F1E0F4
:102DC000DE01519601900D928A95E1F78E010F5F19
:102DD0001F4F80E1F80111928A95E9F746EA420314
:102DE000B001439F700D1124882777FD8095982F9F
:102DF0000E94B7352BED3FE049E450E40E946B366A
:102E000020E030E044E353E40E941C3569877A8770
:102E10008B879C876D877E878F87988B9401AE0107
:102E20004F5E5F4FBE01675E7F4FC5010E94B115C7
:102E3000A0960FB6F894DEBF0FBECDBFDF91CF9145
:102E40001F910F91FF90EF90DF90CF90BF90AF90C8
:102E50009F908F900895CF92DF92EF92FF920F9301
:102E60001F93CF93DF93CDB7DEB7A0970FB6F8943B
:102E7000DEBF0FBECDBFE8E0FE2EE2E6F1E0DE01F0
:102E8000599601900D92FA94E1F7F8E0FF2EE2E7EF
:102E9000F1E0DE01519601900D92FA94E1F7A0E184
:102EA000FA2EEAE7F1E0DE01119601900D92FA9414
:102EB000E1F70130110539F4EEE1F0E0FA8FE98F26
:102EC000EAE0F0E006C0EAE0F0E0FA8FE98FEEE138
:102ED000F0E0FC8FEB8F6A017B018E010F5F1F4FCB
:102EE000AE014F5E5F4FBE01675E7F4F0E94B1151E
:102EF000A0960FB6F894DEBF0FBECDBFDF91CF9185
:102F00001F910F91FF90EF90DF90CF9008958F92D7
:102F10009F92AF92BF92CF92DF92EF92FF920F9368
:102F20001F93CF93DF93CDB7DEB768970FB6F894B2
:102F3000DEBF0FBECDBF5C014B0188E0EAE8F1E0E7
:102F4000DE01519601900D928A95E1F788E0E2E961
:102F5000F1E0DE01199601900D928A95E1F788E083
:102F6000E2E1F1E0DE01119601900D928A95E1F720
:102F70002F3F3F4F71F481E990E09E8B8D8B88E766
:102F800090E0988F8F8B2BE430E03E872D87988BD5
:102F90008F8700E010E06A01EE24D7FCE094FE2C5D
:102FA000081519054CF5AE014F5E5F4F60E971E001
:102FB000C5010E94D013AE01475F5F4F60E971E029
:102FC000C5010E94D013C701B6010E94B7352DEC90
:102FD0003CEC4CE45FE30E946B360E9489350E9412
:102FE0000532AE014F5F5F4F64EF71E0C5010E9493
:102FF000D0130F5F1F4FD4CF68960FB6F894DEBF83
:103000000FBECDBFDF91CF911F910F91FF90EF9039
:10301000DF90CF90BF90AF909F908F9008958F9248
:103020009F92AF92BF92CF92DF92EF92FF920F9357
:103030001F93CF93DF93CDB7DEB7A0970FB6F89469
:10304000DEBF0FBECDBF8C014B0188E0EAE9F1E0A5
:10305000DE01599601900D928A95E1F788E0E2EA47
:10306000F1E0DE01519601900D928A95E1F788E03A
:10307000EAEAF1E0DE01199601900D928A95E1F7F6
:1030800088E0E2E1F1E0DE01119601900D928A956F
:10309000E1F72F3F3F4FA1F481E990E09E8F8D8FA4
:1030A0008AE790E098A38F8F2CE330E03E8B2D8B46
:1030B000988F8F8B28E730E03E872D87988B8F87FE
:1030C0006A0188EEC81A83E0D80A80E9C81681E050
:1030D000D80624F480E9C82EDD24D3947601F59433
:1030E000E794F594E794A12CB12CA814B904C4F585
:1030F000AE01475E5F4F64EF71E0C8010E94D013DC
:10310000AE014F5E5F4F64EF71E0C8010E94D013C3
:10311000AE01475F5F4FB701C8010E94D013AE01F7
:103120004F5E5F4FB701C8010E94D013AE01475FE9
:103130005F4FB701C8010E94D013AE014F5E5F4FD1
:10314000B701C8010E94D013AE014F5F5F4F64EF1B
:1031500071E0C8010E94D0138FEFA81AB80AC5CF3A
:10316000B601882777FD8095982F0E940532A0969A
:103170000FB6F894DEBF0FBECDBFDF91CF911F9188
:103180000F91FF90EF90DF90CF90BF90AF909F9006
:103190008F900895CF92DF92EF92FF920F931F933B
:1031A000CF93DF93CDB7DEB7A0970FB6F894DEBF0D
:1031B0000FBECDBF6A017B01E8E0BE01675E7F4FB5
:1031C000DB014E2F1D924A95E9F71E8F0D8F18A334
:1031D0000F8FAE014F5E5F4FDA011D92EA95E9F75E
:1031E0001E8B0D8B119501951109188F0F8B10E116
:1031F000E2EBF1E0DE01119601900D921A95E1F7F4
:103200008E010F5F1F4F0E94B115A0960FB6F89464
:10321000DEBF0FBECDBFDF91CF911F910F91FF9009
:10322000EF90DF90CF900895CF92DF92EF92FF92D0
:103230000F931F93CF93DF93CDB7DEB7A0970FB651
:10324000F894DEBF0FBECDBF6A017B01E8E0BE018E
:10325000675E7F4FDB014E2F1D924A95E9F71E8F67
:103260000D8F18A30F8FAE014F5E5F4FDA011D92D5
:10327000EA95E9F7F80117FD3196F595E795FE8B8C
:10328000ED8B17FF02C00F5F1F4F15950795119526
:1032900001951109188F0F8B8E010F5F1F4FE0E111
:1032A000D8011D92EA95E9F70E94B115A0960FB6D4
:1032B000F894DEBF0FBECDBFDF91CF911F910F916C
:1032C000FF90EF90DF90CF900895CF92DF92EF9232
:1032D000FF920F931F93CF93DF93CDB7DEB7A097E5
:1032E0000FB6F894DEBF0FBECDBF6A017B01E8E0E8
:1032F000BE01675E7F4FDB014E2F1D924A95E9F7B5
:103300001E8F0D8F18A30F8FAE014F5E5F4FDA0136
:103310001D92EA95E9F71E8B0D8B11950195110908
:10332000188F0F8B8E010F5F1F4FE0E1D8011D92A8
:10333000EA95E9F70E94B115A0960FB6F894DEBFA2
:103340000FBECDBFDF91CF911F910F91FF90EF90F6
:10335000DF90CF900895CF92DF92EF92FF920F937C
:103360001F93CF93DF93CDB7DEB7A0970FB6F89436
:10337000DEBF0FBECDBF6A017B010A31110514F01B
:1033800009E110E0E8E0BE01675E7F4FDB014E2FF0
:103390001D924A95E9F71A8F098F1C8F0B8FAE018A
:1033A0004F5E5F4FDA011D92EA95E9F710E1E2EC1A
:1033B000F1E0DE01119601900D921A95E1F78E0170
:1033C0000F5F1F4F0E94B115A0960FB6F894DEBF95
:1033D0000FBECDBFDF91CF911F910F91FF90EF9066
:1033E000DF90CF900895CF92DF92EF92FF920F93EC
:1033F0001F93CF93DF93CDB7DEB7A0970FB6F894A6
:10340000DEBF0FBECDBF6A017B010E30110514F087
:103410000DE010E01A8F098F1C8F0B8F1E8F0D8F00
:1034200018A30F8FAE014F5E5F4F68E0FA01119253
:103430006A95E9F7B8016C5F7F4F7E8B6D8B64E016
:1034400070E0601B710B788F6F8B60E1E2EDF1E053
:10345000DE01119601900D926A95E1F78E010F5FE2
:103460001F4FBE01675E7F4F0E94B115A0960FB639
:10347000F894DEBF0FBECDBFDF91CF911F910F91AA
:10348000FF90EF90DF90CF9008952F923F924F9250
:103490005F926F927F928F929F92AF92BF92CF92E4
:1034A000DF92EF92FF920F931F93CF93DF93CDB7ED
:1034B000DEB7A2970FB6F894DEBF0FBECDBF4C01AA
:1034C0001A012B01390188E09E01275E3F4F3AA384
:1034D00029A3F901282F11922A95E9F71E8F0D8F44
:1034E00018A30F8F5E0131E1A30EB11CF5011192FB
:1034F0008A95E9F7C80117FD01969595879502967B
:103500009E8B8D8B17FF02C00F5F1F4F1595079580
:1035100011950195110902501109188F0F8B26EA98
:10352000A70124036001259FD00C11248E010F5F99
:103530001F4F80E1F80111928A95E9F7B6018827BB
:1035400077FD8095982F0E94B7352BED3FE049E439
:1035500050E40E946B3620E030E044E353E40E94E4
:103560001C3569877A878B879C8724ECA701240305
:10357000B001259F700D11246C0D7D1D882777FDEE
:103580008095982F0E94B7352BED3FE049E450E439
:103590000E946B3620E030E044E353E40E941C3587
:1035A0006D877E878F87988B720161019301A501DA
:1035B000BE01675E7F4FC4010E94B115A2960FB68F
:1035C000F894DEBF0FBECDBFDF91CF911F910F9159
:1035D000FF90EF90DF90CF90BF90AF909F908F9033
:1035E0007F906F905F904F903F902F9008952F9213
:1035F0003F924F925F926F927F928F929F92AF9283
:10360000BF92CF92DF92EF92FF920F931F93CF93CF
:10361000DF93CDB7DEB7A0970FB6F894DEBF0FBE2D
:10362000CDBF4C015A016B01390128E02E0149E15F
:10363000440E511CF201422F11924A95E9F789E19B
:1036400090E09A8F898F9C8F8B8F1E8F0D8F18A380
:103650000F8F1E0151E1250E311CF10111922A95A7
:10366000E9F7C80117FD01969595879504969E8BFD
:103670008D8B17FF02C00F5F1F4F15950795119592
:103680000195110904501109188F0F8B8E010F5FDE
:103690001F4F80E1F80111928A95E9F780E090E0F0
:1036A000A4EBB2E489839A83AB83BC838D839E832E
:1036B000AF83B88724ECA7012403B001259F700DC8
:1036C0001124882777FD8095982F0E94B7352BED20
:1036D0003FE049E450E40E946B3620E030E044E3F0
:1036E00053E40E941C356D877E878F87988B760107
:1036F00065019301A101B201C4010E94B115A09618
:103700000FB6F894DEBF0FBECDBFDF91CF911F91F2
:103710000F91FF90EF90DF90CF90BF90AF909F9070
:103720008F907F906F905F904F903F902F90089573
:103730002F923F924F925F926F927F928F929F92C1
:10374000AF92BF92CF92DF92EF92FF920F931F93AF
:10375000CF93DF93CDB7DEB7A0970FB6F894DEBF57
:103760000FBECDBF4C015A016B01390128E02E017B
:1037700049E1440E511CF201422F11924A95E9F79A
:103780008CE090E09A8F898F9C8F8B8F1E8F0D8F8E
:1037900018A30F8F1E0151E1250E311CF10111926A
:1037A0002A95E9F7C8010A979E8B8D8B8AE090E0F5
:1037B000801B910B988F8F8B8E010F5F1F4F80E1C5
:1037C000F80111928A95E9F78BED9FE0A9E4B0E446
:1037D0008D839E83AF83B88726EAA7012403B001B7
:1037E000259F700D1124882777FD8095982F0E94C2
:1037F000B7352BED3FE049E450E40E946B3620E002
:1038000030E044E353E40E941C3569877A878B8754
:103810009C878AE58E9DB0018F9D700D11248827AD
:1038200077FD8095982F0E94B7352BED3FE049E456
:1038300050E40E946B3620E030E044E353E40E9401
:103840001C356D877E878F87988B76016501930184
:10385000A101B201C4010E94B115A0960FB6F8945F
:10386000DEBF0FBECDBFDF91CF911F910F91FF90B3
:10387000EF90DF90CF90BF90AF909F908F907F9010
:103880006F905F904F903F902F90089584559F4F79
:103890000C94C9120F931F93CF93DF93EC01C6537F
:1038A000DF4F88810E94853288810E9485328C0199
:1038B00064E070E080E090E00E94053288810E9420
:1038C0008532080F191F64E070E080E090E00E94EC
:1038D0000532C80117FD019695958795DF91CF9127
:1038E0001F910F910895CF92DF92EF92FF920F9365
:1038F0001F93CF93DF938C01095F1F4FC8010E9474
:10390000FF11CAE0D0E0C12CD12C7601C8010E9481
:10391000FF119B01AC01C701B6010E94B4346B01D9
:103920007C0161E070E080E090E00E940532219728
:1039300069F720E030E040E251E4C701B6010E949F
:103940001C35DF91CF911F910F91FF90EF90DF9089
:10395000CF900895CF93DF93CDB7DEB7C058D1098C
:103960000FB6F894DEBF0FBECDBF80E8E2EEF1E007
:10397000DE01119601900D928A95E1F7660F771F8F
:10398000660F771F81E090E08C0F9D1F680F791FF5
:10399000FB016081718182819381C058DF4F0FB636
:1039A000F894DEBF0FBECDBFDF91CF910895CF93C6
:1039B000DF93EC01BA010E94AA1CAB01BC01CE014D
:1039C000DF91CF910C948812CF93DF93CDB7DEB700
:1039D000C057D1090FB6F894DEBF0FBECDBF80E24D
:1039E000E2E6F2E0DE01999601900D928A95E1F708
:1039F00080E1E2E8F2E0DE01AF59BF4F01900D92A5
:103A00008A95E1F788E1E2E9F2E0DE01A75BBF4FCA
:103A100001900D928A95E1F788E2EAEAF2E0DE0190
:103A2000119601900D928A95E1F76130710509F1C7
:103A300094F4672BB1F5FA01EE0FFF1FEE0FFF1F95
:103A400081E090E08C0F9D1FE80FF91F60A571A524
:103A500082A593A526C06230710599F06330710587
:103A600001F5FA01EE0FFF1FEE0FFF1F81E090E05E
:103A70000FC0FA01EE0FFF1FEE0FFF1F81E690E06F
:103A800007C0FA01EE0FFF1FEE0FFF1F89E490E061
:103A90008C0F9D1FE80FF91F6081718182819381D6
:103AA00000C0C059DF4F0FB6F894DEBF0FBECDBFC8
:103AB000DF91CF910895CF93DF93EC01CB01BA0151
:103AC000A901CE010E94E41CAB01BC01CE01DF9133
:103AD000CF910C94881221110C94D71C0C9488124D
:103AE0000C948F128F929F92AF92BF92EF92FF929F
:103AF0000F931F93CF93DF93EC0148015901E11419
:103B0000F10419F4EE24E394F12CCB01BA010E94E4
:103B10008935C853DF4FA501940188810E944D2E3D
:103B2000C501B4010E940532B701882777FD809551
:103B3000982FDF91CF911F910F91FF90EF90BF9041
:103B4000AF909F908F900C9405322F923F924F929E
:103B50005F926F927F928F929F92AF92BF92CF921D
:103B6000DF92EF92FF920F931F93CF93DF93CDB726
:103B7000DEB728970FB6F894DEBF0FBECDBF1C018D
:103B80002A013B0109831A832B833C83CD82DE8289
:103B9000EF82F886CD8CDE8CC114D10419F4CC24CC
:103BA000C394D12C29813A814B815C81C301B2013C
:103BB0000E94183587FF25C0C301B2010E948435D9
:103BC000882777FD8095982F0E94B7352B013C01FF
:103BD00029813A814B815C810E94183587FF36C06C
:103BE000760195018401B301A201C1010E94721DF9
:103BF0002D813E814F815885C301B2010E946B36F1
:103C0000DDCFC301B2010E948435882777FD8095FE
:103C1000982F0E94B7352B013C0129813A814B81B5
:103C20005C810E94673618168CF476019501840138
:103C3000B301A201C1010E94721D2D813E814F81FD
:103C40005885C301B2010E941C35DDCF28960FB6FE
:103C5000F894DEBF0FBECDBFDF91CF911F910F91C2
:103C6000FF90EF90DF90CF90BF90AF909F908F909C
:103C70007F906F905F904F903F902F9008957F922C
:103C80008F929F92AF92BF92CF92DF92EF92FF926C
:103C90000F931F93CF93DF93EC016331710508F00D
:103CA00047C3FB01E759FF4F0C94C6375EE1E52E91
:103CB000F12C02E310E020E030E044EA50ED64E251
:103CC00074E40E94721D69E1E62EF12C07E310E016
:103CD00020E030E042E550ED64EA74E4CE010E9459
:103CE000721D7AE0E72EF12C0CE310E020E030E0CA
:103CF00040E050E06CED74E426C02EE1E22EF12CA1
:103D000002E310E020E030E044EA50ED64E274E4C5
:103D10000E94721D39E1E32EF12C07E310E020E050
:103D200030E040E050E06CED74E4CE010E94721D82
:103D30004AE0E42EF12C02E310E020E030E042E51E
:103D400050ED64EA74E4CE010E94721DF1C21F922C
:103D5000B2E07B2E7F9214E1812E912CA12CB12C0C
:103D60000AE0C02E07EDD02E03E8E02E0FE3F02E80
:103D70000CE51FEF23EC34E442E550ED64EA74E413
:103D80000E94A51D6EE170E080E090E00E94053287
:103D90001F927F928AE0882E912CA12CB12C98EB57
:103DA000C92E9EE1D92E95E8E92E9FE3F92E0FE169
:103DB00015ED22E135E442E550ED64EA74E4B1C268
:103DC0001F928AE08F93FEE18F2E912CA12CB12CB3
:103DD000ACE5CA2EAFE8DA2EA2E8EA2EAFE3FA2E5F
:103DE00000E010E02CED34E442E550ED64EA74E4C8
:103DF0006DC21F928AE08F937EE1872E912CA12CB9
:103E0000B12CEAE0CE2EE7EDDE2EE3E8EE2EEFE376
:103E1000FE2E0FE115ED22E135E44CE55FEF63EC9A
:103E200074E454C254E6E52EF12C02E310E020E0E5
:103E300030E042E550ED64EA74E40E94721D60E5F2
:103E4000E62EF12C02E310E020E030E04CE55FEFDD
:103E500063EC74E4CE010E94721DE12CF12C0CE2A3
:103E600011E020E030E04FE155ED62E175E46BCF09
:103E70001F92772473947F929AE0892E912CA12C23
:103E8000B12C2CE5C22E2FE8D22E22E8E22E2FE311
:103E9000F22E00E010E626E035E440E050E068E471
:103EA00074E4CE010E94A51D1F927F9237E0832EFD
:103EB000912CA12CB12C4AE0C42E47EDD42E43E81E
:103EC000E42E4FE3F42E00E010E028E434E440E078
:103ED00050E566E075E425C21F9283E08F9318E0F9
:103EE000812E912CA12CB12C08EBC02E0EE1D02EEE
:103EF00005E8E02E0FE3F02E00E010E02AEF34E4B6
:103F000040E050E06CE574E4CE010E94A51D68EC31
:103F100070E080E090E00E9405320F900F9086E103
:103F2000C82ED12CBAE0EB2EF12C05E010E020E0F9
:103F300030E048E451EF66E774E4CE010E94721D60
:103F400081E0C81AD10871F7F3C11F9283E08F9303
:103F5000E8E08E2E912CA12CB12CFAE0CF2EF7EDBB
:103F6000DF2EF3E8EF2EFFE3FF2E00E010E82BE357
:103F700035E440E050E06BEE74E4CE010E94A51DF4
:103F800068EC70E080E090E00E9405320F900F90A6
:103F9000A0E1CA2ED12C7AE0E72EF12C0AE010E045
:103FA00020E030E040E050ED62E874E4CE010E9491
:103FB000721D81E0C81AD10871F7BAC11F9284E05E
:103FC0008F9330E1832E912CA12CB12C4AE0C42E8A
:103FD00047EDD42E43E8E42E4FE3F42E00E010E04A
:103FE00021E634E440E050E06FE274E4CE010E9448
:103FF000A51D1F9287E08F9352E1852E912CA12C55
:10400000B12C6EEAC62E67E4D62E61E8E62E6FE389
:10401000F62E00E010E822E234E440E050EC60E6E6
:1040200074E47FC11F928AE08F939AE0892E912CCD
:10403000A12CB12C28EBC22E2EE1D22E25E8E22EA7
:104040002FE3F22E00E010E02AEF33E440E050E0EE
:1040500068EC72E4CE010E94A51D64EF71E080E07F
:1040600090E00E9405321F9281E08F9300E010E003
:1040700028EC32E440E050E068EC73E452C11F9257
:10408000B8E07B2E7F9214E1812E912CA12CB12CD3
:1040900006E6C02EDC2C06E8E02E0FE3F02E00E052
:1040A00010E42CE135E440E050E86BEB74E40E944E
:1040B000A51D1F927F9289E1882E912CA12CB12CF5
:1040C00000E010E82BEB34E440E050E36CE175E4F1
:1040D00028C11F9283E08F93E8E08E2E912CA12CB3
:1040E000B12CF6E6CF2EDC2CF6E8EF2EFFE3FF2E08
:1040F00000E010E82BEB35E440E050E06AEF74E4B8
:10410000CE010E94A51D62E370E080E090E00E9475
:1041100005321F9282E08F93ADE08A2E912CA12C64
:10412000B12C00E010E02AEF34E440E058E76BEBFC
:1041300075E4F7C01F9248E0742E7F925FE0852EF1
:10414000912CA12CB12C66E6C62EDC2C66E8E62E5E
:104150006FE3F62E00E010E02AEF34E440E050E890
:104160006BEB74E40E94A51D64E670E080E090E0D3
:104170000E9405321F927F927AE0872E912CA12C0B
:10418000B12C00E010E42CE135E440E050E86DEEA5
:1041900074E4C7C01F9288EC8F9324E1822E912C87
:1041A000A12CB12C3CE5C32E3FE8D32E32E8E32E00
:1041B0003FE3F32E00E010E427E234E440E050E077
:1041C0006CE574E483C01F9282E08F93B8E08B2E7D
:1041D000912CA12CB12C1AE0C12E17EDD12E13E891
:1041E000E12E1FE3F12E00E010E824ED34E440E07E
:1041F00050E06AE774E4CE010E94A51D1F9283E09F
:104200008F9308EBC02E0EE1D02E05E8E02E0FE3D1
:10421000F02E00E010E02AEF33E440E050E664EDD9
:1042200074E4CE010E94A51D1F928AE08F9389E05D
:10423000882E912CA12CB12C96E6C92EDC2C96E868
:10424000E92E9FE3F92E00E010E824ED34E440E08D
:1042500050E06AE774E4CE010E94A51D0F900F9014
:104260000F900F900F900F9063C01F928FE08F936D
:10427000F2E08F2E912CA12CB12CACE5CA2EAFE828
:10428000DA2EA2E8EA2EAFE3FA2E00E010E82BE3E4
:1042900035E440E050E068EC74E418C01F9284E11B
:1042A0008F9372E0872E912CA12CB12CECE5CE2EB1
:1042B000EFE8DE2EE2E8EE2EEFE3FE2E00E010E85F
:1042C0002BEB35E440E050E06AEF74E4CE010E944D
:1042D000A51D0F900F902CC01F9244E1742E7F9269
:1042E00052E0852E912CA12CB12C6CE5C62E6FE8E6
:1042F000D62E62E8E62E6FE3F62E00E010E02AE705
:1043000035E440E050E068EC74E40E94A51D1F9283
:104310007F9200E010E82BE335E440E050E06AE7EC
:1043200075E4CE010E94A51D0F900F900F900F9085
:10433000DF91CF911F910F91FF90EF90DF90CF9081
:10434000BF90AF909F908F907F9008952F923F9253
:104350004F925F926F927F928F929F92AF92BF9295
:10436000CF92DF92EF92FF920F931F93CF93DF9341
:10437000CDB7DEB7C258D1090FB6F894DEBF0FBE75
:10438000CDBF3C0188E0E2EDF2E0DE01AF58BF4F67
:1043900001900D928A95E1F788E0EAEDF2E0DE0106
:1043A000A759BF4F01900D928A95E1F788E0E2EEA0
:1043B000F2E0DE01AF59BF4F01900D928A95E1F70F
:1043C00088E0EAEEF2E0DE01A75ABF4F01900D92BD
:1043D0008A95E1F788E0E2EFF2E0DE01AF5ABF4FE5
:1043E00001900D928A95E1F788E0EAEFF2E0DE01B4
:1043F000A75BBF4F01900D928A95E1F788E0E2E05C
:10440000F3E0DE01AF5BBF4F01900D928A95E1F7BB
:1044100088E0EAE0F3E0DE01D99601900D928A95FA
:10442000E1F788E0E2E1F3E0DE01D19601900D9240
:104430008A95E1F788E0EAE1F3E0DE0199960190E0
:104440000D928A95E1F788E0E2E2F3E0DE019196D1
:1044500001900D928A95E1F788E0EAE2F3E0DE014F
:10446000599601900D928A95E1F788E0E2E3F3E036
:10447000DE01519601900D928A95E1F788E0EAE31A
:10448000F3E0DE01199601900D928A95E1F76D3007
:10449000710508F0CEC6FB01E458FF4F0C94C637F7
:1044A00082E090E0EF969FAF8EAFEF973DC4E4E0DF
:1044B000F0E0EF96FFAFEEAFEF976BC3FEE1EF2EAC
:1044C000F12C02E310E020E030E044EA50ED64E239
:1044D00074E4C3010E94721D4AE050E060E070E0A5
:1044E000C3010E94D71C6DE070E0C3010E943F1E13
:1044F00004E110E020E233E040E050E060E87FE3D8
:10450000C3010E9414196DE070E076C14BE050E0E9
:1045100060E070E0C3010E94D71C6BE070E0C30153
:104520000E943F1E4CE050E060E070E0C3010E943A
:10453000D71C04E110E024EF31E040E050E060E8F7
:104540007FE3C3010E9465194BE050E060E070E03A
:10455000C3010E94D71C6CE070E0C3010E943F1EA3
:104560004CE050E060E070E0C3010E94D71C24EFF3
:1045700031E040E050E060E87FE3C3010E9465194C
:1045800004C346E150E060E070E0C3010E94D71C24
:10459000AE014F585F4F6CEB72E0C3010E94D01325
:1045A0001F9268EC562E5F9274E1872E912CA12CFD
:1045B000B12CECE5CE2EEFE8DE2EE2E8EE2EEFE3B6
:1045C000FE2E00E010E82FE434E440E050E06CE51B
:1045D00074E4C3010E94A51D48E150E060E070E072
:1045E000C3010E94D71C1F925F9200E010E825E4EF
:1045F00034E440E050E86FE474E4C3010E94A51D78
:1046000047E150E060E070E0C3010E94D71C1F92B8
:104610005F9200E010E029E334E440E050E865E414
:1046200074E4C3010E94A51D48E150E060E070E021
:10463000C3010E94D71C1F925F9200E010E02FE29E
:1046400034E440E050E069E374E4C3010E94A51D36
:1046500047E150E060E070E0C3010E94D71C1F9268
:104660005F9200E010E427E234E440E050E06FE2C3
:1046700074E4C3010E94A51D46E150E060E070E0D3
:10468000C3010E94D71C64EF71E080E090E00E94BB
:104690000532C3010E9439166CE271E080E090E0BF
:1046A0000E94053207C2AE0147595F4F6CEB72E0C2
:1046B000C3010E94D01344E0442E512C5AE0352E01
:1046C0002224239420E030E041E050E060E070E0FC
:1046D000C3010E945B1D1F923F922AE0822E912C03
:1046E000A12CB12C38EBC32E3EE1D32E35E8E32EBE
:1046F0003FE3F32E00E010E028E433E440E050E034
:1047000068EC72E4C3010E94A51D21E030E041E0A5
:1047100050E060E070E0C3010E945B1D1F923F9279
:1047200000E010E026E933E440E050E068E473E4A0
:10473000C3010E94A51D22E030E041E050E060E0AE
:1047400070E0C3010E945B1D1F923F9200E010E0E9
:104750002AEF33E440E050E066E973E4C3010E94CD
:10476000A51D64EF71E080E090E00E94053221E039
:1047700030E041E050E060E070E0C3010E945B1D6A
:104780001F922F9200E010E02AE733E440E050E06F
:1047900068EC73E4C3010E94A51D20E030E041E015
:1047A00050E060E070E0C3010E945B1D1F922F92F9
:1047B00000E010E028EC32E440E050E06AE773E407
:1047C000C3010E94A51D64EF71E080E090E00E94AB
:1047D000053291E0491A51080FB6F894DEBF0FBEBA
:1047E000CDBF09F06FCF43E150E060E070E0C3015E
:1047F0000E94D71C69E070E0C3010E943F1EC5C142
:10480000AE014F595F4F64EF71E0C3010E94D013B6
:104810006CE271E080E090E00E94053243E150E0FC
:1048200060E070E0C3010E94D71C60E170E0C3014A
:104830000E943F1E40E150E060E070E0C3010E9432
:10484000D71C6AEF70E080E090E00E940532AE0174
:10485000475A5F4F64EF71E0C3010E94D0136CE2CE
:1048600071E080E090E00E94053243E150E060E0BA
:1048700070E0C3010E94D71C61E170E0C3010E9497
:104880003F1E40E150E060E070E0C3010E94D71C91
:104890006AEF70E080E090E00E940532AE014F5A6E
:1048A0005F4F64EF71E0C3010E94D0136CE271E0CE
:1048B00080E090E00E94053243E150E060E070E06B
:1048C000C3010E94D71C62E170E0C3010E943F1E39
:1048D00040E150E060E070E0C3010E94D71C6CE250
:1048E00071E080E090E00E940532C3010E94391619
:1048F00064EF71E080E090E052C3AE01475B5F4F30
:104900006CE271E0C3010E94D01344E150E060E02A
:1049100070E0C3010E94D71C6FE070E0C3010E94E9
:104920003F1E2DC14DE050E060E070E0C3010E94E9
:10493000D71C69E070E0C3010E943F1EEE24E3949F
:10494000F12C0FE010E02CED35E040E050E060E0AD
:1049500070E4C3010E94F71AC3010E9439166DE08A
:1049600070E0C3010E943F1EDBC3AE014F5B5F4F8F
:104970006CE271E0C3010E94D0134EE150E060E0B0
:1049800070E0C3010E94D71CFEE1EF2EF12C04E67B
:1049900010E020E030E040E050E06CE574E4C3015A
:1049A0000E94721D1F92A4E05A2E5F92B7E08B2ED8
:1049B000912CA12CB12C1CE5C12E1FE8D12E12E8A0
:1049C000E12E1FE3F12E0FE115ED22E934E440E082
:1049D00050E06CE574E4C3010E94A51D1F924424BD
:1049E00043944F920AE0802E912CA12CB12C0CE51F
:1049F0001FEF23EC34E44FE155ED62E974E4C301A9
:104A00000E94A51D1F924F9200E010E02CE534E4B7
:104A10004CE55FEF63EC74E4C3010E94A51D6FE0F9
:104A200070E080E090E00E9405321F925F9284E186
:104A3000882E912CA12CB12C04EA10ED24E234E450
:104A400040E050E06CE574E4C3010E94A51D60E9FC
:104A500071E080E090E00E940532AE01475C5F4F5C
:104A600068EC70E0C3010E94D0131F925F920FE1C7
:104A700015ED22E934E440E050E06CE574E4C30154
:104A80000E94A51DAE014F5C5F4F68EC70E0C30152
:104A90000E94D0131F925F9204EA10ED24E234E4E6
:104AA00040E050E06CE574E4C3010E94A51DC30121
:104AB0000E9439164BE050E060E070E0C3010E94B4
:104AC000D71C0FB6F894DEBF0FBECDBFB2C34EE108
:104AD00050E060E070E0C3010E94D71C1F9264E0C8
:104AE000562E5F9274E1872E912CA12CB12CECE50F
:104AF000CE2EEFE8DE2EE2E8EE2EEFE3FE2E0FE103
:104B000015ED22E934E440E050E06CE574E4C301C3
:104B10000E94A51D1F925F9204EA10ED24E234E486
:104B200040E050E06CE574E4C3010E94A51D6CE216
:104B300071E080E090E00E94053243E150E060E0E7
:104B400070E0C3010E94D71C0F900F900F900F9040
:104B500004E010E0AE01475D5F4F64E670E0C30122
:104B60000E94D013C3010E9439160150110991F718
:104B70004EE150E060E070E0C3010E94D71C64EF9A
:104B800071E080E090E00E940532C3010E94391676
:104B9000C7C2EB961FAE1EAEEB9700E911E0EB9695
:104BA0002EAD3FADEB9742E050E060E070E0C30116
:104BB0000E945B1D180194E6290E311CB80188275C
:104BC00077FD8095982F0E94B735C158DF4F6883D5
:104BD00079838A839B83CF57D040B101882777FDA3
:104BE0008095982F0E94B7358B019C011F92EAE0B7
:104BF000EF934AE0842E912CA12CB12C58EBC52EBA
:104C00005EE1D52E55E8E52E5FE3F52EC158DF4F66
:104C1000488159816A817B81CF57D040C3010E946E
:104C2000A51DEB968EAD9FADEB970196EB969FAFD2
:104C30008EAFEB970F900F9098EE291693E0390600
:104C400011F08101ACCFC3010E948F121F92EAE0E4
:104C5000EF9300E010E829E834E4C158DF4F4881C1
:104C600059816A817B81CF57D040C3010E94A51D25
:104C70000F900F90412C512C920142E050E060E0E7
:104C800070E0C3010E945B1DB1016C597F4F882702
:104C900077FD8095982F0E94B735ED966CAF7DAF6C
:104CA0008EAF9FAFED97B101882777FD8095982F44
:104CB0000E94B735AB01BC011F92FAE0FF932AE0D6
:104CC000822E912CA12CB12C38EBC32E3EE1D32E99
:104CD00035E8E32E3FE3F32EED960CAD1DAD2EAD82
:104CE0003FADED97C3010E94A51D84E6281A310847
:104CF0009FEF491A590A0F900F90E0E92E16E1E054
:104D00003E0609F0B9CFEF968EAD9FADEF970197B4
:104D1000EF969FAF8EAFEF97892B09F03ACF6CE2F9
:104D200071E080E090E03BC1212C312C54EF452E06
:104D300055245394910143E050E060E070E0C301DA
:104D40000E945B1DB2016C597F4F882777FD8095CB
:104D5000982F0E94B735ED966CAF7DAF8EAF9FAFA9
:104D6000ED97B201882777FD8095982F0E94B7357F
:104D7000AB01BC011F929AE09F938AE0882E912C90
:104D8000A12CB12C9CE5C92E9FE8D92E92E8E92EE2
:104D90009FE3F92EED960CAD1DAD2EAD3FADED9719
:104DA000C3010E94A51DE5E64E0E511CFFEF2F1A10
:104DB0003F0A0F900F9086EE481685E0580609F0DE
:104DC000B9CF212C312C910143E050E060E070E03C
:104DD000C3010E945B1DB2016C597F4F882777FD8C
:104DE0008095982F0E94B735ED966CAF7DAF8EAF52
:104DF0009FAFED97B201882777FD8095982F0E948D
:104E0000B735AB01BC011F929AE09F931AE0812E47
:104E1000912CA12CB12C0CE5C02E0FE8D02E02E86D
:104E2000E02E0FE3F02EED960CAD1DAD2EAD3FAD97
:104E3000ED97C3010E94A51DE5E64E0E511CFFEF44
:104E40002F1A3F0A0F900F9088ED481689E05806F8
:104E500009F0B9CF212C312C910143E050E060E002
:104E600070E0C3010E945B1DB2016456710988277E
:104E700077FD8095982F0E94B735ED966CAF7DAF8A
:104E80008EAF9FAFED97B201882777FD8095982F61
:104E90000E94B735AB01BC011F929AE09F93AAE034
:104EA0008A2E912CA12CB12CBCE5CB2EBFE8DB2E99
:104EB000B2E8EB2EBFE3FB2EED960CAD1DAD2EAD93
:104EC0003FADED97C3010E94A51DE5E64E1A5108BE
:104ED000FFEF2F1A3F0A0F900F9086EE481685E0DD
:104EE000580609F0B9CF212C312C910143E050E054
:104EF00060E070E0C3010E945B1DB201645671095D
:104F0000882777FD8095982F0E94B735ED966CAF76
:104F10007DAF8EAF9FAFED97B201882777FD80956B
:104F2000982F0E94B735AB01BC011F929AE09F9366
:104F3000EAE08E2E912CA12CB12CFCE5CF2EFFE8BF
:104F4000DF2EF2E8EF2EFFE3FF2EED960CAD1DAD48
:104F50002EAD3FADED97C3010E94A51DE5E64E1AAB
:104F60005108FFEF2F1A3F0A0F900F9084EF481659
:104F700081E0580609F0B9CFEF96EEADFFADEF979F
:104F80003197EF96FFAFEEAFEF97EF2B09F0CCCE56
:104F9000C3010E948F1264E670E080E090E00E94FE
:104FA0000532BEC04FE050E060E070E0C3010E94F7
:104FB000D71C90E4C92E96E0D92E2AE5422E512C1A
:104FC000CE0101961C013AE5A32EB12C44EB842EB0
:104FD000912CF10188E011928A95E9F7BA82A982B1
:104FE000BC82AB825E824D82C40184199509988788
:104FF0008F83A1016AE070E0C3010E94D013B60163
:10500000882777FD8095982F0E94B735AB01BC01AA
:10501000EE24E394F12C0FE010E020E030E0C30137
:105020000E94721D9FEF491A590AE4E1CE0ED11C6D
:10503000F6E94F16510469F64EE050E060E070E08A
:10504000C3010E94D71CA0EFAA2EAAE0BA2EB6E98F
:10505000CB2ED12C1AE5412E512C04EB802E912C15
:10506000F10188E011928A95E9F75A8249825C82BF
:105070004B82DE82CD82C4018C199D0998878F8373
:10508000A1016AE070E0C3010E94D013B501882736
:1050900077FD8095982F0E94B735AB01BC01EE24B7
:1050A000E394F12C0FE010E020E030E0C3010E9417
:1050B000721D91E0C91AD108E4E1AE0EB11CFAE507
:1050C000CF16D10469F64BE050E060E070E0C30118
:1050D0000E94D71C04E110E024EF31E040E050E0F2
:1050E00060E87FE3C3010E9465196CE070E0C301D2
:1050F0000E943F1E4CE050E060E070E0C3010E945F
:10510000D71C24EF31E040E050E060E87FE3C301CA
:105110000E946519C3010E943916C3010E948F12B3
:105120004BE050E060E070E0C3010E94D71C81C0FA
:1051300047E150E060E070E0C3010E94D71CAE017F
:105140004F5D5F4F6CE271E0C3010E94D013EE240B
:10515000E394F12C08EC10E020E030E040E050E077
:1051600061E674E4C3010E94721D48E150E060E012
:1051700070E0C3010E94D71CAE01475E5F4F6CE236
:1051800071E0C3010E94D01308EC10E020E030E091
:1051900040E050E066E174E4C3010E94721D44E106
:1051A00050E060E070E0C3010E94D71CAE014F5E8A
:1051B0005F4F6CE271E0C3010E94D01308EC10E075
:1051C00020E030E040E050E066E973E4C3010E9473
:1051D000721DAE01475F5F4F6CE271E0C3010E9438
:1051E000D0134AE150E060E070E0C3010E94D71C98
:1051F000C3010E94891308E918E020E030E040E094
:1052000050E066E173E4C3010E94721D68E572E03C
:1052100080E090E00E940532C3010E948F124BE0B3
:1052200050E060E070E0C3010E94D71CC3010E94FF
:105230003916CE57DF4F0FB6F894DEBF0FBECDBF85
:10524000DF91CF911F910F91FF90EF90DF90CF9062
:10525000BF90AF909F908F907F906F905F904F9096
:105260003F902F90089521E030E0FC01E20FF31F02
:1052700010822F5F3F4F24323105B9F7FC0115A290
:1052800014A2089520E230E0FC0137A326A32DE00C
:1052900020A716A615A60C943329AC01455D5F4FD7
:1052A000BC016A5D7F4F80E090E00C94A239FF92D0
:1052B0000F931F93CF93DF93EC018A012DA53EA599
:1052C0002E30310504F585E2F82EF29EC001F39EE2
:1052D000900D11248F9643E250E08C0F9D1F0E9489
:1052E00093392DA53EA5F29EC001F39E900D112489
:1052F0008C0F9D1FFC01EE5AFF4F118300832F5F1F
:105300003F4F3EA72DA7DF91CF911F910F91FF90A7
:1053100008958B5C9D4FFC017183608308952F92EB
:105320003F924F925F926F927F928F929F92AF9235
:10533000BF92CF92DF92EF92FF920F931F93CF9382
:10534000DF9300D000D0CDB7DEB79C838B8311E014
:105350005C012BE2A20EB11C1C0136E2230E311CB3
:105360002C018FEF481A580ACB80DC809FE2C90ECF
:10537000D11C2B813C812B5C3D4F3A83298387E1F3
:1053800097E00E94552A181619060CF077C01123D1
:1053900009F474C087E197E00E946E2AEB81FC81DA
:1053A000808390A5891344C0AB81BC8195961C92E3
:1053B0001E929497A501B101C2010E94A2393C013D
:1053C000EB81FC8192A781A7009709F457C085A4BF
:1053D00096A4760100E010E008151905FCF443E2FC
:1053E00050E0B701C3010E948539F5E2EF0EF11CD0
:1053F000892B89F425E2209FC001219F900D112463
:105400002B813C81820F931FFC01EE5AFF4F0190CC
:10541000F081E02D07C00F5F1F4FDECFA981BA8159
:10542000ED91FC9109958B819C810E94332910E0BC
:10543000AB81BC810C91802F992787FD90950E94AC
:105440007739892B09F49BCFEB81FC8124A135A10D
:10545000C901019695A384A3E20FF31F0183EB8199
:10546000FC81E80FF91F118283970CF488CFAB8180
:10547000BC8195961C921E92949781CF0F900F90AD
:105480000F900F90DF91CF911F910F91FF90EF90B0
:10549000DF90CF90BF90AF909F908F907F906F9054
:1054A0005F904F903F902F900895FC01818D228D49
:1054B00090E0805C9F4F821B91098F73992708951C
:1054C000FC01918D828D981731F0828DE80FF11DCE
:1054D000858D90E008958FEF9FEF0895FC01918DE9
:1054E000828D981761F0828DDF01A80FB11D5D9646
:1054F0008C91928D9F5F9F73928F90E008958FEFB4
:105500009FEF089582EF9BE2892B49F080E090E0C5
:10551000892B29F00E94F22B81110C940000089530
:10552000FC01848DDF01A80FB11DA35ABF4F2C9140
:10553000848D90E001968F739927848FA689B7890F
:105540002C93A089B1898C9180648C93938D848DE8
:10555000981306C00288F389E02D80818F7D8083B7
:105560000895CF93DF93EC01888D8823C9F0EA89F1
:10557000FB89808185FD05C0A889B9898C9186FD4C
:105580000FC00FB607FCF5CF808185FFF2CFA88949
:10559000B9898C9185FFEDCFCE010E94902AE7CF8B
:1055A000DF91CF910895CF92DF92FF920F931F93D7
:1055B000CF93DF931F92CDB7DEB76C0181E0D601A8
:1055C00058968C9358975B969C915B975C968C91C0
:1055D0005C97981307C05096ED91FC91519780818C
:1055E00085FD2EC0F601038D10E00F5F1F4F0F7376
:1055F0001127F02EF601848DF81211C00FB607FCAA
:10560000F9CFD6015096ED91FC915197808185FF9D
:10561000F1CFC60169830E94902A6981EBCF838D07
:10562000E80FF11DE35AFF4F6083D6015B960C93A0
:105630005B975296ED91FC915397808180620CC0EC
:10564000D6015696ED91FC91579760835096ED9157
:10565000FC91519780818064808381E090E00F907D
:10566000DF91CF911F910F91FF90DF90CF90089520
:10567000BF92CF92DF92EF92FF92CF93DF93EC0134
:105680006A017B01B22EE889F98982E080834115A5
:1056900081EE580761057105A1F060E079E08DE3C6
:1056A00090E0A70196010E948537215031094109F8
:1056B00051095695479537952795211580E138076B
:1056C00098F0E889F989108260E874E88EE190E04A
:1056D000A70196010E9485372150310941095109DE
:1056E0005695479537952795EC85FD853083EE8552
:1056F000FF852083188EEC89FD89B082EA89FB89B9
:10570000808180618083EA89FB89808188608083D1
:10571000EA89FB89808180688083EA89FB898081AE
:105720008F7D8083DF91CF91FF90EF90DF90CF90BE
:10573000BF9008951F920F920FB60F9211242F93CE
:105740008F939F93EF93FF93E0912707F0912807A2
:105750008081E0912D07F0912E0782FD12C090818B
:10576000809130078F5F8F7320913107821751F03E
:10577000E0913007F0E0E95EF84F958F80933007B5
:1057800001C08081FF91EF919F918F912F910F9098
:105790000FBE0F901F9018951F920F920FB60F9289
:1057A00011242F933F934F935F936F937F938F9326
:1057B0009F93AF93BF93EF93FF9387E197E00E948E
:1057C000902AFF91EF91BF91AF919F918F917F911F
:1057D0006F915F914F913F912F910F900FBE0F905E
:1057E0001F90189587E197E00E94552A21E0892BA8
:1057F00009F420E0822F089510921A0710921907D9
:1058000088EE93E0A0E0B0E080931B0790931C0724
:10581000A0931D07B0931E0780E793E090931807AD
:105820008093170785EC90E09093240780932307DB
:1058300084EC90E0909326078093250780EC90E01D
:10584000909328078093270781EC90E090932A0794
:105850008093290782EC90E090932C0780932B078C
:1058600086EC90E090932E0780932D0710923007DE
:105870001092310710923207109233070895CF9299
:10588000DF92EF92FF920F931F93CF93DF937C01F0
:105890006A01EB0100E010E00C151D0571F0699143
:1058A000D701ED91FC910190F081E02DC7010995A0
:1058B000892B19F00F5F1F4FEFCFC801DF91CF91F8
:1058C0001F910F91FF90EF90DF90CF900895611599
:1058D000710581F0DB010D900020E9F7AD01415029
:1058E0005109461B570BDC01ED91FC910280F381BD
:1058F000E02D099480E090E00895EF92FF920F93DD
:105900001F93CF93DF938C017B01C0E0D0E0F701C0
:10591000EC0FFD1F6491662359F0F801A081B1815D
:10592000ED91FC91C8010995892B11F02196EFCFDB
:10593000CE01DF91CF911F910F91FF90EF900895CD
:105940000C94672CDC01ED91FC910190F081E02D2D
:1059500009946CE773E00C94672C0F931F93CF931B
:10596000DF93EC010E947D2C8C01CE010E94A92CBA
:10597000800F911FDF91CF911F910F9108958F920A
:105980009F92AF92BF92DF92EF92FF920F931F937D
:10599000CF93DF93CDB7DEB7A1970FB6F894DEBFF4
:1059A0000FBECDBF7C01F42FD52ECB0119A2223022
:1059B00008F42AE08E010F5D1F4F822E912CA12C3E
:1059C000B12C6F2F7D2DA50194010E948537F22FF8
:1059D000D32ECA01015011096A3014F4E0E301C06A
:1059E000E7E3E60FD801EC93232B242B252B49F773
:1059F000B801C7010E94672CA1960FB6F894DEBFCC
:105A00000FBECDBFDF91CF911F910F91FF90EF900F
:105A1000DF90BF90AF909F908F900895CF92DF92CC
:105A2000EF92FF920F931F93CF93DF93EC016A01E4
:105A30007B012115310579F4E881F9810190F0812C
:105A4000E02D642FDF91CF911F910F91FF90EF9088
:105A5000DF90CF9009942A303105E9F477FF1AC01E
:105A60006DE20E94A22C8C0144275527BA014C19E3
:105A70005D096E097F092AE0CE010E94BF2C800FCC
:105A8000911FDF91CF911F910F91FF90EF90DF90C9
:105A9000CF9008952AE0B701A601CE01DF91CF9102
:105AA0001F910F91FF90EF90DF90CF900C94BF2C3F
:105AB0009A01AB01662757FD6095762F0C940E2D49
:105AC0004F925F926F927F928F929F92AF92BF920E
:105AD000CF92DF92EF92FF920F931F93CF93DF93BA
