:100000000C94F0000C9410030C9437030C945E03D2
:100010000C94C1030C9424040C9418010C9420300B
:100020000C9418010C9418010C9418010C948B0E6C
:100030000C9418010C9418010C9418010C941801DC
:100040000C94DB300C9418010C94172B0C94492B56
:100050000C9418010C9418010C9418010C941801BC
:100060000C9418010C941801270B2C0B330B420B2A
:10007000490B580B690B750B890B9A0BA60BBA0B26
:10008000C70BD30BE70BF80BFF0B0C0C130C200C5E
:10009000310C830D860D890D8C0D8F0D920D950DF4
:1000A000980D9B0D9E0DA10DA40DA70DDB0DDE0D72
:1000B000E10DE40DE70DEA0DED0DF00DF30DF60D7C
:1000C000F90DFC0DFF0D020E050E080E0B0E0E0EA7
:1000D000110ED31DFA1D241E5D1E761E8F1EB51E29
:1000E000E91E221F5B1F8F1FBC1FE61F1720472022
:1000F0006020B220CB20E920DB2103223E22D02247
:100100007D23FA230F243224E424D421CD214F2748
:10011000152805A84CCDB2D44EB93836A9020C50DA
:10012000B9918688083CA6AAAA2ABE000000803F92
:10013000252500460026260025250041002626000C
:1001400025250049200026260025250042200026DE
:1001500026002525004E20002626002525004420C7
:100160000026260025250045200026260000010245
:10017000030405060700010203040500010203044D
:10018000050200000008000201000003040700004F
:10019000000000000000010204081020408001025D
:1001A00004081020010204081020040404040404BC
:1001B0000404020202020202030303030303000019
:1001C0000000230026002900000000002500280070
:1001D0002B0000000000240027002A003206792BA3
:1001E00011241FBECFEFD8E0DEBFCDBF13E0A0E0EB
:1001F000B1E0E0E0F4E702C005900D92AE39B1073E
:10020000D9F728E0AEE9B3E001C01D92A133B207EF
:10021000E1F711E0C0EED1E004C02297FE010E9498
:10022000D437CC3DD107C9F70E94CC300C94FE39AD
:100230000C940000CF92DF92EF92FF920F931F93E6
:10024000E82FF92F05C0015011092109310961F189
:10025000908196239417B9F305C001501109210923
:10026000310911F1908196239413F7CFC12CD12C31
:10027000E12CF12C0AC08FEFC81AD80AE80AF80A54
:100280000C151D052E053F0579F080818623841706
:1002900091F36C2D7D2D8E2D9F2D1F910F91FF9031
:1002A000EF90DF90CF90089560E070E080E090E004
:1002B0001F910F91FF90EF90DF90CF90089581E014
:1002C0008093A2039091A40391110BC08093A40387
:1002D00021E04FE050E060E070E089EA93E00C94A8
:1002E000E81C089564E684E797E00E943C2C81E0D6
:1002F0008093A3039091A40391110BC08093A40356
:1003000021E04FE050E060E070E089EA93E00C9477
:10031000E81C0895EF92FF920F931F93CF93DF9302
:100320001F92CDB7DEB77C01FC0100811181C801AD
:1003300069830E94DD396981681719F0C8010E943C
:10034000E539C7010F90DF91CF911F910F91FF9079
:10035000EF9008950F931F93CF93DF9300D0CDB705
:10036000DEB78B01FB0160819A838983CE01019600
:100370000E948A01C8010F900F90DF91CF911F91C9
:100380000F910895A82FAF7787FD05C08EEF8A0FD4
:10039000823008F499C0B0E0FD01EA56FE4F249186
:1003A000FD01E655FE4F8491942F9D7F9130B9F465
:1003B000823031F490913B07922B90933B070FC012
:1003C000833031F490912C07922B90932C0707C027
:1003D000843029F490911907922B9093190741507A
:1003E0004230B8F4823031F490913A07922B9093D6
:1003F0003A070FC0833031F490912B07922B9093E2
:100400002B0707C0843029F490911807922B909302
:100410001807FD01E359FE4FA4918230C1F4B0E00A
:10042000AA0FBB1FA45CB84F6D937C93E2ECF1E084
:10043000A591B4918C91809339078BE690E09093CD
:100440004D0780934C0780916800816033C08330F2
:10045000C1F4B0E0AA0FBB1FA35DB84F6D937C93AE
:10046000E4ECF1E0A591B4918C9180932A078CE69D
:1004700090E090934D0780934C07809168008260D4
:1004800019C08430C9F4B0E0AA0FBB1FA65EB84FF4
:100490006D937C93E6ECF1E0A591B4918C918093FF
:1004A00017078DE690E090934D0780934C0780915D
:1004B0006800846080936800A0914C07B0914D075C
:1004C0008C91822B8C9316C09FB7F894A230B1F414
:1004D0007093490760934807E898809169008C7F82
:1004E0008093690080916900842B80936900E09A71
:1004F000E89A9FBF8FB780688FBF089570934B07AE
:1005000060934A07E99880916900837F809369002E
:100510008091690024E0429FA0011124842B8093E4
:100520006900E19AE99AE5CF3FB7F894982F9F7751
:1005300087FD05C08EEF890F823008F45EC0892FD9
:1005400090E0FC01EA56FE4F2491FC01E655FE4F77
:1005500084918230D1F480916B0020958223809326
:100560006B0080916B00811105C0809168008E7FC7
:100570008093680080913B07822380933B078091A2
:100580003A07822380933A0741C08330D1F48091A7
:100590006C002095822380936C0080916C00811107
:1005A00005C0809168008D7F8093680080912C0742
:1005B000822380932C0780912B07822380932B0723
:1005C00025C0843019F580916D0020958223809399
:1005D0006D0080916D00811105C0809168008B7F56
:1005E0008093680080911907822380931907809176
:1005F000180782238093180709C0923049F4E898BD
:10060000809169008C7F80936900E09A3FBF0895D4
:10061000E99880916900837F80936900E19AF6CF21
:100620001F920F920FB60F9211242F933F934F9367
:100630005F936F937F938F939F93AF93BF93EF934A
:10064000FF93E0914807F09149070995FF91EF91D9
:10065000BF91AF919F918F917F916F915F914F91DA
:100660003F912F910F900FBE0F901F9018951F92E2
:100670000F920FB60F9211242F933F934F935F93D6
:100680006F937F938F939F93AF93BF93EF93FF935A
:10069000E0914A07F0914B070995FF91EF91BF91C7
:1006A000AF919F918F917F916F915F914F913F910A
:1006B0002F910F900FBE0F901F9018951F920F92C1
:1006C0000FB60F9211242F933F934F935F936F9325
:1006D0007F938F939F93AF93BF93CF93EF93FF93AA
:1006E00093B1C091390720913B0730913A07892F88
:1006F000809583232923822B20916B00C927C22355
:10070000C82390933907CC2351F1C0FF05C0E09175
:100710003C07F0913D070995C1FF05C0E0913E07F8
:10072000F0913F070995C2FF05C0E0914007F091A5
:1007300041070995C3FF05C0E0914207F0914307C7
:100740000995C4FF05C0E0914407F091450709955C
:10075000C5FF05C0E0914607F09147070995FF9155
:10076000EF91CF91BF91AF919F918F917F916F91B9
:100770005F914F913F912F910F900FBE0F901F905F
:1007800018951F920F920FB60F9211242F933F933B
:100790004F935F936F937F938F939F93AF93BF9389
:1007A000CF93EF93FF9396B1C0912A0720912C0726
:1007B00030912B07892F809583232923822B209129
:1007C0006C00C927C223C82390932A07CC2351F178
:1007D000C0FF05C0E0912D07F0912E070995C1FFDC
:1007E00005C0E0912F07F09130070995C2FF05C0C1
:1007F000E0913107F09132070995C3FF05C0E09100
:100800003307F09134070995C4FF05C0E09135071F
:10081000F09136070995C5FF05C0E0913707F091C3
:1008200038070995FF91EF91CF91BF91AF919F91BB
:100830008F917F916F915F914F913F912F910F9089
:100840000FBE0F901F9018951F920F920FB60F9228
:1008500011242F933F934F935F936F937F938F93C5
:100860009F93AF93BF93CF93EF93FF9399B1C091B1
:1008700017072091190730911807892F8095832336
:100880002923822B20916D00C927C223C82390936E
:100890001707CC23C1F1C0FF05C0E0911A07F09102
:1008A0001B070995C1FF05C0E0911C07F0911D07CA
:1008B0000995C2FF05C0E0911E07F0911F07099539
:1008C000C3FF05C0E0912007F09121070995C4FFFF
:1008D00005C0E0912207F09123070995C5FF05C0E7
:1008E000E0912407F09125070995C6FF05C0E09126
:1008F0002607F09127070995C7FF05C0E091280753
:10090000F09129070995FF91EF91CF91BF91AF9198
:100910009F918F917F916F915F914F913F912F9117
:100920000F900FBE0F901F9018958F929F92AF92CD
:10093000BF92CF92DF92EF92FF920F931F93CF93CC
:1009400089EA93E00E94F01B20E030E044E352E4A7
:100950000E94243587FF54C0C3E08091A403811115
:100960004FC021E04CE150E060E070E089EA93E0A4
:100970000E94E81C1F92CF9348E0842E912CA12C5A
:10098000B12C58EBC52E5EE1D52E55E8E52E5FE380
:10099000F52E00E010E02AEF34E440E050E06CE592
:1009A00074E489EA93E00E94221D6EE170E080E029
:1009B00090E00E9454311F92CF936CE5C62E6FE8F1
:1009C000D62E62E8E62E6FE3F62E00E010E02CE56E
:1009D00034E440E050E06AEF74E489EA93E00E9476
:1009E000221D89EA93E00E94ED1C64EF71E080E033
:1009F00090E00E9454310F900F900F900F90ADCF68
:100A0000CF911F910F91FF90EF90DF90CF90BF900B
:100A1000AF909F908F9008954F925F926F927F92C8
:100A20008F929F92AF92BF92CF92DF92EF92FF92FE
:100A30000F931F93CF93DF93CDB7DEB728970FB6F1
:100A4000F894DEBF0FBECDBF88E0EAE0F1E0DE0142
:100A5000119601900D928A95E1F78091A40381117E
:100A600009C0AE014F5F5F4F6CEB72E089EA93E023
:100A70000E94A012F4E06F2E712CAAE05A2E44249A
:100A800043948091A4038823A1F08091A403811151
:100A9000C1C021E043E150E060E070E089EA93E00A
:100AA0000E94E81C69E070E089EA93E00E94BC1DA6
:100AB000B1C020E030E041E050E060E070E089EA61
:100AC00093E00E94D81C1F925F927AE0872E912CAF
:100AD000A12CB12CE8EBCE2EEEE1DE2EE5E8EE2ED9
:100AE000EFE3FE2E00E010E028E433E440E050E0C5
:100AF00068EC72E489EA93E00E94221D8091A403CD
:100B00000F900F908111C1CF21E030E041E050E023
:100B100060E070E089EA93E00E94D81C1F925F9227
:100B200000E010E026E933E440E050E068E473E4DC
:100B300089EA93E00E94221D8091A4030F900F90F8
:100B40008111A3CF22E030E041E050E060E070E0AE
:100B500089EA93E00E94D81C1F925F9200E010E0A7
:100B60002AEF33E440E050E066E973E489EA93E079
:100B70000E94221D64EF71E080E090E00E945431F9
:100B80008091A4030F900F9081117FCF21E030E07E
:100B900041E050E060E070E089EA93E00E94D81CF8
:100BA0001F924F9200E010E02AE733E440E050E06B
:100BB00068EC73E489EA93E00E94221D8091A4030B
:100BC0000F900F90811161CF20E030E041E050E0C4
:100BD00060E070E089EA93E00E94D81C1F924F9277
:100BE00000E010E028EC32E440E050E06AE773E413
:100BF00089EA93E00E94221D64EF71E080E090E0BA
:100C00000E94543181E0681A71080F900F9009F02A
:100C100038CF3BCF89EA93E00E940E158091A40360
:100C2000811109C021E04BE050E060E070E089EA0A
:100C300093E00E94E81C28960FB6F894DEBF0FBE22
:100C4000CDBFDF91CF911F910F91FF90EF90DF907B
:100C5000CF90BF90AF909F908F907F906F905F905C
:100C60004F900895CF93DF938EED94E00E94BF28BC
:100C70002CE04DE06BE089EA93E00E94311180EBBB
:100C800093E00E949C10C1EBD3E0CE010E94470F7D
:100C9000188A1F86ED9684E0C53AD807B1F785EA31
:100CA00094E0DF91CF910C946611CF92DF92EF9296
:100CB000FF920F931F93CF93DF93CDB7DEB72B97A0
:100CC0000FB6F894DEBF0FBECDBF89EA93E00E9455
:100CD0000E1519821A821B821C82FE01359687E04E
:100CE000DF011D928A95E9F78E010F5F1F4FB5E076
:100CF000EB2EF12C6801C7010E94DD39F8018193C8
:100D00008F01FFEFEF1AFF0A80E1E816F10499F76F
:100D10006AE671E084E797E00E94FA2B67E671E0EB
:100D200084E797E00E94FA2BB60184E797E00E94DF
:100D30001D2C64E671E084E797E00E942A2C84E78A
:100D400097E00E942E2A2B960FB6F894DEBF0FBEB6
:100D5000CDBFDF91CF911F910F91FF90EF90DF906A
:100D6000CF900895CF92DF92EF92FF9289EA93E0BD
:100D70000E940E1589EA93E00E94C31B6B017C015F
:100D800061E671E084E797E00E94FA2B6EE571E07E
:100D900084E797E00E94FA2BC701B6010E949035C4
:100DA0004AE050E084E797E00E94E72C6BE571E0B1
:100DB00084E797E00E942A2C84E797E0FF90EF9069
:100DC000DF90CF900C942E2ACF93DF9389EA93E0A3
:100DD0000E940E1589EA93E00E94C71BEC0168E5AA
:100DE00071E084E797E00E94FA2B65E571E084E703
:100DF00097E00E94FA2B4AE050E0BE0184E797E0BA
:100E00000E94E72C62E571E084E797E00E942A2CBB
:100E100084E797E0DF91CF910C942E2ACF92DF9256
:100E2000EF92FF9289EA93E00E940E1589EA93E01F
:100E30000E94F01B6B017C016FE471E084E797E096
:100E40000E94FA2B6CE471E084E797E00E94FA2B91
:100E500022E030E0B701A60184E797E00E94DA2D96
:100E600069E471E084E797E00E942A2C84E797E028
:100E7000FF90EF90DF90CF900C942E2A89EA93E0B8
:100E80000E940E1566E471E084E797E00E94FA2B59
:100E900063E471E084E797E00E94FA2B6FE673E069
:100EA00084E797E00E941D2C60E471E084E797E0FE
:100EB0000E942A2C84E797E00C942E2A8F929F920E
:100EC000AF92BF92CF92DF92EF92FF920F931F9358
:100ED000CF93DF931F92CDB7DEB726E040E052EC10
:100EE00061E070E084E797E00E94B52A60E086E068
:100EF0000E941A3260E087E00E941A321F9289E055
:100F00008F9308E0802E912C8AE0A82EB12C94E1DA
:100F1000C92ED12CEE24E39405E010E024E030E06B
:100F200043E050E062E070E089EA93E00E94DD1166
:100F300084E10E94D431BC01882777FD8095982FE9
:100F40000E947C3043E062E771E086E00E94C201CB
:100F500043E06FE571E087E00E94C20148E959E093
:100F600062E573E08EED94E00E94D42840EA59E0F7
:100F700064E573E08EED94E00E94D4284AED59E0D8
:100F800066E573E08EED94E00E94D4284CE259E0CF
:100F900068E573E08EED94E00E94D42847E55DE0BB
:100FA0006AE573E08EED94E00E94D4284FEA5DE09C
:100FB0006CE573E08EED94E00E94D42847E35AE09C
:100FC0006EE573E08EED94E00E94D4284BE95AE080
:100FD00060E673E08EED94E00E94D42849E15EE083
:100FE00062E673E08EED94E00E94D42845E556E079
:100FF00064E673E08EED94E00E94D42842EB56E064
:1010000066E673E08EED94E00E94D42844EE56E04C
:1010100068E673E08EED94E00E94D4284EE057E03D
:101020006AE673E08EED94E00E94D4284EE357E028
:101030006CE673E08EED94E00E94D42868E979E0D4
:101040008EED94E00E94062960E070E089EA93E06A
:101050000E94BC1D89EA93E00E940E1585E090E095
:101060000E94DD390F900F908432F1F46EE673E048
:1010700085E090E00E94AA011982BE016F5F7F4F58
:1010800086E090E00E94AA0121E04DE150E060E09E
:1010900070E089EA93E00E94E81C68EE73E080E06B
:1010A00090E00E945431F9CF0E94550662E370E04F
:1010B00080E090E00E9454310E943E0762E370E0BD
:1010C00080E090E00E9454310E940E070E94950437
:1010D00012E0E12EF12C00E010E08091A4038823BF
:1010E00029F081E0E81AF108A9F0F5CF980140E075
:1010F00050E0BA0189EA93E00E94D81C66E970E0EA
:1011000080E090E00E9454310F5F1F4F08301105BE
:1011100021F7E7CF8091A403811115C021E04AE0B7
:1011200050E060E070E089EA93E00E94E81C6BE028
:1011300070E089EA93E00E94BC1D68EC70E080E0FA
:1011400090E00E94543185E090E00E94DD398332C6
:1011500009F041C08091A403811110C02CEB32E052
:1011600040E050E060E87FE389EA93E00E94FB15ED
:1011700068EC70E080E090E00E9454318091A4031C
:1011800081110CC0409106015091070121E030E02F
:1011900061E070E089EA93E00E948C178091A403DB
:1011A000811119C021E04FE050E060E070E089EA71
:1011B00093E00E94E81C04E110E020E233E040E00C
:1011C00050E060E070E489EA93E00E94911889EAB7
:1011D00093E00E940E158091A403811109C021E0C3
:1011E0004BE050E060E070E089EA93E00E94E81C88
:1011F0000E94253160939E0370939F038093A00308
:101200009093A1030F90DF91CF911F910F91FF90C9
:10121000EF90DF90CF90BF90AF909F908F90089508
:101220006EE170E080E090E00E9454316DE371E087
:1012300084E797E00E94FA2B6BE371E084E797E084
:101240000E94FA2B68E371E084E797E00E942A2C61
:1012500084E797E00C942E2A0E94100989EA93E013
:101260000E944A15882329F060E089EA93E00E94F1
:101270004F158EED94E00E94CA28009739F00E9425
:1012800063399093A8038093A70317C021E04AE134
:1012900050E060E070E089EA93E00E94E81C60EDB5
:1012A00077E080E090E00E94543189EA93E00E9468
:1012B000ED1C1092A8031092A7038EED94E00E94FB
:1012C000CA28009719F00E94633902C088EE93E0A3
:1012D00090930701809306018EED94E00E94CA2846
:1012E000009719F00E94633902C08FE090E090935C
:1012F00005018093040108956EE170E080E090E0C4
:101300000E94543165E371E084E797E00E94FA2B74
:1013100063E371E084E797E00E94FA2B60E371E0F9
:1013200084E797E00E942A2C84E797E00C942E2A09
:101330000E94100989EA93E00E940E150C947C0922
:10134000CF93DF9300D0CDB7DEB70E94100989EAB2
:1013500093E00E940E158EED94E00E94CA2800973B
:1013600079F042E050E0BE016F5F7F4F0E944F383E
:10137000AB01BC0120E089EA93E00E94E81C13C0A5
:1013800021E04AE150E060E070E089EA93E00E94E9
:10139000E81C60ED77E080E090E00E94543189EA3B
:1013A00093E00E94ED1C0E947C090F900F90DF914A
:1013B000CF9108958F929F92AF92BF92EF92FF923A
:1013C0000F931F93CF93DF930E94100989EA93E054
:1013D0000E940E158EED94E00E94CA28009729F015
:1013E0000E946339EC0110E001C011E08EED94E041
:1013F0000E94CA28009721F00E9463391123A1F0AE
:1014000021E04AE150E060E070E089EA93E00E9468
:10141000E81C60ED77E080E090E00E94543189EABA
:1014200093E00E94ED1C17C04C01AA2497FCA094E5
:10143000BA2CBE01882777FD8095982F0E94C3356E
:10144000AB01BC01EE24E394F12C9501840189EAFF
:1014500093E00E94EF1CDF91CF911F910F91FF90BD
:10146000EF90BF90AF909F908F900C947C09CF929B
:10147000DF92EF92FF920F931F93CF93DF930E941F
:10148000100989EA93E00E940E158EED94E00E9407
:10149000CA28009729F00E946339EC0110E001C0CE
:1014A00011E08EED94E00E94CA28009721F00E947E
:1014B00063397C0101C011E08EED94E00E94CA28DE
:1014C000009721F00E9463396C0101C011E08EED9C
:1014D00094E00E94CA28009721F00E9463391123EA
:1014E000A1F021E04AE150E060E070E089EA93E099
:1014F0000E94E81C60ED77E080E090E00E945431AB
:1015000089EA93E00E94ED1C0CC08C019601A701B2
:10151000BE0189EA93E00E946F1289EA93E00E947B
:101520008112DF91CF911F910F91FF90EF90DF908B
:10153000CF900C947C09BF92CF92DF92EF92FF92F2
:101540000F931F93CF93DF93CDB7DEB728970FB6D6
:10155000F894DEBF0FBECDBF0E9410098EE190E06F
:101560009093A8038093A7038EED94E00E94CA286D
:10157000009729F00E9463396C01B12C02C0BB2492
:10158000B3948EED94E00E94CA28009721F00E9447
:1015900063397C0102C0BB24B3948EED94E00E94B9
:1015A000CA28009721F00E9463398C0102C0BB2435
:1015B000B3948EED94E00E94CA28009721F00E9417
:1015C0006339BB20A1F021E04AE150E060E070E027
:1015D00089EA93E00E94E81C60ED77E080E090E00B
:1015E0000E94543189EA93E00E94ED1C11C0DA8216
:1015F000C982FC82EB821E830D8398878F83AE01A4
:101600004F5F5F4F68EC70E089EA93E00E94A012A0
:101610000E947C0928960FB6F894DEBF0FBECDBF9E
:10162000DF91CF911F910F91FF90EF90DF90CF90BE
:10163000BF900895EF92FF920F931F93853191050C
:1016400008F025C1FC01EC5CFF4F0C94D23789EA0D
:1016500093E00E940E1515C12091060130910701FB
:1016600001E010E006C020910601309107010FEF64
:101670001FEF40E050E060E87FE389EA93E00E94DA
:101680003816FFC0209106013091070101E010E0FB
:1016900006C020910601309107010FEF1FEF40E0D7
:1016A00050E060E87FE389EA93E00E94A816E9C071
:1016B000009104011091050120910601309107016C
:1016C00040E050E060E87FE389EA93E00E94471839
:1016D000D8C00091040110910501209106013091BC
:1016E0000701EE24E394F12C0BC00091040110914A
:1016F00005012091060130910701EE24EA94FE2CA9
:1017000040E050E060E87FE389EA93E00E94C2197C
:10171000B8C000910401109105012091060130919B
:10172000070140E050E060E87FE389EA93E00E942F
:101730009118A7C0009104011091050120910601A4
:1017400030910701EE24E394F12C0BC000910401C9
:10175000109105012091060130910701EE24EA94D1
:10176000FE2C40E050E060E87FE389EA93E00E94CD
:10177000741A87C0209106013091070140E050E0C3
:1017800060E87FE389EA93E00E94FB157AC000914C
:101790000401109105012091060130910701EE240A
:1017A000E394F12C0BC000910401109105012091EC
:1017B000060130910701EE24EA94FE2C40E050E04F
:1017C00060E87FE389EA93E00E94151B5AC000910C
:1017D000040110910501209106013091070140E0BC
:1017E00050E060E87FE389EA93E00E94E21849C094
:1017F000409106015091070121E030E006C0409180
:101800000601509107012FEF3FEF61E070E089EA98
:1018100093E00E94041735C04091060150910701E2
:1018200021E030E006C040910601509107012FEF02
:101830003FEF61E070E089EA93E00E948C1721C0DD
:1018400000910401109105012091060130910701DA
:1018500040E050E060E87FE389EA93E00E942819C5
:1018600010C00091040110910501209106013091F2
:10187000070140E050E060E87FE389EA93E00E94DE
:1018800070191F910F91FF90EF900C947C091F919C
:101890000F91FF90EF9008950F931F9384E797E0C7
:1018A0000E94D229181619063CF48091A503909144
:1018B000A603049709F092C08091A403882369F1DC
:1018C00062E684E797E00E943C2C89EA93E00E945C
:1018D0000E1564E670E080E090E00E94543162E012
:1018E00070E089EA93E00E94BC1D68EC70E080E043
:1018F00090E00E9454318091A303882309F486C0AC
:101900008091A203811182C081E090E09093A603B0
:101910008093A50363E070E0C2C08091A50390911D
:10192000A60382309105D1F18CF40097B1F00197B4
:1019300009F04DC089EA93E00E94541560EA7FE007
:1019400080E090E01F910F910C9454318330910509
:1019500009F4AAC0049749F13AC00E9425310091C8
:101960009E0310919F032091A0033091A103601B5F
:10197000710B820B930B603878438140910508F41A
:1019800093C00E940C050E94253160939E037093C2
:101990009F038093A0039093A10386C01092A40399
:1019A0001092A3031092A20312C08EED94E00E9445
:1019B0000C2989EA93E00E944A15811175C0809133
:1019C000A7039091A8031F910F910C941A0B84E028
:1019D00090E09093A6038093A50366C084E090E016
:1019E0009093A6038093A50321E04BE050E060E0D4
:1019F00070E089EA93E00E94E81C86E00E9494026D
:101A000087E00E9494021092A40356CF8091A30312
:101A100081110DC08091A203882349F082E090E0FB
:101A20009093A6038093A50364E070E038C0809192
:101A3000A303882321F08091A203811128C0409143
:101A4000A5035091A603662757FD6095762F21E0E8
:101A500089EA93E00E94E81C08EC10E06AE070E07C
:101A600080E090E00E94543101501109B9F721E063
:101A70004BE050E060E070E089EA93E00E94E81CEF
:101A80001092A4031092A3031092A2030DC083E04E
:101A900090E09093A6038093A50365E070E089EA47
:101AA00093E00E94BC1DCBCF1F910F9108950E941F
:101AB000100989EA93E00E940E158EED94E00E94D1
:101AC000CA28009761F00E94633901978D30910513
:101AD00008F043C0875B9F4FFC010C94D23721E094
:101AE0004AE150E060E070E089EA93E00E94E81C7F
:101AF00060ED77E080E090E00E94543189EA93E065
:101B00000E94ED1C2AC060E070E023C061E070E03C
:101B100020C062E070E01DC063E070E01AC064E0C5
:101B200070E017C065E070E014C066E070E011C0BE
:101B300067E070E00EC068E070E00BC069E070E044
:101B400008C06AE070E005C06BE070E002C06CE0C5
:101B500070E089EA93E00E9423210C947C090E94A2
:101B6000100989EA93E00E940E158EED94E00E9420
:101B7000CA28009761F00E9463390197833191056B
:101B800008F055C08A5A9F4FFC010C94D23721E0CF
:101B90004AE150E060E070E089EA93E00E94E81CCE
:101BA00060ED77E080E090E00E94543189EA93E0B4
:101BB0000E94ED1C3CC060E070E035C061E070E068
:101BC00032C066E070E02FC067E070E02CC068E0D3
:101BD00070E029C069E070E026C06AE070E023C0D0
:101BE0006BE070E020C06CE070E01DC06DE070E064
:101BF0001AC06EE070E017C06FE070E014C060E1E2
:101C000070E011C061E170E00EC062E170E00BC0F5
:101C100063E070E008C064E070E005C065E070E07B
:101C200002C062E070E089EA93E00E94BC1D0C945F
:101C30007C09CF92DF92EF92FF920F931F93CF9385
:101C4000DF93CDB7DEB72D970FB6F894DEBF0FBE8A
:101C5000CDBF0E94100989EA93E00E940E151982F7
:101C60001A821B821C82FE01359687E0DF011D92DD
:101C70008A95E9F78EED94E00E94CA28009739F121
:101C8000DC01FE0131969E2F2F2F6E018CE0C80ED5
:101C9000D11C8D91811106C0092F122FA5E0EA2ECB
:101CA000F12C05C0EC15FD05B9F38193F2CFD801F5
:101CB0006D918D01FD86EC86C6010E948A01BFEF01
:101CC000EB1AFB0AE0E1EE16F10489F713C021E0FC
:101CD0004AE150E060E070E089EA93E00E94E81C8D
:101CE00060ED77E080E090E00E94543189EA93E073
:101CF0000E94ED1C0E947C092D960FB6F894DEBF61
:101D00000FBECDBFDF91CF911F910F91FF90EF904C
:101D1000DF90CF9008951F920F920FB60F9211246B
:101D20002F933F934F935F936F937F938F939F93E3
:101D3000AF93BF93EF93FF9380914F0787FF05C049
:101D400010928500109284001AC020914F0733270B
:101D500027FD309580914E0790E0281739077CF4D5
:101D600080914F07992787FD9095FC01EE0FFF1F8B
:101D7000E80FF91FE05BF84F808186FD15C0809168
:101D80004F078F5F80934F0720914F07332727FD21
:101D9000309580914E0790E028173907BCF4809168
:101DA0004F078C305CF112C080914F07992787FD57
:101DB0009095FC01EE0FFF1FE80FF91FE05BF84F55
:101DC000808160E08F730E945332D9CF809184006C
:101DD00090918500049680349C4918F480E49CE935
:101DE00005C08091840090918500049690938900AD
:101DF000809388008FEF80934F0738C02091840034
:101E00003091850080914F07992787FD9095FC01BF
:101E1000EE0FFF1FE80FF91FE05BF84F8181928101
:101E2000820F931F909389008093880080914F07C1
:101E3000992787FD9095FC01EE0FFF1FE80FF91F12
:101E4000E05BF84F808186FF11C080914F07992792
:101E500087FD9095FC01EE0FFF1FE80FF91FE05B77
:101E6000F84F808161E08F730E945332FF91EF91B0
:101E7000BF91AF919F918F917F916F915F914F91A2
:101E80003F912F910F900FBE0F901F9018952091AA
:101E90004E072C30A0F431E0320F30934E07FC0196
:101EA0002083822F90E0FC01EE0FFF1FE80FF91F47
:101EB000E05BF84F88EB9BE09283818308952FEFDE
:101EC000FC0120830895DF92EF92FF920F931F93FE
:101ED000CF93DF93EC01D62E7A01890188818C3073
:101EE00008F066C061E08D2D0E941A328881A82F0B
:101EF000B0E0FD01EE0FFF1FEA0FFB1FE05BF84FA4
:101F00002D2D2F739081907C922B908360E272E054
:101F10006E197F0977FF02C06D5F7F4F75956795DA
:101F200075956795698340E659E0401B510B57FF53
:101F300002C04D5F5F4F55954795559547954A832C
:101F40006CE00E9471379CE0899FB001112420E071
:101F500030E0A901460F571FFA01EE0FFF1FE40FF3
:101F6000F51FE05BF84F908196FD16C02F5F3F4F45
:101F70002C30310571F781110FC01092800082E082
:101F8000809381001092850010928400B19A809114
:101F90006F00826080936F00888190E0FC01EE0FFB
:101FA000FF1FE80FF91FE05BF84F8081806480839A
:101FB0008881DF91CF911F910F91FF90EF90DF907B
:101FC000089520E639E040E252E00C94630FFC01F2
:101FD000808190E0FC01EE0FFF1FE80FF91FE05B2E
:101FE000F84F80818F7B80830895FC0180818C3045
:101FF00070F5918128E830E0291B310997FD339570
:10200000220F331F220F331F621773077CF0928158
:1020100028E532E0291B310997FD3395220F331F44
:10202000220F331F621773070CF49B0122503109F2
:10203000220F331F4FB7F89490E0FC01EE0FFF1F03
:10204000E80FF91FE05BF84F328321834FBF0895FB
:102050004F925F926F927F92AF92BF92CF92DF9238
:10206000EF92FF920F931F93CF93DF93EC016032B7
:1020700082E078070CF040C077FD06C0653B710533
:102080002CF064EB70E002C060E070E0898128E829
:1020900030E0281B310987FD3395220F331F220FB3
:1020A000331F5901CC24B7FCC094DC2C882777FD62
:1020B0008095982F2A8148E552E0421B510927FD5F
:1020C0005395440F551F440F551F2A01662457FC92
:1020D0006094762C7F926F925F924F9214EBE12E78
:1020E000F12C00E010E020E030E0A9010E948430F3
:1020F0000F900F900F900F90CE01DF91CF911F9115
:102100000F91FF90EF90DF90CF90BF90AF907F90B6
:102110006F905F904F900C94F50FFC01808190E0E0
:10212000FC01EE0FFF1FE80FF91FE05BF84F808105
:1021300086FB882780F9089508950F931F93CF9306
:10214000DF9385E10E94D43125E0AC01249FC001DA
:10215000259F900D1124BC01882777FD8095982F2D
:102160000E94C33520E030E040E85AE30E94773611
:102170008B01D82FC92F26E636E646E850E40E94A8
:102180007336181624F406E616E6D6E8C0E4B8015D
:102190008D2F9C2FDF91CF911F910F9108950F9359
:1021A0001F93CF93DF930E949D102FEB36E842EDF3
:1021B00052E40E9477362CE73DE04BEA53E40E945C
:1021C000BF348B01D82FC92F20E030E0A9010E9435
:1021D000243587FF04C000E010E0D0E0C0E0B80183
:1021E0008D2F9C2FDF91CF911F910F9108950F9309
:1021F0001F93CF93DF93EC0100E010E048815981F9
:102200006A817B81002E04C0769567955795479526
:102210000A94D2F7642F61708C810E9453320000BF
:102220000000000061E08D810E9453320000000038
:10223000000060E08D810E9453320F5F1F4F0E310E
:102240001105E1F661E08E810E945332000000002A
:10225000000060E08E81DF91CF911F910F910C946F
:102260005332CF93DF93EC01862F188219821A82A2
:102270001B826C834D832E8361E00E941A3261E0E1
:102280008D810E941A3261E08E810E941A3260E0D4
:102290008C810E94533260E08D810E94533260E055
:1022A0008E810E945332CE01DF91CF910C94F710B2
:1022B000FC0140835183628373830C94F710FC010B
:1022C00010821182128213820C94F7100895CF931A
:1022D000DF93EC01862F688379835B834A8361E017
:1022E0000E941A3260E08A81DF91CF910C941A32F9
:1022F000CF93DF93EC0160E088810E94533282E04B
:1023000090E00E948E3161E088810E9453328AE021
:1023100090E00E948E3160E088810E94533220E478
:102320003CE940E050E061E08A81DF91CF910C947C
:1023300089320E9478112AE330E040E050E00E94A8
:10234000B337211531054105510521F427EE33E05E
:1023500040E050E0CA01B9010E94C3350895CF930F
:10236000DF93EC01FC01F3956081718140E00896F8
:102370000E94E732FE01EE5FFE4F6081718140E016
:10238000CE018B5B9F4F0E94E732FE01EC5FFE4F58
:102390006081718140E0CE018E579F4F0E94E732ED
:1023A000FE01EA5FFE4F6081718140E0CE01815401
:1023B0009F4FDF91CF910C94E7324F925F926F92D3
:1023C0007F928F929F92AF92BF92CF92DF92EF92C5
:1023D000FF920F931F93CF93DF93CDB7DEB73C01EE
:1023E0004B885C88FC01F39571836083329651833E
:1023F00040833296318320833296118300830E947A
:10240000AF11F301EC5CFE4F1082E11037C0F30115
:10241000E05FFE4F8AE590E091838083329691835E
:102420008083329691838083329691838083A20148
:10243000B401C30184509F4F0E946711F301E85E0D
:10244000FE4FA082B1823296C082D18261E08A2D95
:102450000E941A3260E08C2DDF91CF911F910F9175
:10246000FF90EF90DF90CF90BF90AF909F908F90B4
:102470007F906F905F904F900C941A32E12CF12C6A
:1024800000E010E0C8010E94DD3990E0813891053C
:102490000CF09A95F301EE0DFF1D908F878B0F5F67
:1024A0001F4F8DE3E80EF11C0430110559F7AFCF33
:1024B000CF93DF93EC0108960E944C33CE018B5BE7
:1024C0009F4F0E944C33CE018E579F4F0E944C333A
:1024D000CE0181549F4FDF91CF910C944C330F93D9
:1024E0001F93FC01708F678BEC5AFF4F5183408321
:1024F000FD9631832083FD96118300831F910F91F8
:102500000895EF92FF920F931F93CF93DF937C0177
:1025100000E010E0C0E0D0E0F701E00FF11F6789B4
:10252000CE010E94E5392196035C1F4FC430D105CE
:1025300099F7DF91CF911F910F91FF90EF90089540
:102540002F923F924F925F926F927F928F929F92C3
:10255000AF92BF92CF92DF92EF92FF920F931F93B1
:10256000CF93DF93CDB7DEB72A970FB6F894DEBFCF
:102570000FBECDBF1C016B0149835A830E94AF116E
:10258000F101EC5CFE4F8081811110822BE0C216BC
:10259000D1040CF4CEC0EE24D7FCE094FE2CC7018D
:1025A000B6010E94C33520E030E040E251E40E94D1
:1025B00028352B013C0139813B838A818C83510171
:1025C00000E010E0AB81BC818D919D91BC83AB8319
:1025D0004501BCED8B1ABEEF9B0AF101E00FF11F24
:1025E000E05FFE4F20813181821B930BBC01882765
:1025F00077FD8095982F0E94C335A30192010E9418
:102600002835F40160837183828393830E5F1F4FAB
:10261000F4E0AF0EB11C08301105A1F60E9425317F
:102620009101245E3E4F3C832B836C0D7D1D8E1DDE
:102630009F1DD9016D937D938D939C931397442493
:102640004394512CF101E05EFE4FFE83ED83245153
:10265000314038872F830E942531EB81FC81008136
:10266000118122813381601771078207930708F077
:1026700076C00E942531665F7F4F8F4F9F4FAD819F
:10268000BE816D937D938D939C9313976F80788417
:1026900081011A8619864201AA2497FCA094BA2CBB
:1026A000E985FA85E20DF31DE05FFE4F808191819F
:1026B000BC01882777FD8095982F0E94C3356B0158
:1026C0007C01C501B4010E94C335F801EC5DFE4FE9
:1026D00020813181428153810E9477369B01AC0178
:1026E000C701B6010E94C0340E949035C3010E9408
:1026F0009433E985FA853296FA87E9870C5F1F4F94
:10270000FDE36F0E711C29853A852830310541F6AD
:102710000E942531AD81BE810D911D912D913C917D
:10272000601771078207930798F3BFEF4B1A5B0A94
:1027300092CFC980DA8000E010E07101F8E0EF0E7E
:10274000F11CD6016D917D916D01C701800F911F24
:102750000E949433035C1F4F043F110591F7E981F8
:10276000FA8180E090E021913191D101A80FB91F49
:10277000A05FBE4F2D933C9302968830910599F748
:102780002A960FB6F894DEBF0FBECDBFDF91CF9172
:102790001F910F91FF90EF90DF90CF90BF90AF907F
:1027A0009F908F907F906F905F904F903F902F9071
:1027B00008954F925F926F927F928F929F92AF9205
:1027C000BF92CF92DF92EF92FF920F931F93CF931E
:1027D000DF9300D000D0CDB7DEB72C014B013A011A
:1027E0005901A70196017C0182E8E80EF11CF20173
:1027F000E957FF4FD30114968D919C9115979183C2
:1028000080833297DB0114968D919C91159791836B
:102810008083B501C70129833A834B835C830E947F
:102820005B33F80180859185A285B385F201E55778
:10283000FF4F80839183A283B3836201FFEBCF0EAE
:10284000D11CF201EC53FF4FD30116968D919C9150
:102850001797918380833297D40116968D919C911E
:10286000179791838083B501C6010E945B33F801FD
:1028700084859585A685B785F201E853FF4F80834F
:102880009183A283B3830E9425310E94C1352B011D
:102890003C01B501882777FD8095982F0E94C335AC
:1028A00029813A814B815C810E947736A301920194
:1028B0000E94C0344B015C01A5019401C301B20127
:1028C0000E94243518166CF0C7010E949B33C60184
:1028D0000E949B330E9425310E94C1352B013C018F
:1028E000EBCF0F900F900F900F90DF91CF911F9132
:1028F0000F91FF90EF90DF90CF90BF90AF909F909F
:102900008F907F906F905F904F9008952F923F929D
:102910004F925F926F927F928F929F92AF92BF92EF
:10292000CF92DF92EF92FF920F931F93CF93DF939B
:10293000CDB7DEB72C970FB6F894DEBF0FBECDBF74
:102940004C017A8369835C834B833E832D8318011A
:10295000260137010E94AF11F401EC5CFE4F80812B
:1029600081111082C301B2010E9490356F83788774
:1029700089879A87AF80B8841A141B04A4F12F8129
:102980003885B901882777FD8095982F0E94C33537
:102990009B01AC01C301B2010E94BF346B017C01F9
:1029A00081012D813E814B815C8169817A81C401E5
:1029B0000E94D9132C960FB6F894DEBF0FBECDBF80
:1029C000DF91CF911F910F91FF90EF90DF90CF900B
:1029D000BF90AF909F908F907F906F905F904F903F
:1029E0003F902F9008951C861B86C12CD12C90E817
:1029F000E92E9FE3F92E81012D813E814B815C817F
:102A000069817A81C4010E94D9138B859C850196C6
:102A10009C878B878A159B0541F7B1CFEF92FF9278
:102A20000F931F93CF93DF93CDB7DEB728970FB6E1
:102A3000F894DEBF0FBECDBF8C017C018CECE81A90
:102A40008EEFF80AF7018081811117C088E0E2E17A
:102A5000F1E0DE01119601900D928A95E1F7AE0149
:102A60004F5F5F4F64EF71E0C8010E94A012C80180
:102A70000E94581281E0F701808328960FB6F894DF
:102A8000DEBF0FBECDBFDF91CF911F910F91FF90A1
:102A9000EF9008958C5C9E4FFC01808108958C5CC2
:102AA0009E4FFC0160830895CF92DF92EF92FF92D8
:102AB0000F931F93CF93DF93CDB7DEB7A0970FB6D9
:102AC000F894DEBF0FBECDBF7C0188E0E2E6F1E006
:102AD000DE01599601900D928A95E1F788E0EAE6C9
:102AE000F1E0DE01519601900D928A95E1F780E1C7
:102AF000E2E7F1E0DE01119601900D928A95E1F78F
:102B0000C7010E94AF11F701EC5CFE4F808181117B
:102B1000108287010E571F4FF701E957FF4F8D892C
:102B20009E899183808332978D8D9E8D9183808342
:102B300068EE73E0C8010E945B33F701E557FF4F71
:102B400049855A856B857C85408351836283738375
:102B500067018FEBC80ED11CF9968F89988D9183F0
:102B6000808332978F8D98A19183808368EE73E084
:102B7000C6010E945B33F701E853FF4F4D855E8528
:102B80006F857889408351836283738322E030E0CC
:102B90004CEE51E568E37EE384E797E00E94DA2D8E
:102BA00040EDE42E47E0F42E4FE852EC65EF7CE375
:102BB000C8010E942B344FE852EC65EF7CE3C6015C
:102BC0000E942B346AE070E080E090E00E94543173
:102BD00081E0E81AF10841F7A0960FB6F894DEBF3D
:102BE0000FBECDBFDF91CF911F910F91FF90EF905E
:102BF000DF90CF900895EF92FF920F931F93CF93A2
:102C0000DF93CDB7DEB760970FB6F894DEBF0FBE87
:102C1000CDBF8C01790188E0EAE1F1E0DE0119968F
:102C200001900D928A95E1F7AE01475F5F4FB901C0
:102C3000C8010E94A01288E0E2E1F1E0DE011196F5
:102C400001900D928A95E1F7AE014F5F5F4FB7019A
:102C5000C8010E94A01260960FB6F894DEBF0FBEA6
:102C6000CDBFDF91CF911F910F91FF90EF9008950D
:102C70008F929F92AF92BF92CF92DF92EF92FF928C
:102C80000F931F93CF93DF93CDB7DEB7A0970FB607
:102C9000F894DEBF0FBECDBF5C016A017B01490124
:102CA000980188E0E2E6F1E0DE01599601900D928C
:102CB0008A95E1F788E0EAE6F1E0DE0151960190BD
:102CC0000D928A95E1F78E010F5F1F4F80E1F801A9
:102CD00011928A95E9F746EA4203B001439F700DCD
:102CE0001124882777FD8095982F0E94C3352BEDFE
:102CF0003FE049E450E40E94773620E030E044E3CE
:102D000053E40E94283569877A878B879C876D8773
:102D10007E878F87988B9401AE014F5E5F4FBE0117
:102D2000675E7F4FC5010E948614A0960FB6F89487
:102D3000DEBF0FBECDBFDF91CF911F910F91FF90EE
:102D4000EF90DF90CF90BF90AF909F908F900895BD
:102D5000CF92DF92EF92FF920F931F93CF93DF9367
:102D6000CDB7DEB7A0970FB6F894DEBF0FBECDBFCC
:102D7000E8E0FE2EE2E6F1E0DE01599601900D92C8
:102D8000FA94E1F7F8E0FF2EE2E8F1E0DE01519677
:102D900001900D92FA94E1F7A0E1FA2EEAE8F1E051
:102DA000DE01119601900D92FA94E1F701301105C0
:102DB00039F4EEE1F0E0FA8FE98FEAE0F0E006C0E6
:102DC000EAE0F0E0FA8FE98FEEE1F0E0FC8FEB8FC4
:102DD0006A017B018E010F5F1F4FAE014F5E5F4F97
:102DE000BE01675E7F4F0E948614A0960FB6F894CE
:102DF000DEBF0FBECDBFDF91CF911F910F91FF902E
:102E0000EF90DF90CF9008958F929F92AF92BF92F4
:102E1000CF92DF92EF92FF920F931F93CF93DF93A6
:102E2000CDB7DEB768970FB6F894DEBF0FBECDBF43
:102E30005C014B0188E0EAE9F1E0DE015196019086
:102E40000D928A95E1F788E0E2EAF1E0DE01199659
:102E500001900D928A95E1F788E0E2E1F1E0DE0170
:102E6000119601900D928A95E1F72F3F3F4F71F433
:102E700081E990E09E8B8D8B88E790E0988F8F8B17
:102E80002BE430E03E872D87988B8F8700E010E0A1
:102E90006A01EE24D7FCE094FE2C081519054CF5C8
:102EA000AE014F5E5F4F60E971E0C5010E94A01264
:102EB000AE01475F5F4F60E971E0C5010E94A0125B
:102EC000C701B6010E94C3352DEC3CEC4CE45FE336
:102ED0000E9477360E9495350E945431AE014F5FB3
:102EE0005F4F64EF71E0C5010E94A0120F5F1F4F9A
:102EF000D4CF68960FB6F894DEBF0FBECDBFDF917A
:102F0000CF911F910F91FF90EF90DF90CF90BF90E6
:102F1000AF909F908F9008958F929F92AF92BF92A3
:102F2000CF92DF92EF92FF920F931F93CF93DF9395
:102F3000CDB7DEB7A0970FB6F894DEBF0FBECDBFFA
:102F40008C014B0188E0EAEAF1E0DE01599601903C
:102F50000D928A95E1F788E0E2EBF1E0DE0151960F
:102F600001900D928A95E1F788E0EAEBF1E0DE014D
:102F7000199601900D928A95E1F788E0E2E1F1E07F
:102F8000DE01119601900D928A95E1F72F3F3F4F98
:102F9000A1F481E990E09E8F8D8F8AE790E098A35D
:102FA0008F8F2CE330E03E8B2D8B988F8F8B28E713
:102FB00030E03E872D87988B8F876A0188EEC81A8C
:102FC00083E0D80A80E9C81681E0D80624F480E9B5
:102FD000C82EDD24D3947601F594E794F594E79414
:102FE000A12CB12CA814B904C4F5AE01475E5F4F03
:102FF00064EF71E0C8010E94A012AE014F5E5F4F06
:1030000064EF71E0C8010E94A012AE01475F5F4FFC
:10301000B701C8010E94A012AE014F5E5F4FB70119
:10302000C8010E94A012AE01475F5F4FB701C801FF
:103030000E94A012AE014F5E5F4FB701C8010E940F
:10304000A012AE014F5F5F4F64EF71E0C8010E94B4
:10305000A0128FEFA81AB80AC5CFB601882777FD4E
:103060008095982F0E945431A0960FB6F894DEBF39
:103070000FBECDBFDF91CF911F910F91FF90EF90C9
:10308000DF90CF90BF90AF909F908F900895CF9298
:10309000DF92EF92FF920F931F93CF93DF93CDB701
:1030A000DEB7A0970FB6F894DEBF0FBECDBF6A01A2
:1030B0007B01E8E0BE01675E7F4FDB014E2F1D9272
:1030C0004A95E9F71E8F0D8F18A30F8FAE014F5E43
:1030D0005F4FDA011D92EA95E9F71E8B0D8B119572
:1030E00001951109188F0F8B10E1E2ECF1E0DE0180
:1030F000119601900D921A95E1F78E010F5F1F4F07
:103100000E948614A0960FB6F894DEBF0FBECDBF06
:10311000DF91CF911F910F91FF90EF90DF90CF90B3
:103120000895CF92DF92EF92FF920F931F93CF9368
:10313000DF93CDB7DEB7A0970FB6F894DEBF0FBE12
:10314000CDBF6A017B01E8E0BE01675E7F4FDB0116
:103150004E2F1D924A95E9F71E8F0D8F18A30F8FE2
:10316000AE014F5E5F4FDA011D92EA95E9F7F80173
:1031700017FD3196F595E795FE8BED8B17FF02C095
:103180000F5F1F4F15950795119501951109188F20
:103190000F8B8E010F5F1F4FE0E1D8011D92EA9562
:1031A000E9F70E948614A0960FB6F894DEBF0FBE12
:1031B000CDBFDF91CF911F910F91FF90EF90DF90E6
:1031C000CF900895CF92DF92EF92FF920F931F93CB
:1031D000CF93DF93CDB7DEB7A0970FB6F894DEBFDD
:1031E0000FBECDBF6A017B01E8E0BE01675E7F4F85
:1031F000DB014E2F1D924A95E9F71E8F0D8F18A304
:103200000F8FAE014F5E5F4FDA011D92EA95E9F72D
:103210001E8B0D8B119501951109188F0F8B8E0147
:103220000F5F1F4FE0E1D8011D92EA95E9F70E9478
:103230008614A0960FB6F894DEBF0FBECDBFDF9107
:10324000CF911F910F91FF90EF90DF90CF90089555
:10325000CF92DF92EF92FF920F931F93CF93DF9362
:10326000CDB7DEB7A0970FB6F894DEBF0FBECDBFC7
:103270006A017B010A31110514F009E110E0E8E070
:10328000BE01675E7F4FDB014E2F1D924A95E9F725
:103290001A8F098F1C8F0B8FAE014F5E5F4FDA01C3
:1032A0001D92EA95E9F710E1E2EDF1E0DE011196F9
:1032B00001900D921A95E1F78E010F5F1F4F0E944A
:1032C0008614A0960FB6F894DEBF0FBECDBFDF9177
:1032D000CF911F910F91FF90EF90DF90CF900895C5
:1032E000CF92DF92EF92FF920F931F93CF93DF93D2
:1032F000CDB7DEB7A0970FB6F894DEBF0FBECDBF37
:103300006A017B010E30110514F00DE010E01A8FF8
:10331000098F1C8F0B8F1E8F0D8F18A30F8FAE017F
:103320004F5E5F4F68E0FA0111926A95E9F7B801C4
:103330006C5F7F4F7E8B6D8B64E070E0601B710B68
:10334000788F6F8B60E1E2EEF1E0DE011196019083
:103350000D926A95E1F78E010F5F1F4FBE01675E08
:103360007F4F0E948614A0960FB6F894DEBF0FBE62
:10337000CDBFDF91CF911F910F91FF90EF90DF9024
:10338000CF9008952F923F924F925F926F927F92CB
:103390008F929F92AF92BF92CF92DF92EF92FF9265
:1033A0000F931F93CF93DF93CDB7DEB7A2970FB6DE
:1033B000F894DEBF0FBECDBF4C011A012B013901BD
:1033C00088E09E01275E3F4F3AA329A3F901282FE9
:1033D00011922A95E9F71E8F0D8F18A30F8F5E01AA
:1033E00031E1A30EB11CF50111928A95E9F7C801EC
:1033F00017FD01969595879502969E8B8D8B17FFED
:1034000002C00F5F1F4F1595079511950195110982
:1034100002501109188F0F8B26EAA70124036001BF
:10342000259FD00C11248E010F5F1F4F80E1F80102
:1034300011928A95E9F7B601882777FD8095982F34
:103440000E94C3352BED3FE049E450E40E947736FB
:1034500020E030E044E353E40E94283569877A870E
:103460008B879C8724ECA7012403B001259F700D56
:1034700011246C0D7D1D882777FD8095982F0E9463
:10348000C3352BED3FE049E450E40E94773620E05D
:1034900030E044E353E40E9428356D877E878F87B0
:1034A000988B720161019301A501BE01675E7F4F98
:1034B000C4010E948614A2960FB6F894DEBF0FBE18
:1034C000CDBFDF91CF911F910F91FF90EF90DF90D3
:1034D000CF90BF90AF909F908F907F906F905F90B4
:1034E0004F903F902F9008952F923F924F925F926E
:1034F0006F927F928F929F92AF92BF92CF92DF9204
:10350000EF92FF920F931F93CF93DF93CDB7DEB768
:10351000A0970FB6F894DEBF0FBECDBF4C015A0185
:103520006B01390128E02E0149E1440E511CF201E2
:10353000422F11924A95E9F789E190E09A8F898F9D
:103540009C8F8B8F1E8F0D8F18A30F8F1E0151E143
:10355000250E311CF10111922A95E9F7C80117FDDA
:1035600001969595879504969E8B8D8B17FF02C0CB
:103570000F5F1F4F1595079511950195110904507F
:103580001109188F0F8B8E010F5F1F4F80E1F8011B
:1035900011928A95E9F780E090E0A4EBB2E4898388
:1035A0009A83AB83BC838D839E83AF83B88724ECDF
:1035B000A7012403B001259F700D1124882777FDF2
:1035C0008095982F0E94C3352BED3FE049E450E4ED
:1035D0000E94773620E030E044E353E40E9428352F
:1035E0006D877E878F87988B760165019301A10196
:1035F000B201C4010E948614A0960FB6F894DEBFF3
:103600000FBECDBFDF91CF911F910F91FF90EF9033
:10361000DF90CF90BF90AF909F908F907F906F90F2
:103620005F904F903F902F9008952F923F924F922E
:103630005F926F927F928F929F92AF92BF92CF9242
:10364000DF92EF92FF920F931F93CF93DF93CDB74B
:10365000DEB7A0970FB6F894DEBF0FBECDBF4C010A
:103660005A016B01390128E02E0149E1440E511C39
:10367000F201422F11924A95E9F78CE090E09A8F7F
:10368000898F9C8F8B8F1E8F0D8F18A30F8F1E011C
:1036900051E1250E311CF10111922A95E9F7C8017B
:1036A0000A979E8B8D8B8AE090E0801B910B988F00
:1036B0008F8B8E010F5F1F4F80E1F80111928A9569
:1036C000E9F78BED9FE0A9E4B0E48D839E83AF839F
:1036D000B88726EAA7012403B001259F700D1124A5
:1036E000882777FD8095982F0E94C3352BED3FE00A
:1036F00049E450E40E94773620E030E044E353E4AC
:103700000E94283569877A878B879C878AE58E9DFA
:10371000B0018F9D700D1124882777FD8095982F1B
:103720000E94C3352BED3FE049E450E40E94773618
:1037300020E030E044E353E40E9428356D877E8723
:103740008F87988B760165019301A101B201C401B5
:103750000E948614A0960FB6F894DEBF0FBECDBFB0
:10376000DF91CF911F910F91FF90EF90DF90CF905D
:10377000BF90AF909F908F907F906F905F904F9091
:103780003F902F90089584509F4F0C9499110F9360
:103790001F93CF93DF93EC01C65EDE4F88810E94BA
:1037A000D43188810E94D4318C0164E070E080E0E3
:1037B00090E00E94543188810E94D431080F191F73
:1037C00064E070E080E090E00E945431C80117FD91
:1037D000019695958795DF91CF911F910F9108954F
:1037E000CF92DF92EF92FF920F931F93CF93DF93CD
:1037F0008C01095F1F4FC8010E94CF10CAE0D0E0C2
:10380000C12CD12C7601C8010E94CF109B01AC01C4
:10381000C701B6010E94C0346B017C0161E070E019
:1038200080E090E00E945431219769F720E030E079
:1038300040E251E4C701B6010E942835DF91CF91E3
:103840001F910F91FF90EF90DF90CF900895CF934D
:10385000DF93CDB7DEB7C058D1090FB6F894DEBFFD
:103860000FBECDBF80E8E2EFF1E0DE0111960190DE
:103870000D928A95E1F7660F771F660F771F81E03B
:1038800090E08C0F9D1F680F791FFB016081718193
:1038900082819381C058DF4F0FB6F894DEBF0FBE10
:1038A000CDBFDF91CF910895CF93DF93EC01BA01A3
:1038B0000E94271CAB01BC01CE01DF91CF910C947B
:1038C0005811CF93DF93CDB7DEB7C057D1090FB6EC
:1038D000F894DEBF0FBECDBF80E2E2E7F2E0DE018A
:1038E000999601900D928A95E1F780E1E2E9F2E084
:1038F000DE01AF59BF4F01900D928A95E1F788E143
:10390000E2EAF2E0DE01A75BBF4F01900D928A95DB
:10391000E1F788E2EAEBF2E0DE01119601900D9208
:103920008A95E1F76130710509F194F4672BB1F5DF
:10393000FA01EE0FFF1FEE0FFF1F81E090E08C0FEA
:103940009D1FE80FF91F60A571A582A593A526C04C
:103950006230710599F06330710501F5FA01EE0FDF
:10396000FF1FEE0FFF1F81E090E00FC0FA01EE0F86
:10397000FF1FEE0FFF1F81E690E007C0FA01EE0F78
:10398000FF1FEE0FFF1F89E490E08C0F9D1FE80FD3
:10399000F91F608171818281938100C0C059DF4F1E
:1039A0000FB6F894DEBF0FBECDBFDF91CF91089563
:1039B000CF93DF93EC01CB01BA01A901CE010E94A4
:1039C000611CAB01BC01CE01DF91CF910C94581169
:1039D00021110C94541C0C9458110C945F118F926B
:1039E0009F92AF92BF92EF92FF920F931F93CF934C
:1039F000DF93EC0148015901E114F10419F4EE24BC
:103A0000E394F12CCB01BA010E949535C85EDE4FDC
:103A1000A501940188810E94DC2DC501B4010E949A
:103A20005431B701882777FD8095982FDF91CF918A
:103A30001F910F91FF90EF90BF90AF909F908F904C
:103A40000C9454312F923F924F925F926F927F92DB
:103A50008F929F92AF92BF92CF92DF92EF92FF929E
:103A60000F931F93CF93DF93CDB7DEB728970FB691
:103A7000F894DEBF0FBECDBF1C012A013B010983B4
:103A80001A832B833C83CD82DE82EF82F886CD8C35
:103A9000DE8CC114D10419F4CC24C394D12C298117
:103AA0003A814B815C81C301B2010E94243587FFBA
:103AB00025C0C301B2010E949035882777FD80950B
:103AC000982F0E94C3352B013C0129813A814B81FB
:103AD0005C810E94243587FF36C076019501840100
:103AE000B301A201C1010E94EF1C2D813E814F81D3
:103AF0005885C301B2010E947736DDCFC301B20100
:103B00000E949035882777FD8095982F0E94C335B5
:103B10002B013C0129813A814B815C810E947336E3
:103B200018168CF4760195018401B301A201C1013C
:103B30000E94EF1C2D813E814F815885C301B20147
:103B40000E942835DDCF28960FB6F894DEBF0FBE51
:103B5000CDBFDF91CF911F910F91FF90EF90DF903C
:103B6000CF90BF90AF909F908F907F906F905F901D
:103B70004F903F902F9008957F928F929F92AF9297
:103B8000BF92CF92DF92EF92FF920F931F93CF934A
:103B9000DF93EC016331710508F047C3FB01E7597E
:103BA000FF4F0C94D2375EE1E52EF12C02E310E0DA
:103BB00020E030E044EA50ED64E274E40E94EF1C3F
:103BC00069E1E62EF12C07E310E020E030E042E569
:103BD00050ED64EA74E4CE010E94EF1C7AE0E72E17
:103BE000F12C0CE310E020E030E040E050E06CED20
:103BF00074E426C02EE1E22EF12C02E310E020E076
:103C000030E044EA50ED64E274E40E94EF1C39E1D4
:103C1000E32EF12C07E310E020E030E040E050E03C
:103C20006CED74E4CE010E94EF1C4AE0E42EF12C0E
:103C300002E310E020E030E042E550ED64EA74E495
:103C4000CE010E94EF1CF1C21F92B2E07B2E7F9248
:103C500014E1812E912CA12CB12C0AE0C02E07ED8D
:103C6000D02E03E8E02E0FE3F02E0CE51FEF23EC3F
:103C700034E442E550ED64EA74E40E94221D6EE1F2
:103C800070E080E090E00E9454311F927F928AE0C1
:103C9000882E912CA12CB12C98EBC92E9EE1D92E07
:103CA00095E8E92E9FE3F92E0FE115ED22E135E4C9
:103CB00042E550ED64EA74E4B1C21F928AE08F934A
:103CC000FEE18F2E912CA12CB12CACE5CA2EAFE8D1
:103CD000DA2EA2E8EA2EAFE3FA2E00E010E02CED97
:103CE00034E442E550ED64EA74E46DC21F928AE068
:103CF0008F937EE1872E912CA12CB12CEAE0CE2E61
:103D0000E7EDDE2EE3E8EE2EEFE3FE2E0FE115EDFC
:103D100022E135E44CE55FEF63EC74E454C254E611
:103D2000E52EF12C02E310E020E030E042E550ED1A
:103D300064EA74E40E94EF1C60E5E62EF12C02E3D5
:103D400010E020E030E04CE55FEF63EC74E4CE017E
:103D50000E94EF1CE12CF12C0CE211E020E030E09D
:103D60004FE155ED62E175E46BCF1F9277247394B8
:103D70007F929AE0892E912CA12CB12C2CE5C22E99
:103D80002FE8D22E22E8E22E2FE3F22E00E010E6FA
:103D900026E035E440E050E068E474E4CE010E949F
:103DA000221D1F927F9237E0832E912CA12CB12CE3
:103DB0004AE0C42E47EDD42E43E8E42E4FE3F42E20
:103DC00000E010E028E434E440E050E566E075E40B
:103DD00025C21F9283E08F9318E0812E912CA12C95
:103DE000B12C08EBC02E0EE1D02E05E8E02E0FE33B
:103DF000F02E00E010E02AEF34E440E050E06CE503
:103E000074E4CE010E94221D68EC70E080E090E036
:103E10000E9454310F900F9086E1C82ED12CBAE049
:103E2000EB2EF12C05E010E020E030E048E451EF0B
:103E300066E774E4CE010E94EF1C81E0C81AD10845
:103E400071F7F3C11F9283E08F93E8E08E2E912CDF
:103E5000A12CB12CFAE0CF2EF7EDDF2EF3E8EF2EF8
:103E6000FFE3FF2E00E010E82BE335E440E050E0F4
:103E70006BEE74E4CE010E94221D68EC70E080E0DD
:103E800090E00E9454310F900F90A0E1CA2ED12CE7
:103E90007AE0E72EF12C0AE010E020E030E040E08C
:103EA00050ED62E874E4CE010E94EF1C81E0C81A74
:103EB000D10871F7BAC11F9284E08F9330E1832E4D
:103EC000912CA12CB12C4AE0C42E47EDD42E43E80E
:103ED000E42E4FE3F42E00E010E021E634E440E06D
:103EE00050E06FE274E4CE010E94221D1F9287E031
:103EF0008F9352E1852E912CA12CB12C6EEAC62E07
:103F000067E4D62E61E8E62E6FE3F62E00E010E8B7
:103F100022E234E440E050EC60E674E47FC11F929A
:103F20008AE08F939AE0892E912CA12CB12C28EB5A
:103F3000C22E2EE1D22E25E8E22E2FE3F22E00E053
:103F400010E02AEF33E440E050E068EC72E4CE0188
:103F50000E94221D64EF71E080E090E00E945431E5
:103F60001F9281E08F9300E010E028EC32E440E003
:103F700050E068EC73E452C11F92B8E07B2E7F9250
:103F800014E1812E912CA12CB12C06E6C02EDC2C44
:103F900006E8E02E0FE3F02E00E010E42CE135E41B
:103FA00040E050E86BEB74E40E94221D1F927F9268
:103FB00089E1882E912CA12CB12C00E010E82BEB8C
:103FC00034E440E050E36CE175E428C11F9283E0E3
:103FD0008F93E8E08E2E912CA12CB12CF6E6CF2EFB
:103FE000DC2CF6E8EF2EFFE3FF2E00E010E82BEBD1
:103FF00035E440E050E06AEF74E4CE010E94221DF7
:1040000062E370E080E090E00E9454311F9282E011
:104010008F93ADE08A2E912CA12CB12C00E010E002
:104020002AEF34E440E058E76BEB75E4F7C01F92E9
:1040300048E0742E7F925FE0852E912CA12CB12C4C
:1040400066E6C62EDC2C66E8E62E6FE3F62E00E070
:1040500010E02AEF34E440E050E86BEB74E40E9497
:10406000221D64E670E080E090E00E9454311F92CF
:104070007F927AE0872E912CA12CB12C00E010E4E5
:104080002CE135E440E050E86DEE74E4C7C01F92C7
:1040900088EC8F9324E1822E912CA12CB12C3CE54D
:1040A000C32E3FE8D32E32E8E32E3FE3F32E00E0A9
:1040B00010E427E234E440E050E06CE574E483C0AF
:1040C0001F9282E08F93B8E08B2E912CA12CB12C03
:1040D0001AE0C12E17EDD12E13E8E12E1FE3F12EC9
:1040E00000E010E824ED34E440E050E06AE774E4D6
:1040F000CE010E94221D1F9283E08F9308EBC02EF9
:104100000EE1D02E05E8E02E0FE3F02E00E010E0E7
:104110002AEF33E440E050E664ED74E4CE010E94FF
:10412000221D1F928AE08F9389E0882E912CA12C6A
:10413000B12C96E6C92EDC2C96E8E92E9FE3F92EE9
:1041400000E010E824ED34E440E050E06AE774E475
:10415000CE010E94221D0F900F900F900F900F9094
:104160000F9063C01F928FE08F93F2E08F2E912CFF
:10417000A12CB12CACE5CA2EAFE8DA2EA2E8EA2ECB
:10418000AFE3FA2E00E010E82BE335E440E050E026
:1041900068EC74E418C01F9284E18F9372E0872E5C
:1041A000912CA12CB12CECE5CE2EEFE8DE2EE2E82E
:1041B000EE2EEFE3FE2E00E010E82BEB35E440E0BE
:1041C00050E06AEF74E4CE010E94221D0F900F9020
:1041D0002CC01F9244E1742E7F9252E0852E912CC8
:1041E000A12CB12C6CE5C62E6FE8D62E62E8E62E27
:1041F0006FE3F62E00E010E02AE735E440E050E0FF
:1042000068EC74E40E94221D1F927F9200E010E887
:104210002BE335E440E050E06AE775E4CE010E940C
:10422000221D0F900F900F900F90DF91CF911F9153
:104230000F91FF90EF90DF90CF90BF90AF909F9045
:104240008F907F9008952F923F924F925F926F923E
:104250007F928F929F92AF92BF92CF92DF92EF9216
:10426000FF920F931F93CF93DF93CDB7DEB7C25862
:10427000D1090FB6F894DEBF0FBECDBF3C0188E078
:10428000E2EEF2E0DE01AF58BF4F01900D928A9549
:10429000E1F788E0EAEEF2E0DE01A759BF4F0190B6
:1042A0000D928A95E1F788E0E2EFF2E0DE01AF5986
:1042B000BF4F01900D928A95E1F788E0EAEFF2E0B6
:1042C000DE01A75ABF4F01900D928A95E1F788E071
:1042D000E2E0F3E0DE01AF5ABF4F01900D928A9504
:1042E000E1F788E0EAE0F3E0DE01A75BBF4F019071
:1042F0000D928A95E1F788E0E2E1F3E0DE01AF5B41
:10430000BF4F01900D928A95E1F788E0EAE1F3E072
:10431000DE01D99601900D928A95E1F788E0E2E2FC
:10432000F3E0DE01D19601900D928A95E1F788E0E5
:10433000EAE2F3E0DE01999601900D928A95E1F7A9
:1043400088E0E2E3F3E0DE01919601900D928A9518
:10435000E1F788E0EAE3F3E0DE01599601900D927F
:104360008A95E1F788E0E2E4F3E0DE0151960190FE
:104370000D928A95E1F788E0EAE4F3E0DE01199610
:1043800001900D928A95E1F76D30710508F0CEC667
:10439000FB01E458FF4F0C94D23782E090E0EF9697
:1043A0009FAF8EAFEF973DC4E4E0F0E0EF96FFAF34
:1043B000EEAFEF976BC3FEE1EF2EF12C02E310E0BE
:1043C00020E030E044EA50ED64E274E4C3010E946E
:1043D000EF1C4AE050E060E070E0C3010E94541C12
:1043E0006DE070E0C3010E94BC1D04E110E020E21A
:1043F00033E040E050E060E87FE3C3010E949118A1
:104400006DE070E076C14BE050E060E070E0C30129
:104410000E94541C6BE070E0C3010E94BC1D4CE084
:1044200050E060E070E0C3010E94541C04E110E021
:1044300024EF31E040E050E060E87FE3C3010E94F8
:10444000E2184BE050E060E070E0C3010E94541CB1
:104450006CE070E0C3010E94BC1D4CE050E060E0E5
:1044600070E0C3010E94541C24EF31E040E050E0B2
:1044700060E87FE3C3010E94E21804C346E150E014
:1044800060E070E0C3010E94541CAE014F585F4FC2
:104490006CEB72E0C3010E94A0121F9268EC562ED2
:1044A0005F9274E1872E912CA12CB12CECE5CE2EDD
:1044B000EFE8DE2EE2E8EE2EEFE3FE2E00E010E85D
:1044C0002FE434E440E050E06CE574E4C3010E9462
:1044D000221D48E150E060E070E0C3010E94541CDE
:1044E0001F925F9200E010E825E434E440E050E8D9
:1044F0006FE474E4C3010E94221D47E150E060E0D4
:1045000070E0C3010E94541C1F925F9200E010E013
:1045100029E334E440E050E865E474E4C3010E9418
:10452000221D48E150E060E070E0C3010E94541C8D
:104530001F925F9200E010E02FE234E440E050E090
:1045400069E374E4C3010E94221D47E150E060E08A
:1045500070E0C3010E94541C1F925F9200E010E4BF
:1045600027E234E440E050E06FE274E4C3010E94CB
:10457000221D46E150E060E070E0C3010E94541C3F
:1045800064EF71E080E090E00E945431C3010E942A
:104590000E156CE271E080E090E00E94543107C299
:1045A000AE0147595F4F6CEB72E0C3010E94A0124D
:1045B00044E0442E512C5AE0352E2224239420E04E
:1045C00030E041E050E060E070E0C3010E94D81CA0
:1045D0001F923F922AE0822E912CA12CB12C38EB15
:1045E000C32E3EE1D32E35E8E32E3FE3F32E00E069
:1045F00010E028E433E440E050E068EC72E4C301EA
:104600000E94221D21E030E041E050E060E070E0D7
:10461000C3010E94D81C1F923F9200E010E026E9DF
:1046200033E440E050E068E473E4C3010E94221DDB
:1046300022E030E041E050E060E070E0C3010E9421
:10464000D81C1F923F9200E010E02AEF33E440E0D4
:1046500050E066E973E4C3010E94221D64EF71E03B
:1046600080E090E00E94543121E030E041E050E0F1
:1046700060E070E0C3010E94D81C1F922F9200E0FE
:1046800010E02AE733E440E050E068EC73E4C30153
:104690000E94221D20E030E041E050E060E070E048
:1046A000C3010E94D81C1F922F9200E010E028EC5A
:1046B00032E440E050E06AE773E4C3010E94221D47
:1046C00064EF71E080E090E00E94543191E0491A7B
:1046D00051080FB6F894DEBF0FBECDBF09F06FCF03
:1046E00043E150E060E070E0C3010E94541C69E0C7
:1046F00070E0C3010E94BC1DC5C1AE014F595F4FA0
:1047000064EF71E0C3010E94A0126CE271E080E0EE
:1047100090E00E94543143E150E060E070E0C3015A
:104720000E94541C60E170E0C3010E94BC1D40E186
:1047300050E060E070E0C3010E94541C6AEF70E03A
:1047400080E090E00E945431AE01475A5F4F64EF21
:1047500071E0C3010E94A0126CE271E080E090E081
:104760000E94543143E150E060E070E0C3010E94D8
:10477000541C61E170E0C3010E94BC1D40E150E0A7
:1047800060E070E0C3010E94541C6AEF70E080E0BA
:1047900090E00E945431AE014F5A5F4F64EF71E0D8
:1047A000C3010E94A0126CE271E080E090E00E94E0
:1047B000543143E150E060E070E0C3010E94541CBA
:1047C00062E170E0C3010E94BC1D40E150E060E086
:1047D00070E0C3010E94541C6CE271E080E090E044
:1047E0000E945431C3010E940E1564EF71E080E015
:1047F00090E052C3AE01475B5F4F6CE271E0C301D2
:104800000E94A01244E150E060E070E0C3010E9409
:10481000541C6FE070E0C3010E94BC1D2DC14DE02F
:1048200050E060E070E0C3010E94541C69E070E059
:10483000C3010E94BC1DEE24E394F12C0FE010E0B4
:104840002CED35E040E050E060E070E4C3010E94F0
:10485000741AC3010E940E156DE070E0C3010E943E
:10486000BC1DDBC3AE014F5B5F4F6CE271E0C30167
:104870000E94A0124EE150E060E070E0C3010E948F
:10488000541CFEE1EF2EF12C04E610E020E030E0B5
:1048900040E050E06CE574E4C3010E94EF1C1F92FD
:1048A000A4E05A2E5F92B7E08B2E912CA12CB12C54
:1048B0001CE5C12E1FE8D12E12E8E12E1FE3F12ED8
:1048C0000FE115ED22E934E440E050E06CE574E4DA
:1048D000C3010E94221D1F92442443944F920AE078
:1048E000802E912CA12CB12C0CE51FEF23EC34E48D
:1048F0004FE155ED62E974E4C3010E94221D1F924D
:104900004F9200E010E02CE534E44CE55FEF63ECFF
:1049100074E4C3010E94221D6FE070E080E090E02B
:104920000E9454311F925F9284E1882E912CA12C19
:10493000B12C04EA10ED24E234E440E050E06CE5F0
:1049400074E4C3010E94221D60E971E080E090E000
:104950000E945431AE01475C5F4F68EC70E0C301C8
:104960000E94A0121F925F920FE115ED22E934E43C
:1049700040E050E06CE574E4C3010E94221DAE01EA
:104980004F5C5F4F68EC70E0C3010E94A0121F9261
:104990005F9204EA10ED24E234E440E050E06CE57C
:1049A00074E4C3010E94221DC3010E940E154BE056
:1049B00050E060E070E0C3010E94541C0FB6F89410
:1049C000DEBF0FBECDBFB2C34EE150E060E070E08D
:1049D000C3010E94541C1F9264E0562E5F9274E142
:1049E000872E912CA12CB12CECE5CE2EEFE8DE2EFB
:1049F000E2E8EE2EEFE3FE2E0FE115ED22E934E4BE
:104A000040E050E06CE574E4C3010E94221D1F9257
:104A10005F9204EA10ED24E234E440E050E06CE5FB
:104A200074E4C3010E94221D6CE271E080E090E01A
:104A30000E94543143E150E060E070E0C3010E9405
:104A4000541C0F900F900F900F9004E010E0AE01F7
:104A5000475D5F4F64E670E0C3010E94A012C3018E
:104A60000E940E150150110991F74EE150E060E0EF
:104A700070E0C3010E94541C64EF71E080E090E09C
:104A80000E945431C3010E940E15C7C2EB961FAE9F
:104A90001EAEEB9700E911E0EB962EAD3FADEB9724
:104AA00042E050E060E070E0C3010E94D81C1801B1
:104AB00094E6290E311CB801882777FD8095982F40
:104AC0000E94C335C158DF4F688379838A839B83F3
:104AD000CF57D040B101882777FD8095982F0E944D
:104AE000C3358B019C011F92EAE0EF934AE0842ECC
:104AF000912CA12CB12C58EBC52E5EE1D52E55E89A
:104B0000E52E5FE3F52EC158DF4F488159816A8158
:104B10007B81CF57D040C3010E94221DEB968EAD02
:104B20009FADEB970196EB969FAF8EAFEB970F90F3
:104B30000F9098EE291693E0390611F08101ACCF61
:104B4000C3010E945F111F92EAE0EF9300E010E8BA
:104B500029E834E4C158DF4F488159816A817B815B
:104B6000CF57D040C3010E94221D0F900F90412CBF
:104B7000512C920142E050E060E070E0C3010E94DD
:104B8000D81CB1016C597F4F882777FD8095982FED
:104B90000E94C335ED966CAF7DAF8EAF9FAFED97A2
:104BA000B101882777FD8095982F0E94C335AB010E
:104BB000BC011F92FAE0FF932AE0822E912CA12CD7
:104BC000B12C38EBC32E3EE1D32E35E8E32E3FE384
:104BD000F32EED960CAD1DAD2EAD3FADED97C3019F
:104BE0000E94221D84E6281A31089FEF491A590AAB
:104BF0000F900F90E0E92E16E1E03E0609F0B9CFE4
:104C0000EF968EAD9FADEF970197EF969FAF8EAF6A
:104C1000EF97892B09F03ACF6CE271E080E090E0E9
:104C20003BC1212C312C54EF452E55245394910136
:104C300043E050E060E070E0C3010E94D81CB20184
:104C40006C597F4F882777FD8095982F0E94C33538
:104C5000ED966CAF7DAF8EAF9FAFED97B201882719
:104C600077FD8095982F0E94C335AB01BC011F9240
:104C70009AE09F938AE0882E912CA12CB12C9CE580
:104C8000C92E9FE8D92E92E8E92E9FE3F92EED96E2
:104C90000CAD1DAD2EAD3FADED97C3010E94221DA1
:104CA000E5E64E0E511CFFEF2F1A3F0A0F900F90B2
:104CB00086EE481685E0580609F0B9CF212C312C34
:104CC000910143E050E060E070E0C3010E94D81C15
:104CD000B2016C597F4F882777FD8095982F0E94ED
:104CE000C335ED966CAF7DAF8EAF9FAFED97B20140
:104CF000882777FD8095982F0E94C335AB01BC01B2
:104D00001F929AE09F931AE0812E912CA12CB12C36
:104D10000CE5C02E0FE8D02E02E8E02E0FE3F02EB7
:104D2000ED960CAD1DAD2EAD3FADED97C3010E94CC
:104D3000221DE5E64E0E511CFFEF2F1A3F0A0F9081
:104D40000F9088ED481689E0580609F0B9CF212C5C
:104D5000312C910143E050E060E070E0C3010E941B
:104D6000D81CB20164567109882777FD8095982F69
:104D70000E94C335ED966CAF7DAF8EAF9FAFED97C0
:104D8000B201882777FD8095982F0E94C335AB012B
:104D9000BC011F929AE09F93AAE08A2E912CA12C2D
:104DA000B12CBCE5CB2EBFE8DB2EB2E8EB2EBFE387
:104DB000FB2EED960CAD1DAD2EAD3FADED97C301B5
:104DC0000E94221DE5E64E1A5108FFEF2F1A3F0AF6
:104DD0000F900F9086EE481685E0580609F0B9CF7F
:104DE000212C312C910143E050E060E070E0C301E0
:104DF0000E94D81CB20164567109882777FD8095FE
:104E0000982F0E94C335ED966CAF7DAF8EAF9FAFEC
:104E1000ED97B201882777FD8095982F0E94C335C2
:104E2000AB01BC011F929AE09F93EAE08E2E912C79
:104E3000A12CB12CFCE5CF2EFFE8DF2EF2E8EF2EFF
:104E4000FFE3FF2EED960CAD1DAD2EAD3FADED9702
:104E5000C3010E94221DE5E64E1A5108FFEF2F1AEA
:104E60003F0A0F900F9084EF481681E0580609F032
:104E7000B9CFEF96EEADFFADEF973197EF96FFAF5D
:104E8000EEAFEF97EF2B09F0CCCEC3010E945F117C
:104E900064E670E080E090E00E945431BEC04FE0D4
:104EA00050E060E070E0C3010E94541C90E4C92E01
:104EB00096E0D92E2AE5422E512CCE0101961C01F6
:104EC0003AE5A32EB12C44EB842E912CF10188E01D
:104ED00011928A95E9F7BA82A982BC82AB825E827E
:104EE0004D82C4018419950998878F83A1016AE0D6
:104EF00070E0C3010E94A012B601882777FD80955B
:104F0000982F0E94C335AB01BC01EE24E394F12C31
:104F10000FE010E020E030E0C3010E94EF1C9FEFA3
:104F2000491A590AE4E1CE0ED11CF6E94F16510494
:104F300069F64EE050E060E070E0C3010E94541C4E
:104F4000A0EFAA2EAAE0BA2EB6E9CB2ED12C1AE5F4
:104F5000412E512C04EB802E912CF10188E011920E
:104F60008A95E9F75A8249825C824B82DE82CD8241
:104F7000C4018C199D0998878F83A1016AE070E0B4
:104F8000C3010E94A012B501882777FD8095982F54
:104F90000E94C335AB01BC01EE24E394F12C0FE079
:104FA00010E020E030E0C3010E94EF1C91E0C91A3C
:104FB000D108E4E1AE0EB11CFAE5CF16D10469F6D2
:104FC0004BE050E060E070E0C3010E94541C04E13B
:104FD00010E024EF31E040E050E060E87FE3C301FF
:104FE0000E94E2186CE070E0C3010E94BC1D4CE01E
:104FF00050E060E070E0C3010E94541C24EF31E0F7
:1050000040E050E060E87FE3C3010E94E218C30182
:105010000E940E15C3010E945F114BE050E060E05A
:1050200070E0C3010E94541C81C047E150E060E081
:1050300070E0C3010E94541CAE014F5D5F4F6CE2F3
:1050400071E0C3010E94A012EE24E394F12C08EC5D
:1050500010E020E030E040E050E061E674E4C3019D
:105060000E94EF1C48E150E060E070E0C3010E9444
:10507000541CAE01475E5F4F6CE271E0C3010E94B9
:10508000A01208EC10E020E030E040E050E066E1E3
:1050900074E4C3010E94EF1C44E150E060E070E062
:1050A000C3010E94541CAE014F5E5F4F6CE271E081
:1050B000C3010E94A01208EC10E020E030E040E0C4
:1050C00050E066E973E4C3010E94EF1CAE01475F44
:1050D0005F4F6CE271E0C3010E94A0124AE150E010
:1050E00060E070E0C3010E94541CC3010E9458128A
:1050F00008E918E020E030E040E050E066E173E4C9
:10510000C3010E94EF1C68E572E080E090E00E941D
:105110005431C3010E945F114BE050E060E070E049
:10512000C3010E94541CC3010E940E15CE57DF4FCD
:105130000FB6F894DEBF0FBECDBFDF91CF911F91A8
:105140000F91FF90EF90DF90CF90BF90AF909F9026
:105150008F907F906F905F904F903F902F90089529
:1051600021E030E0FC01E20FF31F10822F5F3F4F80
:1051700024323105B9F7FC0115A214A2089520E2EA
:1051800030E0FC0137A326A32DE020A716A615A624
:105190000C94B028AC01455D5F4FBC016A5D7F4F48
:1051A00080E090E00C94AE39FF920F931F93CF9361
:1051B000DF93EC018A012DA53EA52E30310504F5C3
:1051C00085E2F82EF29EC001F39E900D11248F9679
:1051D00043E250E08C0F9D1F0E949F392DA53EA5F4
:1051E000F29EC001F39E900D11248C0F9D1FFC01B7
:1051F000EE5AFF4F118300832F5F3F4F3EA72DA72D
:10520000DF91CF911F910F91FF9008958B5C9D4F7F
:10521000FC017183608308952F923F924F925F92B9
:105220006F927F928F929F92AF92BF92CF92DF92B6
:10523000EF92FF920F931F93CF93DF9300D000D094
:10524000CDB7DEB79C838B8311E05C012BE2A20E0D
:10525000B11C1C0136E2230E311C2C018FEF481AC1
:10526000580ACB80DC809FE2C90ED11C2B813C8187
:105270002B5C3D4F3A83298384E797E00E94D22933
:10528000181619060CF077C0112309F474C084E7CE
:1052900097E00E94EB29EB81FC81808390A5891324
:1052A00044C0AB81BC8195961C921E929497A50137
:1052B000B101C2010E94AE393C01EB81FC8192A791
:1052C00081A7009709F457C085A496A4760100E051
:1052D00010E008151905FCF443E250E0B701C301E2
:1052E0000E949139F5E2EF0EF11C892B89F425E239
:1052F000209FC001219F900D11242B813C81820FA2
:10530000931FFC01EE5AFF4F0190F081E02D07C082
:105310000F5F1F4FDECFA981BA81ED91FC910995F6
:105320008B819C810E94B02810E0AB81BC810C91E4
:10533000802F992787FD90950E948339892B09F446
:105340009BCFEB81FC8124A135A1C901019695A3D6
:1053500084A3E20FF31F0183EB81FC81E80FF91FA7
:10536000118283970CF488CFAB81BC8195961C92F7
:105370001E92949781CF0F900F900F900F90DF9116
:10538000CF911F910F91FF90EF90DF90CF90BF9042
:10539000AF909F908F907F906F905F904F903F90D5
:1053A0002F900895FC01818D228D90E0805C9F4FAD
:1053B000821B91098F7399270895FC01918D828D2D
:1053C000981731F0828DE80FF11D858D90E00895DA
:1053D0008FEF9FEF0895FC01918D828D981761F0FA
:1053E000828DDF01A80FB11D5D968C91928D9F5F1C
:1053F0009F73928F90E008958FEF9FEF08958FE64F
:105400009BE2892B49F080E090E0892B29F00E94F3
:105410006F2B81110C9400000895FC01848DDF0135
:10542000A80FB11DA35ABF4F2C91848D90E0019617
:105430008F739927848FA689B7892C93A089B18906
:105440008C9180648C93938D848D981306C0028810
:10545000F389E02D80818F7D80830895CF93DF9342
:10546000EC01888D8823C9F0EA89FB89808185FD5C
:1054700005C0A889B9898C9186FD0FC00FB607FCBD
:10548000F5CF808185FFF2CFA889B9898C9185FFFE
:10549000EDCFCE010E940D2AE7CFDF91CF91089585
:1054A000CF92DF92FF920F931F93CF93DF931F92C0
:1054B000CDB7DEB76C0181E0D60158968C93589732
:1054C0005B969C915B975C968C915C97981307C058
:1054D0005096ED91FC915197808185FD2EC0F6018B
:1054E000038D10E00F5F1F4F0F731127F02EF60191
:1054F000848DF81211C00FB607FCF9CFD601509673
:10550000ED91FC915197808185FFF1CFC6016983B0
:105510000E940D2A6981EBCF838DE80FF11DE35ABC
:10552000FF4F6083D6015B960C935B975296ED918B
:10553000FC915397808180620CC0D6015696ED9104
:10554000FC91579760835096ED91FC915197808123
:105550008064808381E090E00F90DF91CF911F9174
:105560000F91FF90DF90CF900895BF92CF92DF927E
:10557000EF92FF92CF93DF93EC016A017B01B22E91
:10558000E889F98982E08083411581EE5807610539
:105590007105A1F060E079E08DE390E0A70196014C
:1055A0000E9491372150310941095109569547957B
:1055B00037952795211580E1380798F0E889F98912
:1055C000108260E874E88EE190E0A70196010E94E5
:1055D0009137215031094109510956954795379521
:1055E0002795EC85FD853083EE85FF852083188E19
:1055F000EC89FD89B082EA89FB89808180618083A2
:10560000EA89FB89808188608083EA89FB898081BF
:1056100080688083EA89FB8980818F7D8083DF9128
:10562000CF91FF90EF90DF90CF90BF9008951F92A1
:105630000F920FB60F9211242F938F939F93EF9396
:10564000FF93E0918407F09185078081E0918A07BC
:10565000F0918B0782FD12C0908180918D078F5F42
:105660008F7320918E07821751F0E0918D07F0E043
:10567000EC58F84F958F80938D0701C08081FF9182
:10568000EF919F918F912F910F900FBE0F901F90D0
:1056900018951F920F920FB60F9211242F933F93DC
:1056A0004F935F936F937F938F939F93AF93BF932A
:1056B000EF93FF9384E797E00E940D2AFF91EF910B
:1056C000BF91AF919F918F917F916F915F914F911A
:1056D0003F912F910F900FBE0F901F90189584E768
:1056E00097E00E94D22921E0892B09F420E0822F43
:1056F0000895109277071092760788EE93E0A0E065
:10570000B0E08093780790937907A0937A07B093DD
:105710007B0780E893E0909375078093740785EC8E
:1057200090E0909381078093800784EC90E09093C1
:1057300083078093820780EC90E0909385078093A5
:10574000840781EC90E0909387078093860782EC32
:1057500090E0909389078093880786EC90E090937F
:105760008B0780938A0710928D0710928E071092F4
:105770008F07109290070895CF92DF92EF92FF92D9
:105780000F931F93CF93DF937C016A01EB0100E03D
:1057900010E00C151D0571F06991D701ED91FC9198
:1057A0000190F081E02DC7010995892B19F00F5F59
:1057B0001F4FEFCFC801DF91CF911F910F91FF9045
:1057C000EF90DF90CF9008956115710581F0DB01B6
:1057D0000D900020E9F7AD0141505109461B570BD0
:1057E000DC01ED91FC910280F381E02D099480E0D1
:1057F00090E00895EF92FF920F931F93CF93DF9362
:105800008C017B01C0E0D0E0F701EC0FFD1F64913B
:10581000662359F0F801A081B181ED91FC91C80196
:105820000995892B11F02196EFCFCE01DF91CF9111
:105830001F910F91FF90EF9008950C94E42BDC01E1
:10584000ED91FC910190F081E02D09946CE873E0FA
:105850000C94E42B0F931F93CF93DF93EC010E94E2
:10586000FA2B8C01CE010E94262C800F911FDF9114
:10587000CF911F910F9108950F931F93CF93DF93B3
:10588000EC010E941F2C8C01CE010E94262C800F5F
:10589000911FDF91CF911F910F9108958F929F9249
:1058A000AF92BF92DF92EF92FF920F931F93CF932D
:1058B000DF93CDB7DEB7A1970FB6F894DEBF0FBE6A
:1058C000CDBF7C01F42FD52ECB0119A2223008F4D4
:1058D0002AE08E010F5D1F4F822E912CA12CB12C3E
:1058E0006F2F7D2DA50194010E949137F22FD32EA9
:1058F000CA01015011096A3014F4E0E301C0E7E382
:10590000E60FD801EC93232B242B252B49F7B80164
:10591000C7010E94E42BA1960FB6F894DEBF0FBE1C
:10592000CDBFDF91CF911F910F91FF90EF90DF904E
:10593000BF90AF909F908F900895CF92DF92EF929B
:10594000FF920F931F93CF93DF93EC016A017B01CA
:105950002115310579F4E881F9810190F081E02D7C
:10596000642FDF91CF911F910F91FF90EF90DF9007
:10597000CF9009942A303105E9F477FF1AC06DE21F
:105980000E941F2C8C0144275527BA014C195D0930
:105990006E097F092AE0CE010E944E2C800F911FD4
:1059A000DF91CF911F910F91FF90EF90DF90CF90FB
:1059B00008952AE0B701A601CE01DF91CF911F9192
:1059C0000F91FF90EF90DF90CF900C944E2C9A01A6
:1059D000AB01662757FD6095762F0C949D2C4F9256
:1059E0005F926F927F928F929F92AF92BF92CF926F
:1059F000DF92EF92FF920F931F93CF93DF93EC010F
:105A00006A017B01B22E9A01AB01C701B6010E9467
:105A1000E036882319F06FE873E027C026013701CC
:105A2000E89477F82FEF3FEF4FE75FE7C301B2014C
:105A30000E94E03681110DC02FEF3FEF4FE75FE787
:105A4000C301B2010E94243518161CF463E973E007
:105A50000CC02FEF3FEF4FE75FE4C701B6010E9494
:105A600073361816ACF467E973E0CE01DF91CF917D
:105A70001F910F91FF90EF90DF90CF90BF90AF906C
:105A80009F908F907F906F905F904F900C94E42B3D
:105A90002FEF3FEF4FE75FECC701B6010E942435BF
:105AA00087FDE1CF20E030E0A901C701B6010E94E7
:105AB000243587FF0AC06DE2CE010E941F2C8C01A5
:105AC000F7FAF094F7F8F09402C000E010E0A12C8F
:105AD00060E070E080E09FE3AB1441F020E030E054
