:100000000C94F0000C940B030C9432030C945903E1
:100010000C94BC030C941F040C9418010C9497309E
:100020000C9418010C9418010C9418010C94C10F35
:100030000C9418010C9418010C9418010C941801DC
:100040000C9492310C9418010C94A02B0C94D22B8C
:100050000C9418010C9418010C9418010C941801BC
:100060000C9418010C941801320B370B3E0B4D0BFE
:10007000540B630B740B800B940BA50BB10BC50BCE
:10008000D20BDE0BF20B030C0A0C170C1E0C2B0C04
:100090003C0CB90EBC0EBF0EC20EC50EC80ECB0E68
:1000A000CE0ED10ED40ED70EDA0EDD0E110F140FB8
:1000B000170F1A0F1D0F200F230F260F290F2C0FBC
:1000C0002F0F320F350F380F3B0F3E0F410F440FEC
:1000D000470F5C1E831EAD1EE61EFF1E181F3E1F2F
:1000E000721FAB1FE41F182045206F20A020D020D6
:1000F000E9203B215421722164228C22C7225923FA
:10010000062483249824BB246D255D225622D827FB
:100110009E2805A84CCDB2D44EB93836A9020C5051
:10012000B9918688083CA6AAAA2ABE000000803F92
:10013000252500460026260025250041002626000C
:1001400025250049200026260025250042200026DE
:1001500026002525004E20002626002525004420C7
:100160000026260025250045200026260000010245
:10017000030405060700010203040500010203044D
:10018000050200000008000201000003040700004F
:10019000000000000000010204081020408001025D
:1001A00004081020010204081020040404040404BC
:1001B0000404020202020202030303030303000019
:1001C0000000230026002900000000002500280070
:1001D0002B0000000000240027002A003D06022C0E
:1001E00011241FBECFEFD8E0DEBFCDBF13E0A0E0EB
:1001F000B1E0E0E4F4E702C005900D92AE38B1073B
:10020000D9F728E0AEE8B3E001C01D92A431B207EF
:10021000E1F711E0C0EED1E004C02297FE010E9498
:10022000F437CC3DD107C9F70E9483310C941E3AB4
:100230000C940000CF92DF92EF92FF920F931F93E6
:10024000E82FF92F05C0015011092109310961F189
:10025000908196239417B9F305C001501109210923
:10026000310911F1908196239413F7CFC12CD12C31
:10027000E12CF12C0AC08FEFC81AD80AE80AF80A54
:100280000C151D052E053F0579F080818623841706
:1002900091F36C2D7D2D8E2D9F2D1F910F91FF9031
:1002A000EF90DF90CF90089560E070E080E090E004
:1002B0001F910F91FF90EF90DF90CF90089581E014
:1002C000809396039091970391110BC080939703AD
:1002D00021E04FE050E060E070E08CE993E00C94A6
:1002E000711D089581E0809395039091970391117A
:1002F0000BC08093970321E04FE050E060E070E096
:100300008CE993E00C94711D0895EF92FF920F9386
:100310001F93CF93DF931F92CDB7DEB77C01FC0113
:1003200000811181C80169830E94FD3969816817C4
:1003300019F0C8010E94053AC7010F90DF91CF91D3
:100340001F910F91FF90EF9008950F931F93CF93FC
:10035000DF9300D0CDB7DEB78B01FB0160819A83BC
:100360008983CE0101960E948501C8010F900F90EC
:10037000DF91CF911F910F910895A82FAF7787FD3F
:1003800005C08EEF8A0F823008F499C0B0E0FD01FD
:10039000EA56FE4F2491FD01E655FE4F8491942FBD
:1003A0009D7F9130B9F4823031F490911E07922BE9
:1003B00090931E070FC0833031F490910F07922B5A
:1003C00090930F0707C0843029F49091FC06922B7C
:1003D0009093FC0641504230B8F4823031F4909151
:1003E0001D07922B90931D070FC0833031F490911D
:1003F0000E07922B90930E0707C0843029F490913A
:10040000FB06922B9093FB06FD01E359FE4FA4914E
:100410008230C1F4B0E0AA0FBB1FA15EB84F6D934C
:100420007C93E2ECF1E0A591B4918C9180931C0750
:100430008BE690E09093300780932F0780916800BF
:10044000816033C08330C1F4B0E0AA0FBB1FA05F4E
:10045000B84F6D937C93E4ECF1E0A591B4918C914D
:1004600080930D078CE690E09093300780932F07E0
:1004700080916800826019C08430C9F4B0E0AA0F8E
:10048000BB1FA350B94F6D937C93E6ECF1E0A591AF
:10049000B4918C918093FA068DE690E090933007AA
:1004A00080932F0780916800846080936800A091FA
:1004B0002F07B09130078C91822B8C9316C09FB779
:1004C000F894A230B1F470932C0760932B07E8984E
:1004D000809169008C7F8093690080916900842BF2
:1004E00080936900E09AE89A9FBF8FB780688FBFBA
:1004F000089570932E0760932D07E9988091690005
:10050000837F809369008091690024E0429FA0016D
:100510001124842B80936900E19AE99AE5CF3FB7D3
:10052000F894982F9F7787FD05C08EEF890F823052
:1005300008F45EC0892F90E0FC01EA56FE4F24913A
:10054000FC01E655FE4F84918230D1F480916B001E
:100550002095822380936B0080916B00811105C0F0
:10056000809168008E7F8093680080911E078223AF
:1005700080931E0780911D07822380931D0741C031
:100580008330D1F480916C002095822380936C009D
:1005900080916C00811105C0809168008D7F8093EF
:1005A000680080910F07822380930F0780910E07C8
:1005B000822380930E0725C0843019F580916D0049
:1005C0002095822380936D0080916D00811105C07C
:1005D000809168008B7F809368008091FC06822365
:1005E0008093FC068091FB0682238093FB0609C062
:1005F000923049F4E898809169008C7F809369007B
:10060000E09A3FBF0895E99880916900837F8093C5
:100610006900E19AF6CF1F920F920FB60F92112444
:100620002F933F934F935F936F937F938F939F93FA
:10063000AF93BF93EF93FF93E0912B07F0912C07BB
:100640000995FF91EF91BF91AF919F918F917F910C
:100650006F915F914F913F912F910F900FBE0F902F
:100660001F9018951F920F920FB60F9211242F937F
:100670003F934F935F936F937F938F939F93AF932A
:10068000BF93EF93FF93E0912D07F0912E0709950B
:10069000FF91EF91BF91AF919F918F917F916F915A
:1006A0005F914F913F912F910F900FBE0F901F9030
:1006B00018951F920F920FB60F9211242F933F930C
:1006C0004F935F936F937F938F939F93AF93BF935A
:1006D000CF93EF93FF9393B1C0911C0720911E0716
:1006E00030911D07892F809583232923822B209108
:1006F0006B00C927C223C82390931C07CC2351F158
:10070000C0FF05C0E0911F07F09120070995C1FFC8
:1007100005C0E0912107F09122070995C2FF05C0AD
:10072000E0912307F09124070995C3FF05C0E091EC
:100730002507F09126070995C4FF05C0E09127071A
:10074000F09128070995C5FF05C0E0912907F091B0
:100750002A070995FF91EF91CF91BF91AF919F919A
:100760008F917F916F915F914F913F912F910F905A
:100770000FBE0F901F9018951F920F920FB60F92F9
:1007800011242F933F934F935F936F937F938F9396
:100790009F93AF93BF93CF93EF93FF9396B1C09185
:1007A0000D0720910F0730910E07892F8095832325
:1007B0002923822B20916C00C927C223C823909340
:1007C0000D07CC2351F1C0FF05C0E0911007F09157
:1007D00011070995C1FF05C0E0911207F0911307B9
:1007E0000995C2FF05C0E0911407F091150709951E
:1007F000C3FF05C0E0911607F09117070995C4FFE4
:1008000005C0E0911807F09119070995C5FF05C0CB
:10081000E0911A07F0911B070995FF91EF91CF9195
:10082000BF91AF919F918F917F916F915F914F9108
:100830003F912F910F900FBE0F901F9018951F9210
:100840000F920FB60F9211242F933F934F935F9304
:100850006F937F938F939F93AF93BF93CF93EF93B8
:10086000FF9399B1C091FA062091FC063091FB06E6
:10087000892F809583232923822B20916D00C927FE
:10088000C223C8239093FA06CC23C1F1C0FF05C050
:10089000E091FD06F091FE060995C1FF05C0E091CB
:1008A000FF06F09100070995C2FF05C0E09101071E
:1008B000F09102070995C3FF05C0E0910307F0918D
:1008C00004070995C4FF05C0E0910507F0910607EC
:1008D0000995C5FF05C0E0910707F0910807099544
:1008E000C6FF05C0E0910907F0910A070995C7FF07
:1008F00005C0E0910B07F0910C070995FF91EF916E
:10090000CF91BF91AF919F918F917F916F915F91A7
:100910004F913F912F910F900FBE0F901F90189500
:100920008CE993E00E944C1C0E94B0356F30710539
:1009300024F481E080938E03089510928E0308952D
:100940008F929F92AF92BF92CF92DF92EF92FF92DF
:100950000F931F93CF938CE993E00E94791C20E0C2
:1009600030E044E352E40E94443587FF54C0C3E0C2
:100970008091970381114FC021E04CE150E060E08D
:1009800070E08CE993E00E94711D1F92CF9348E0C4
:10099000842E912CA12CB12C58EBC52E5EE1D52EC6
:1009A00055E8E52E5FE3F52E00E010E02AEF34E491
:1009B00040E050E06CE574E48CE993E00E94AB1DEC
:1009C0006EE170E080E090E00E940B321F92CF93C6
:1009D0006CE5C62E6FE8D62E62E8E62E6FE3F62EA3
:1009E00000E010E02CE534E440E050E06AEF74E40D
:1009F0008CE993E00E94AB1D8CE993E00E94761D88
:100A000064EF71E080E090E00E940B320F900F9055
:100A10000F900F90ADCFCF911F910F91FF90EF905E
:100A2000DF90CF90BF90AF909F908F9008954F929E
:100A30005F926F927F928F929F92AF92BF92CF926E
:100A4000DF92EF92FF920F931F93CF93DF93CDB777
:100A5000DEB728970FB6F894DEBF0FBECDBF88E093
:100A6000EAE0F1E0DE01119601900D928A95E1F73E
:100A700080919703811109C0AE014F5F5F4F6CEB0E
:100A800072E08CE993E00E94D713F4E06F2E712C92
:100A9000AAE05A2E44244394809197038823A1F01E
:100AA000809197038111C1C021E043E150E060E0F3
:100AB00070E08CE993E00E94711D69E070E08CE9C0
:100AC00093E00E94451EB1C020E030E041E050E0DC
:100AD00060E070E08CE993E00E94611D1F925F92DC
:100AE0007AE0872E912CA12CB12CE8EBCE2EEEE1F2
:100AF000DE2EE5E8EE2EEFE3FE2E00E010E028E427
:100B000033E440E050E068EC72E48CE993E00E944A
:100B1000AB1D809197030F900F908111C1CF21E001
:100B200030E041E050E060E070E08CE993E00E944A
:100B3000611D1F925F9200E010E026E933E440E07F
:100B400050E068E473E48CE993E00E94AB1D80916F
:100B500097030F900F908111A3CF22E030E041E086
:100B600050E060E070E08CE993E00E94611D1F920C
:100B70005F9200E010E02AEF33E440E050E066E9E5
:100B800073E48CE993E00E94AB1D64EF71E080E0B8
:100B900090E00E940B32809197030F900F9081118B
:100BA0007FCF21E030E041E050E060E070E08CE990
:100BB00093E00E94611D1F924F9200E010E02AE72F
:100BC00033E440E050E068EC73E48CE993E00E9489
:100BD000AB1D809197030F900F90811161CF20E0A2
:100BE00030E041E050E060E070E08CE993E00E948A
:100BF000611D1F924F9200E010E028EC32E440E0CB
:100C000050E06AE773E48CE993E00E94AB1D64EF67
:100C100071E080E090E00E940B3281E0681A710878
:100C20000F900F9009F038CF3BCF8CE993E00E94F2
:100C30003E1680919703811109C021E04BE050E0FE
:100C400060E070E08CE993E00E94711D28960FB679
:100C5000F894DEBF0FBECDBFDF91CF911F910F91F2
:100C6000FF90EF90DF90CF90BF90AF909F908F90CC
:100C70007F906F905F904F900895CF93DF9381ECBA
:100C800094E00E9448292CE04DE06BE08CE993E071
:100C90000E94671283EA93E00E94D211C4EAD3E073
:100CA000CE010E947D10188A1F86E99684E0C8381C
:100CB000D807B1F788E894E0DF91CF910C949C12AB
:100CC000CF92DF92EF92FF920F931F93CF93DF9318
:100CD000CDB7DEB72B970FB6F894DEBF0FBECDBFF2
:100CE0008CE993E00E943E1619821A821B821C82B4
:100CF000FE01359687E0DF011D928A95E9F78E01A6
:100D00000F5F1F4FB5E0EB2EF12C6801C7010E9469
:100D1000FD39F80181938F01FFEFEF1AFF0A80E19F
:100D2000E816F10499F76AE671E087E597E00E941A
:100D3000832C67E671E087E597E00E94832CB6017B
:100D400087E597E00E94A62C64E671E087E597E0CE
:100D50000E94B32C87E597E00E94B72A2B960FB626
:100D6000F894DEBF0FBECDBFDF91CF911F910F91E1
:100D7000FF90EF90DF90CF900895CF92DF92EF92A7
:100D8000FF928CE993E00E943E168CE993E00E946A
:100D90004C1C6B017C0161E671E087E597E00E94E5
:100DA000832C6EE571E087E597E00E94832CC701F4
:100DB000B6010E94B0354AE050E087E597E00E9416
:100DC0005E2D6BE571E087E597E00E94B32C87E527
:100DD00097E0FF90EF90DF90CF900C94B72ACF93DD
:100DE000DF938CE993E00E943E168CE993E00E9429
:100DF000501CEC0168E571E087E597E00E94832CC8
:100E000065E571E087E597E00E94832C4AE050E0B9
:100E1000BE0187E597E00E945E2D62E571E087E5FF
:100E200097E00E94B32C87E597E0DF91CF910C9477
:100E3000B72ACF92DF92EF92FF928CE993E00E9463
:100E40003E168CE993E00E94791C6B017C016FE4F3
:100E500071E087E597E00E94832C6CE471E087E500
:100E600097E00E94832C22E030E0B701A60187E5DD
:100E700097E00E94512E69E471E087E597E00E94B7
:100E8000B32C87E597E0FF90EF90DF90CF900C9424
:100E9000B72A8CE993E00E943E1666E471E087E58C
:100EA00097E00E94832C63E471E087E597E00E945D
:100EB000832C6FE573E087E597E00E94A62C60E441
:100EC00071E087E597E00E94B32C87E597E00C94EA
:100ED000B72A8F929F92AF92BF92CF92DF92EF92FA
:100EE000FF920F931F93CF93DF931F92CDB7DEB77F
:100EF00026E040E052EC61E070E087E597E00E9478
:100F00003E2B60E086E00E94D13260E087E00E94E4
:100F1000D1321F9289E08F9308E0802E912C8AE0D5
:100F2000A82EB12C94E1C92ED12CEE24E39405E037
:100F300010E024E030E043E050E062E070E08CE953
:100F400093E00E94141384E10E948B32BC01882735
:100F500077FD8095982F0E94F33043E06FE571E0B4
:100F600086E00E94BD0143E062E771E087E00E94F5
:100F7000BD0143EA59E062E473E081EC94E00E9431
:100F80005D294BEA59E064E473E081EC94E00E944F
:100F90005D2945EE59E066E473E081EC94E00E943F
:100FA0005D2947E359E068E473E081EC94E00E9436
:100FB0005D294DE85EE06AE473E081EC94E00E9414
:100FC0005D2945EE5EE06CE473E081EC94E00E9404
:100FD0005D2942E45AE06EE473E081EC94E00E9403
:100FE0005D2946EA5AE060E573E081EC94E00E94F6
:100FF0005D294FE45FE062E573E081EC94E00E94DC
:101000005D2940E656E064E573E081EC94E00E94DF
:101010005D294DEB56E066E573E081EC94E00E94BB
:101020005D294FEE56E068E573E081EC94E00E94A4
:101030005D2949E157E06AE573E081EC94E00E94A4
:101040005D2949E457E06CE573E081EC94E00E948F
:101050005D2963EA79E081EC94E00E948F2960E0E9
:1010600070E08CE993E00E94451E8CE993E00E94B9
:101070003E1685E090E00E94FD390F900F9084327B
:10108000F1F46EE573E085E090E00E94A50119821D
:10109000BE016F5F7F4F86E090E00E94A50121E0D6
:1010A0004DE150E060E070E08CE993E00E94711D3A
:1010B00068EE73E080E090E00E940B32F9CF0E946E
:1010C000600662E370E080E090E00E940B320E94D4
:1010D000490762E370E080E090E00E940B320E94DA
:1010E00019070E94A00412E0E12EF12C00E010E0AC
:1010F00080919703882329F081E0E81AF108A9F08C
:10110000F5CF980140E050E0BA018CE993E00E94ED
:10111000611D66E970E080E090E00E940B320F5F95
:101120001F4F0830110521F7E7CF809197038111F8
:1011300015C021E04AE050E060E070E08CE993E007
:101140000E94711D6BE070E08CE993E00E94451EE7
:1011500068EC70E080E090E00E940B3285E090E067
:101160000E94FD39833209F041C0809197038111BB
:1011700010C02CEB32E040E050E060E87FE38CE907
:1011800093E00E94841668EC70E080E090E00E949A
:101190000B328091970381110CC040910601509150
:1011A000070121E030E061E070E08CE993E00E940B
:1011B000151880919703811119C021E04FE050E08C
:1011C00060E070E08CE993E00E94711D04E110E0A2
:1011D00020E233E040E050E060E070E48CE993E02E
:1011E0000E941A198CE993E00E943E1680919703A1
:1011F000811109C021E04BE050E060E070E08CE933
:1012000093E00E94711D0E94DC3160939103709302
:10121000920380939303909394030F90DF91CF9167
:101220001F910F91FF90EF90DF90CF90BF90AF9004
:101230009F908F9008956EE170E080E090E00E94B2
:101240000B326DE371E087E597E00E94832C6BE33E
:1012500071E087E597E00E94832C68E371E087E501
:1012600097E00E94B32C87E597E00C94B72A0E9480
:101270001B098CE993E00E947A16882329F060E02C
:101280008CE993E00E947F1681EC94E00E94532940
:10129000009739F00E94833990939B0380939A03BF
:1012A00017C021E04AE150E060E070E08CE993E093
:1012B0000E94711D60ED77E080E090E00E940B32AB
:1012C0008CE993E00E94761D10929B0310929A0382
:1012D00081EC94E00E945329009719F00E94833911
:1012E00002C088EE93E0909307018093060181ECA1
:1012F00094E00E945329009719F00E94833902C09C
:101300008FE090E0909305018093040108956EE1D1
:1013100070E080E090E00E940B3265E371E087E5C9
:1013200097E00E94832C63E371E087E597E00E94D9
:10133000832C60E371E087E597E00E94B32C87E59A
:1013400097E00C94B72A0E941B098CE993E00E9455
:101350003E160C948709CF93DF9300D0CDB7DEB74C
:101360000E941B098CE993E00E943E1681EC94E0F8
:101370000E945329009779F042E050E0BE016F5F70
:101380007F4F0E946F38AB01BC0120E08CE993E0F5
:101390000E94711D13C021E04AE150E060E070E05E
:1013A0008CE993E00E94711D60ED77E080E090E0B1
:1013B0000E940B328CE993E00E94761D0E948709FF
:1013C0000F900F90DF91CF9108958F929F92AF92DF
:1013D000BF92EF92FF920F931F93CF93DF930E94E0
:1013E0001B098CE993E00E943E1681EC94E00E9478
:1013F0005329009729F00E948339EC0110E001C0C5
:1014000011E081EC94E00E945329009721F00E94A2
:1014100083391123A1F021E04AE150E060E070E05F
:101420008CE993E00E94711D60ED77E080E090E030
:101430000E940B328CE993E00E94761D17C04C018C
:10144000AA2497FCA094BA2CBE01882777FD80952A
:10145000982F0E94E335AB01BC01EE24E394F12CFC
:10146000950184018CE993E00E94781DDF91CF9172
:101470001F910F91FF90EF90BF90AF909F908F9032
:101480000C948709CF92DF92EF92FF920F931F93F4
:10149000CF93DF930E941B098CE993E00E943E16D4
:1014A00081EC94E00E945329009729F00E9483392F
:1014B000EC0110E001C011E081EC94E00E9453299E
:1014C000009721F00E9483397C0101C011E081EC7A
:1014D00094E00E945329009721F00E9483396C0107
:1014E00001C011E081EC94E00E945329009721F0A3
:1014F0000E9483391123A1F021E04AE150E060E02D
:1015000070E08CE993E00E94711D60ED77E080E06F
:1015100090E00E940B328CE993E00E94761D0CC093
:101520008C019601A701BE018CE993E00E94A613ED
:101530008CE993E00E94B813DF91CF911F910F9136
:10154000FF90EF90DF90CF900C948709BF92CF92DD
:10155000DF92EF92FF920F931F93CF93DF93CDB75C
:10156000DEB728970FB6F894DEBF0FBECDBF0E943E
:101570001B098EE190E090939B0380939A0381EC8A
:1015800094E00E945329009729F00E9483396C014E
:10159000B12C02C0BB24B39481EC94E00E94532987
:1015A000009721F00E9483397C0102C0BB24B394D0
:1015B00081EC94E00E945329009721F00E94833926
:1015C0008C0102C0BB24B39481EC94E00E945329A7
:1015D000009721F00E948339BB20A1F021E04AE16D
:1015E00050E060E070E08CE993E00E94711D60EDD6
:1015F00077E080E090E00E940B328CE993E00E945B
:10160000761D11C0DA82C982FC82EB821E830D83B3
:1016100098878F83AE014F5F5F4F68EC70E08CE975
:1016200093E00E94D7130E94870928960FB6F8947A
:10163000DEBF0FBECDBFDF91CF911F910F91FF9005
:10164000EF90DF90CF90BF900895EF92FF920F93AD
:101650001F938531910508F025C1FC01EC5CFF4F1B
:101660000C94F2378CE993E00E943E1615C120914C
:1016700006013091070101E010E006C0209106014B
:10168000309107010FEF1FEF40E050E060E87FE38B
:101690008CE993E00E94C116FFC0209106013091B1
:1016A000070101E010E006C020910601309107011A
:1016B0000FEF1FEF40E050E060E87FE38CE993E03C
:1016C0000E943117E9C00091040110910501209199
:1016D00006013091070140E050E060E87FE38CE9CB
:1016E00093E00E94D018D8C0009104011091050128
:1016F0002091060130910701EE24E394F12C0BC0F8
:10170000009104011091050120910601309107011B
:10171000EE24EA94FE2C40E050E060E87FE38CE9A0
:1017200093E00E944B1AB8C000910401109105018A
:10173000209106013091070140E050E060E87FE32E
:101740008CE993E00E941A19A7C00091040110913E
:1017500005012091060130910701EE24E394F12C5C
:101760000BC00091040110910501209106013091F8
:101770000701EE24EA94FE2C40E050E060E87FE3AD
:101780008CE993E00E94FD1A87C0209106013091F8
:10179000070140E050E060E87FE38CE993E00E94BD
:1017A00084167AC000910401109105012091060170
:1017B00030910701EE24E394F12C0BC00091040159
:1017C000109105012091060130910701EE24EA9461
:1017D000FE2C40E050E060E87FE38CE993E00E945B
:1017E0009E1B5AC000910401109105012091060131
:1017F0003091070140E050E060E87FE38CE993E03E
:101800000E946B1949C0409106015091070121E0E7
:1018100030E006C040910601509107012FEF3FEFE5
:1018200061E070E08CE993E00E948D1735C0409133
:1018300006015091070121E030E006C04091060109
:10184000509107012FEF3FEF61E070E08CE993E0EA
:101850000E94151821C000910401109105012091EA
:1018600006013091070140E050E060E87FE38CE939
:1018700093E00E94B11910C000910401109105017C
:10188000209106013091070140E050E060E87FE3DD
:101890008CE993E00E94F9191F910F91FF90EF904E
:1018A0000C9487091F910F91FF90EF9008950F936B
:1018B0001F93CF93DF9387E597E00E945B2A18166A
:1018C00019063CF48091980390919903049709F0CC
:1018D000A2C180919703882341F18CE993E00E9493
:1018E0003E1664E670E080E090E00E940B3262E019
:1018F00070E08CE993E00E94451E68EC70E080E0A7
:1019000090E00E940B3280919603882309F49BC1DA
:1019100080919503811197C181E090E090939903A4
:101920008093980363E070E0D6C180919803909112
:1019300099038230910509F440C0B4F40097E1F0B6
:10194000019709F061C101E010E028EE33E040E0CA
:1019500050E060E87FE38CE993E00E94C11660EDFF
:1019600077E080E090E0CEC18330910509F4D6C0E5
:10197000049709F435C148C10E94DC3100919103FC
:10198000109192032091930330919403601B710B8B
:10199000820B930B603878438140910508F4B8C1FD
:1019A0000E9417050E94DC316093910370939203AB
:1019B0008093930390939403ABC180918E0388230B
:1019C00009F49AC080919703811119C021E04EE07B
:1019D00050E060E070E08CE993E00E94711D66E0E9
:1019E00070E08CE993E00E94451E24EF31E040E076
:1019F00050E060EA70E48CE993E00E9484168091E4
:101A0000970381110FC021E044E150E060E070E0F5
:101A10008CE993E00E94711D69E070E08CE993E02D
:101A20000E94451EC3E0D0E080919703882399F07F
:101A300064E670E080E090E00E940B320E94900427
:101A400064E670E080E090E00E940B3280918E03AB
:101A500081115EC10FC00FEF1FEF24E135E040E0C0
:101A600050E060E87FE38CE993E00E94C116219783
:101A7000D9F6DECF8091970381114AC121E04AE077
:101A800050E060E070E08CE993E00E94711D62E339
:101A900070E080E090E00E940B320E949004C3E06E
:101AA000D0E080918E03882329F080918E038111EC
:101AB0002FC106C080919703882309F411C1F5CF87
:101AC00080919703811124C18CE993E00E943E1616
:101AD00021E04BE050E060E070E08CE993E00E9490
:101AE000711D6DE070E08CE993E00E94451E68EC8A
:101AF00070E080E090E006C101E010E028EE33E005
:101B000040E050E060E87FE38CE993E00E94C1167A
:101B1000DF91CF911F910F910C9490048CE993E089
:101B20000E94501C8A3892400CF4F2C062E370E0CC
:101B300080E090E00E940B328091970381113FC0BA
:101B400021E04EE050E060E070E08CE993E00E941C
:101B5000711D67E070E08CE993E00E94451E809162
:101B600097038111D5C025E130E040E050E06AE004
:101B700070E080E090E00E941F31AB01BC0121E0E9
:101B80008CE993E00E94711D25E130E040E050E0D7
:101B900065E070E080E090E00E941F317093900358
:101BA00060938F03CB010E94250B8CE993E00E9488
:101BB0003E1664EF71E080E090E00E940B3280916D
:101BC00097038111A5C021E04BE050E060E070E098
:101BD0008CE993E0DF91CF911F910F910C94711DCF
:101BE00081EC94E00E9495298CE993E00E947A169A
:101BF00081118EC080919A0390919B03DF91CF91C8
:101C00001F910F910C94250B84E090E09093990321
:101C1000809398037DC084E090E090939903809333
:101C2000980321E04BE050E060E070E08CE993E045
:101C30000E94711D86E00E948F0287E00E948F0241
:101C40001092970346CE8091960381110DC080912A
:101C50009503882349F082E090E090939903809364
:101C6000980364E070E037C080919603882321F0E8
:101C700080919503811127C0409198035091990359
:101C8000662757FD6095762F21E08CE993E00E944E
:101C9000711DC8ECD0E06AE070E080E090E00E9446
:101CA0000B322197C1F721E04BE050E060E070E09B
:101CB0008CE993E00E94711D109297031092960395
:101CC0001092950325C083E090E090939903809350
:101CD000980365E070E08CE993E00E94451ECCCF4C
:101CE00001E010E028EE33E040E050E060E87FE300
:101CF0008CE993E00E9431170E949004219709F02B
:101D0000D0CED3CEDF91CF911F910F910C940B3297
:101D1000DF91CF911F910F9108950E941B098CE9CB
:101D200093E00E943E1681EC94E00E9453290097B4
:101D300061F00E94833901978D30910508F043C00E
:101D4000875B9F4FFC010C94F23721E04AE150E0A1
:101D500060E070E08CE993E00E94711D60ED77E037
:101D600080E090E00E940B328CE993E00E94761DA7
:101D70002AC060E070E023C061E070E020C062E053
:101D800070E01DC063E070E01AC064E070E017C04E
:101D900065E070E014C066E070E011C067E070E0DC
:101DA0000EC068E070E00BC069E070E008C06AE057
:101DB00070E005C06BE070E002C06CE070E08CE9A0
:101DC00093E00E94AC210C9487090E941B098CE9C6
:101DD00093E00E943E1681EC94E00E945329009704
:101DE00061F00E94833901978331910508F055C055
:101DF0008A5A9F4FFC010C94F23721E04AE150E0EF
:101E000060E070E08CE993E00E94711D60ED77E086
:101E100080E090E00E940B328CE993E00E94761DF6
:101E20003CC060E070E035C061E070E032C066E068
:101E300070E02FC067E070E02CC068E070E029C05F
:101E400069E070E026C06AE070E023C06BE070E0FB
:101E500020C06CE070E01DC06DE070E01AC06EE064
:101E600070E017C06FE070E014C060E170E011C076
:101E700061E170E00EC062E170E00BC063E070E011
:101E800008C064E070E005C065E070E002C062E098
:101E900070E08CE993E00E94451E0C948709CF9274
:101EA000DF92EF92FF920F931F93CF93DF93CDB703
:101EB000DEB72D970FB6F894DEBF0FBECDBF0E94E0
:101EC0001B098CE993E00E943E1619821A821B823C
:101ED0001C82FE01359687E0DF011D928A95E9F7A5
:101EE00081EC94E00E945329009739F1DC01FE0156
:101EF00031969E2F2F2F6E018CE0C80ED11C8D9134
:101F0000811106C0092F122FA5E0EA2EF12C05C081
:101F1000EC15FD05B9F38193F2CFD8016D918D01D8
:101F2000FD86EC86C6010E948501BFEFEB1AFB0A15
:101F3000E0E1EE16F10489F713C021E04AE150E038
:101F400060E070E08CE993E00E94711D60ED77E045
:101F500080E090E00E940B328CE993E00E94761DB5
:101F60000E9487092D960FB6F894DEBF0FBECDBF35
:101F7000DF91CF911F910F91FF90EF90DF90CF9065
:101F800008951F920F920FB60F9211242F933F9333
:101F90004F935F936F937F938F939F93AF93BF9371
:101FA000EF93FF938091320787FF05C01092850061
:101FB000109284001AC020913207332727FD3095F4
:101FC0008091310790E0281739077CF4809132071F
:101FD000992787FD9095FC01EE0FFF1FE80FF91F71
:101FE000ED5CF84F808186FD15C0809132078F5FD0
:101FF0008093320720913207332727FD3095809157
:10200000310790E028173907BCF4809132078C30F3
:102010005CF112C080913207992787FD9095FC01F1
:10202000EE0FFF1FE80FF91FED5CF84F808160E0B5
:102030008F730E940A33D9CF8091840090918500DC
:10204000049680349C4918F480E49CE905C0809192
:102050008400909185000496909389008093880075
:102060008FEF8093320738C0209184003091850033
:1020700080913207992787FD9095FC01EE0FFF1F95
:10208000E80FF91FED5CF84F81819281820F931F59
:10209000909389008093880080913207992787FD6B
:1020A0009095FC01EE0FFF1FE80FF91FED5CF84F54
:1020B000808186FF11C080913207992787FD909516
:1020C000FC01EE0FFF1FE80FF91FED5CF84F808158
:1020D00061E08F730E940A33FF91EF91BF91AF913E
:1020E0009F918F917F916F915F914F913F912F9130
:1020F0000F900FBE0F901F901895209131072C3034
:10210000A0F431E0320F30933107FC012083822F9D
:1021100090E0FC01EE0FFF1FE80FF91FED5CF84F98
:1021200088EB9BE09283818308952FEFFC0120834D
:102130000895DF92EF92FF920F931F93CF93DF9357
:10214000EC01D62E7A01890188818C3008F066C0B6
:1021500061E08D2D0E94D1328881A82FB0E0FD0171
:10216000EE0FFF1FEA0FFB1FED5CF84F2D2D2F73B5
:102170009081907C922B908360E272E06E197F09CF
:1021800077FF02C06D5F7F4F759567957595679571
:10219000698340E659E0401B510B57FF02C04D5F79
:1021A0005F4F55954795559547954A836CE00E943A
:1021B00091379CE0899FB001112420E030E0A90113
:1021C000460F571FFA01EE0FFF1FE40FF51FED5CDE
:1021D000F84F908196FD16C02F5F3F4F2C30310590
:1021E00071F781110FC01092800082E0809381000E
:1021F0001092850010928400B19A80916F008260E5
:1022000080936F00888190E0FC01EE0FFF1FE80FC4
:10221000F91FED5CF84F8081806480838881DF91B5
:10222000CF911F910F91FF90EF90DF90089520E6DE
:1022300039E040E252E00C949910FC01808190E07A
:10224000FC01EE0FFF1FE80FF91FED5CF84F8081D6
:102250008F7B80830895FC0180818C3070F59181A3
:1022600028E830E0291B310997FD3395220F331FF1
:10227000220F331F621773077CF0928128E532E04A
:10228000291B310997FD3395220F331F220F331F6E
:10229000621773070CF49B0122503109220F331F80
:1022A0004FB7F89490E0FC01EE0FFF1FE80FF91F05
:1022B000ED5CF84F328321834FBF08954F925F92B8
:1022C0006F927F92AF92BF92CF92DF92EF92FF9286
:1022D0000F931F93CF93DF93EC01603282E0780776
:1022E0000CF040C077FD06C0653B71052CF064EB37
:1022F00070E002C060E070E0898128E830E0281BCF
:10230000310987FD3395220F331F220F331F5901E7
:10231000CC24B7FCC094DC2C882777FD8095982FBF
:102320002A8148E552E0421B510927FD5395440F8D
:10233000551F440F551F2A01662457FC6094762CC4
:102340007F926F925F924F9214EBE12EF12C00E09E
:1023500010E020E030E0A9010E943B310F900F9087
:102360000F900F90CE01DF91CF911F910F91FF90B1
:10237000EF90DF90CF90BF90AF907F906F905F9085
:102380004F900C942B11FC01808190E0FC01EE0F2A
:10239000FF1FE80FF91FED5CF84F808186FB88274F
:1023A00080F9089508950F931F93CF93DF9385E1EC
:1023B0000E948B3225E0AC01249FC001259F900D27
:1023C0001124BC01882777FD8095982F0E94E33562
:1023D00020E030E040E85AE30E9497368B01D82F86
:1023E000C92F26E636E646E850E40E9493361816D2
:1023F00024F406E616E6D6E8C0E4B8018D2F9C2F3B
:10240000DF91CF911F910F9108950F931F93CF9359
:10241000DF930E94D3112FEB36E842ED52E40E9485
:1024200097362CE73DE04BEA53E40E94DF348B0102
:10243000D82FC92F20E030E0A9010E94443587FF42
:1024400004C000E010E0D0E0C0E0B8018D2F9C2F68
:10245000DF91CF911F910F9108950F931F93CF9309
:10246000DF93EC0100E010E0488159816A817B81B3
:10247000002E04C076956795579547950A94D2F734
:10248000642F61708C810E940A33000000000000FC
:1024900061E08D810E940A3300000000000060E0CE
:1024A0008D810E940A330F5F1F4F0E311105E1F637
:1024B00061E08E810E940A3300000000000060E0AD
:1024C0008E81DF91CF911F910F910C940A33CF939E
:1024D000DF93EC01862F188219821A821B826C838B
:1024E0004D832E8361E00E94D13261E08D810E9494
:1024F000D13261E08E810E94D13260E08C810E94F5
:102500000A3360E08D810E940A3360E08E810E9470
:102510000A33CE01DF91CF910C942D12FC01408340
:102520005183628373830C942D12FC0110821182FB
:10253000128213820C942D120895CF93DF93EC0135
:10254000862F688379835B834A8361E00E94D1325E
:1025500060E08A81DF91CF910C94D132CF93DF93E9
:10256000EC0160E088810E940A3382E090E00E94E2
:10257000453261E088810E940A338AE090E00E943F
:10258000453260E088810E940A3320E43CE940E063
:1025900050E061E08A81DF91CF910C9440330E943A
:1025A000AE122AE330E040E050E00E94D33721151C
:1025B00031054105510521F427EE33E040E050E0BC
:1025C000CA01B9010E94E3350895CF93DF93EC016E
:1025D000FC01E051FF4F6081718140E008960E944C
:1025E0009E33FE01EE50FF4F6081718140E0CE01CD
:1025F0008F5B9F4F0E949E33FE01EC50FF4F608126
:10260000718140E0CE0186589F4F0E949E33FE01AB
:10261000EA50FF4F6081718140E0CE018D549F4FA1
:10262000DF91CF910C949E334F925F926F927F9285
:102630008F929F92AF92BF92CF92DF92EF92FF92D2
:102640000F931F93CF93DF93CDB7DEB73C014B8839
:102650005C88FC01E051FF4F7183608332965183A7
:1026600040833296318320833296118300830E9407
:10267000E512F301EC5DFE4F1082E11036C0F3016C
:10268000F3958AE590E091838083329691838083ED
:10269000329691838083329691838083A201B40124
:1026A000C30184519F4F0E949D12F301E85FFE4FCA
:1026B000A082B1823296C082D18261E08A2D0E94CE
:1026C000D13260E08C2DDF91CF911F910F91FF905F
:1026D000EF90DF90CF90BF90AF909F908F907F90C2
:1026E0006F905F904F900C94D132E12CF12C00E070
:1026F00010E0C8010E94FD3990E0813891050CF08E
:102700009A95F301EE0DFF1D908F878B0F5F1F4F82
:1027100089E3E80EF11C0430110559F7B0CFCF93CF
:10272000DF93EC0108960E94FF33CE018F5B9F4F31
:102730000E94FF33CE0186589F4F0E94FF33CE0187
:102740008D549F4FDF91CF910C94FF330F931F93C4
:10275000FC01708F678BE05BFF4F51834083F996DC
:1027600031832083F996118300831F910F9108957F
:10277000EF92FF920F931F93CF93DF937C0100E0C2
:1027800010E0C0E0D0E0F701E00FF11F6789CE0153
:102790000E94053A2196075C1F4FC430D10599F776
:1027A000DF91CF911F910F91FF90EF9008952F929D
:1027B0003F924F925F926F927F928F929F92AF92D1
:1027C000BF92CF92DF92EF92FF920F931F93CF931E
:1027D000DF93CDB7DEB72A970FB6F894DEBF0FBEF2
:1027E000CDBF1C016B0149835A830E94E512F101A0
:1027F000EC5DFE4F8081811110822BE0C216D10466
:102800000CF4CCC0EE24D7FCE094FE2CC701B6013A
:102810000E94E33520E030E040E251E40E94483578
:102820002B013C0139813B838A818C83510100E07B
:1028300010E0AB81BC818D919D91BC83AB83450140
:10284000BCEE8B1ABEEF9B0AF101E00FF11FF3956E
:1028500020813181821B930BBC01882777FD8095F5
:10286000982F0E94E335A30192010E944835F4019C
:1028700060837183828393830E5F1F4FF4E0AF0EFA
:10288000B11C08301105A9F60E94DC319101245FCA
:102890003E4F3C832B836C0D7D1D8E1D9F1DD901EA
:1028A0006D937D938D939C93139744244394512C63
:1028B000F101E05FFE4FFE83ED8324503140388705
:1028C0002F830E94DC31EB81FC8100811181228108
:1028D0003381601771078207930708F075C00E9463
:1028E000DC31665F7F4F8F4F9F4FAD81BE816D930F
:1028F0007D938D939C9313976F80788481011A86C2
:1029000019864201AA2497FCA094BA2CE985FA857D
:10291000E20DF31DF39580819181BC01882777FD3D
:102920008095982F0E94E3356B017C01C501B401AD
:102930000E94E335F801EC5EFE4F20813181428137
:1029400053810E9497369B01AC01C701B6010E94DA
:10295000E0340E94B035C3010E944734E985FA850E
:102960003296FA87E9870C5F1F4FF9E36F0E711CEF
:1029700029853A852830310549F60E94DC31AD8140
:10298000BE810D911D912D913C91601771078207B9
:10299000930798F3BFEF4B1A5B0A93CFC980DA8095
:1029A00000E010E07101F8E0EF0EF11CD6016D912E
:1029B0007D916D01C701800F911F0E944734075C14
:1029C0001F4F043E110591F7E981FA8180E090E004
:1029D00021913191D101A80FB91FB3952D933C934B
:1029E000029688309105A1F72A960FB6F894DEBFBB
:1029F0000FBECDBFDF91CF911F910F91FF90EF9050
:102A0000DF90CF90BF90AF909F908F907F906F900E
:102A10005F904F903F902F9008952F923F924F924A
:102A20005F926F927F928F929F92AF92BF92CF925E
:102A3000DF92EF92FF920F931F93CF93DF9300D01B
:102A400000D0CDB7DEB75C01CA012901A70196010C
:102A50003C014B01650188E0C80ED11C780104E0FF
:102A600010E03C2C2D2CF301819191913F01F60156
:102A700096838583F401819191914F01F6019483AE
:102A80008383B201C60129833A834B835C830E940E
:102A90000E34F70181919191A191B1917F01F601DD
:102AA00081879287A387B48701501109F9E3CF0E7C
:102AB000D11C29813A814B815C810115110599F660
:102AC0000E94DC310E94E1356B017C01B201882754
:102AD00077FD8095982F0E94E33529813A814B81BB
:102AE0005C810E949736A70196010E94E0342B0179
:102AF0003C0185010F5B1F4F45018AE7880E911C41
:102B0000E3EBAE0EB11CA3019201C701B6010E9416
:102B100044351816A4F0832D922D0E944E34C8011E
:102B20000E944E34C4010E944E34C5010E944E34AE
:102B30000E94DC310E94E1356B017C01E4CF0F90F3
:102B40000F900F900F90DF91CF911F910F91FF90F9
:102B5000EF90DF90CF90BF90AF909F908F907F903D
:102B60006F905F904F903F902F9008952F923F92DB
:102B70004F925F926F927F928F929F92AF92BF928D
:102B8000CF92DF92EF92FF920F931F93CF93DF9339
:102B9000CDB7DEB72C970FB6F894DEBF0FBECDBF12
:102BA0004C017A8369835C834B833E832D831801B8
:102BB000260137010E94E512F401EC5DFE4F808191
:102BC00081111082C301B2010E94B0356F837887F2
:102BD00089879A87AF80B8841A141B04A4F12F81C7
:102BE0003885B901882777FD8095982F0E94E335B5
:102BF0009B01AC01C301B2010E94DF346B017C0177
:102C000081012D813E814B815C8169817A81C40182
:102C10000E940D152C960FB6F894DEBF0FBECDBFE7
:102C2000DF91CF911F910F91FF90EF90DF90CF90A8
:102C3000BF90AF909F908F907F906F905F904F90DC
:102C40003F902F9008951C861B86C12CD12C90E8B4
:102C5000E92E9FE3F92E81012D813E814B815C811C
:102C600069817A81C4010E940D158B859C8501962E
:102C70009C878B878A159B0541F7B1CFEF92FF9216
:102C80000F931F93CF93DF93CDB7DEB728970FB67F
:102C9000F894DEBF0FBECDBF8C017C018CEDE81A2D
:102CA0008EEFF80AF7018081811117C088E0E2E118
:102CB000F1E0DE01119601900D928A95E1F7AE01E7
:102CC0004F5F5F4F64EF71E0C8010E94D713C801E6
:102CD0000E948F1381E0F701808328960FB6F89445
:102CE000DEBF0FBECDBFDF91CF911F910F91FF903F
:102CF000EF9008958C5D9E4FFC01808108958C5D5E
:102D00009E4FFC0160830895EF92FF920F931F93F3
:102D1000CF93DF93CDB7DEB760970FB6F894DEBFE1
:102D20000FBECDBF8C01790188E0EAE1F1E0DE0160
:102D3000199601900D928A95E1F7AE01475F5F4FBA
:102D4000B901C8010E94D71388E0E2E1F1E0DE0199
:102D5000119601900D928A95E1F7AE014F5F5F4F9A
:102D6000B701C8010E94D71360960FB6F894DEBF72
:102D70000FBECDBFDF91CF911F910F91FF90EF90CC
:102D800008958F929F92AF92BF92CF92DF92EF926F
:102D9000FF920F931F93CF93DF93CDB7DEB7A0972A
:102DA0000FB6F894DEBF0FBECDBF5C016A017B0198
:102DB0004901980188E0E2E6F1E0DE0159960190D0
:102DC0000D928A95E1F788E0EAE6F1E0DE0151969E
:102DD00001900D928A95E1F78E010F5F1F4F80E100
:102DE000F80111928A95E9F746EA4203B001439F40
:102DF000700D1124882777FD8095982F0E94E33568
:102E00002BED3FE049E450E40E94973620E030E0AB
:102E100044E353E40E94483569877A878B879C870F
:102E20006D877E878F87988B9401AE014F5E5F4FD1
:102E3000BE01675E7F4FC5010E94B615A0960FB612
:102E4000F894DEBF0FBECDBFDF91CF911F910F91E0
:102E5000FF90EF90DF90CF90BF90AF909F908F90BA
:102E60000895CF92DF92EF92FF920F931F93CF932B
:102E7000DF93CDB7DEB7A0970FB6F894DEBF0FBED5
:102E8000CDBFE8E0FE2EE2E6F1E0DE0159960190CA
:102E90000D92FA94E1F7F8E0FF2EE2E7F1E0DE01AF
:102EA000519601900D92FA94E1F7A0E1FA2EEAE72B
:102EB000F1E0DE01119601900D92FA94E1F70130F4
:102EC000110539F4EEE1F0E0FA8FE98FEAE0F0E085
:102ED00006C0EAE0F0E0FA8FE98FEEE1F0E0FC8F67
:102EE000EB8F6A017B018E010F5F1F4FAE014F5EBA
:102EF0005F4FBE01675E7F4F0E94B615A0960FB66A
:102F0000F894DEBF0FBECDBFDF91CF911F910F911F
:102F1000FF90EF90DF90CF9008958F929F92AF92A5
:102F2000BF92CF92DF92EF92FF920F931F93CF93B6
:102F3000DF93CDB7DEB768970FB6F894DEBF0FBE4C
:102F4000CDBF5C014B0188E0EAE8F1E0DE0151967B
:102F500001900D928A95E1F788E0E2E9F1E0DE0167
:102F6000199601900D928A95E1F788E0E2E1F1E08F
:102F7000DE01119601900D928A95E1F72F3F3F4FA8
:102F800071F481E990E09E8B8D8B88E790E0988FBB
:102F90008F8B2BE430E03E872D87988B8F8700E066
:102FA00010E06A01EE24D7FCE094FE2C0815190508
:102FB0004CF5AE014F5E5F4F60E971E0C5010E94C4
:102FC000D713AE01475F5F4F60E971E0C5010E9412
:102FD000D713C701B6010E94E3352DEC3CEC4CE45D
:102FE0005FE30E9497360E94B5350E940B32AE0116
:102FF0004F5F5F4F64EF71E0C5010E94D7130F5F11
:103000001F4FD4CF68960FB6F894DEBF0FBECDBF6A
:10301000DF91CF911F910F91FF90EF90DF90CF90B4
:10302000BF90AF909F908F9008958F929F92AF9294
:10303000BF92CF92DF92EF92FF920F931F93CF93A5
:10304000DF93CDB7DEB7A0970FB6F894DEBF0FBE03
:10305000CDBF8C014B0188E0EAE9F1E0DE01599631
:1030600001900D928A95E1F788E0E2EAF1E0DE0155
:10307000519601900D928A95E1F788E0EAEAF1E035
:10308000DE01199601900D928A95E1F788E0E2E160
:10309000F1E0DE01119601900D928A95E1F72F3F44
:1030A0003F4FA1F481E990E09E8F8D8F8AE790E0F9
:1030B00098A38F8F2CE330E03E8B2D8B988F8F8BD6
:1030C00028E730E03E872D87988B8F876A0188EE4E
:1030D000C81A83E0D80A80E9C81681E0D80624F42B
:1030E00080E9C82EDD24D3947601F594E794F59415
:1030F000E794A12CB12CA814B904C4F5AE01475E25
:103100005F4F64EF71E0C8010E94D713AE014F5EBC
:103110005F4F64EF71E0C8010E94D713AE01475FB3
:103120005F4FB701C8010E94D713AE014F5E5F4FDA
:10313000B701C8010E94D713AE01475F5F4FB701C7
:10314000C8010E94D713AE014F5E5F4FB701C8019F
:103150000E94D713AE014F5F5F4F64EF71E0C8016B
:103160000E94D7138FEFA81AB80AC5CFB6018827D7
:1031700077FD8095982F0E940B32A0960FB6F89499
:10318000DEBF0FBECDBFDF91CF911F910F91FF909A
:10319000EF90DF90CF90BF90AF909F908F90089569
:1031A000CF92DF92EF92FF920F931F93CF93DF9313
:1031B000CDB7DEB7A0970FB6F894DEBF0FBECDBF78
:1031C0006A017B01E8E0BE01675E7F4FDB014E2FA5
:1031D0001D924A95E9F71E8F0D8F18A30F8FAE0130
:1031E0004F5E5F4FDA011D92EA95E9F71E8B0D8B5A
:1031F000119501951109188F0F8B10E1E2EBF1E0A9
:10320000DE01119601900D921A95E1F78E010F5F84
:103210001F4F0E94B615A0960FB6F894DEBF0FBEE2
:10322000CDBFDF91CF911F910F91FF90EF90DF9075
:10323000CF900895CF92DF92EF92FF920F931F935A
:10324000CF93DF93CDB7DEB7A0970FB6F894DEBF6C
:103250000FBECDBF6A017B01E8E0BE01675E7F4F14
:10326000DB014E2F1D924A95E9F71E8F0D8F18A393
:103270000F8FAE014F5E5F4FDA011D92EA95E9F7BD
:10328000F80117FD3196F595E795FE8BED8B17FF4D
:1032900002C00F5F1F4F15950795119501951109F4
:1032A000188F0F8B8E010F5F1F4FE0E1D8011D9229
:1032B000EA95E9F70E94B615A0960FB6F894DEBF1E
:1032C0000FBECDBFDF91CF911F910F91FF90EF9077
:1032D000DF90CF900895CF92DF92EF92FF920F93FD
:1032E0001F93CF93DF93CDB7DEB7A0970FB6F894B7
:1032F000DEBF0FBECDBF6A017B01E8E0BE01675EA5
:103300007F4FDB014E2F1D924A95E9F71E8F0D8FDF
:1033100018A30F8FAE014F5E5F4FDA011D92EA9541
:10332000E9F71E8B0D8B119501951109188F0F8BE5
:103330008E010F5F1F4FE0E1D8011D92EA95E9F77A
:103340000E94B615A0960FB6F894DEBF0FBECDBF93
:10335000DF91CF911F910F91FF90EF90DF90CF9071
:103360000895CF92DF92EF92FF920F931F93CF9326
:10337000DF93CDB7DEB7A0970FB6F894DEBF0FBED0
:10338000CDBF6A017B010A31110514F009E110E09B
:10339000E8E0BE01675E7F4FDB014E2F1D924A952C
:1033A000E9F71A8F098F1C8F0B8FAE014F5E5F4FAD
:1033B000DA011D92EA95E9F710E1E2ECF1E0DE01B5
:1033C000119601900D921A95E1F78E010F5F1F4F34
:1033D0000E94B615A0960FB6F894DEBF0FBECDBF03
:1033E000DF91CF911F910F91FF90EF90DF90CF90E1
:1033F0000895CF92DF92EF92FF920F931F93CF9396
:10340000DF93CDB7DEB7A0970FB6F894DEBF0FBE3F
:10341000CDBF6A017B010E30110514F00DE010E004
:103420001A8F098F1C8F0B8F1E8F0D8F18A30F8F74
:10343000AE014F5E5F4F68E0FA0111926A95E9F7BD
:10344000B8016C5F7F4F7E8B6D8B64E070E0601B1A
:10345000710B788F6F8B60E1E2EDF1E0DE01119688
:1034600001900D926A95E1F78E010F5F1F4FBE012B
:10347000675E7F4F0E94B615A0960FB6F894DEBF28
:103480000FBECDBFDF91CF911F910F91FF90EF90B5
:10349000DF90CF9008952F923F924F925F926F925C
:1034A0007F928F929F92AF92BF92CF92DF92EF92D4
:1034B000FF920F931F93CF93DF93CDB7DEB7A29701
:1034C0000FB6F894DEBF0FBECDBF4C011A012B0121
:1034D000390188E09E01275E3F4F3AA329A3F901F5
:1034E000282F11922A95E9F71E8F0D8F18A30F8FA1
:1034F0005E0131E1A30EB11CF50111928A95E9F745
:10350000C80117FD01969595879502969E8B8D8B28
:1035100017FF02C00F5F1F4F159507951195019575
:10352000110902501109188F0F8B26EAA7012403F5
:103530006001259FD00C11248E010F5F1F4F80E189
:10354000F80111928A95E9F7B601882777FD8095F1
:10355000982F0E94E3352BED3FE049E450E40E94B0
:10356000973620E030E044E353E40E944835698711
:103570007A878B879C8724ECA7012403B001259FC1
:10358000700D11246C0D7D1D882777FD8095982F77
:103590000E94E3352BED3FE049E450E40E9497366A
:1035A00020E030E044E353E40E9448356D877E8795
:1035B0008F87988B720161019301A501BE01675E3F
:1035C0007F4FC4010E94B615A2960FB6F894DEBFD5
:1035D0000FBECDBFDF91CF911F910F91FF90EF9064
:1035E000DF90CF90BF90AF909F908F907F906F9023
:1035F0005F904F903F902F9008952F923F924F925F
:103600005F926F927F928F929F92AF92BF92CF9272
:10361000DF92EF92FF920F931F93CF93DF93CDB77B
:10362000DEB7A0970FB6F894DEBF0FBECDBF4C013A
:103630005A016B01390128E02E0149E1440E511C69
:10364000F201422F11924A95E9F789E190E09A8FB1
:10365000898F9C8F8B8F1E8F0D8F18A30F8F1E014C
:1036600051E1250E311CF10111922A95E9F7C801AB
:1036700017FD01969595879504969E8B8D8B17FF68
:1036800002C00F5F1F4F1595079511950195110900
:1036900004501109188F0F8B8E010F5F1F4F80E1AF
:1036A000F80111928A95E9F780E090E0A4EBB2E48A
:1036B00089839A83AB83BC838D839E83AF83B887D2
:1036C00024ECA7012403B001259F700D1124882745
:1036D00077FD8095982F0E94E3352BED3FE049E47C
:1036E00050E40E94973620E030E044E353E40E9427
:1036F00048356D877E878F87988B760165019301AA
:10370000A101B201C4010E94B615A0960FB6F894AB
:10371000DEBF0FBECDBFDF91CF911F910F91FF9004
:10372000EF90DF90CF90BF90AF909F908F907F9061
:103730006F905F904F903F902F9008952F923F92FF
:103740004F925F926F927F928F929F92AF92BF92B1
:10375000CF92DF92EF92FF920F931F93CF93DF935D
:10376000CDB7DEB7A0970FB6F894DEBF0FBECDBFC2
:103770004C015A016B01390128E02E0149E1440E48
:10378000511CF201422F11924A95E9F78CE090E02A
:103790009A8F898F9C8F8B8F1E8F0D8F18A30F8F01
:1037A0001E0151E1250E311CF10111922A95E9F714
:1037B000C8010A979E8B8D8B8AE090E0801B910B4D
:1037C000988F8F8B8E010F5F1F4F80E1F801119250
:1037D0008A95E9F78BED9FE0A9E4B0E48D839E83A1
:1037E000AF83B88726EAA7012403B001259F700D97
:1037F0001124882777FD8095982F0E94E3352BEDC3
:103800003FE049E450E40E94973620E030E044E392
:1038100053E40E94483569877A878B879C878AE5BD
:103820008E9DB0018F9D700D1124882777FD8095A6
:10383000982F0E94E3352BED3FE049E450E40E94CD
:10384000973620E030E044E353E40E9448356D872A
:103850007E878F87988B760165019301A101B20164
:10386000C4010E94B615A0960FB6F894DEBF0FBE35
:10387000CDBFDF91CF911F910F91FF90EF90DF901F
:10388000CF90BF90AF909F908F907F906F905F9000
:103890004F903F902F90089584519F4F0C94CF12DA
:1038A0000F931F93CF93DF93EC01C65FDE4F8881A8
:1038B0000E948B3288810E948B328C0164E070E020
:1038C00080E090E00E940B3288810E948B32080FCA
:1038D000191F64E070E080E090E00E940B32C801A4
:1038E00017FD019695958795DF91CF911F910F91C7
:1038F0000895CF92DF92EF92FF920F931F93CF9391
:10390000DF938C01095F1F4FC8010E940512CAE0B6
:10391000D0E0C12CD12C7601C8010E9405129B0178
:10392000AC01C701B6010E94E0346B017C0161E08B
:1039300070E080E090E00E940B32219769F720E070
:1039400030E040E251E4C701B6010E944835DF9102
:10395000CF911F910F91FF90EF90DF90CF9008953E
:10396000CF93DF93CDB7DEB7C058D1090FB6F89427
:10397000DEBF0FBECDBF80E8E2EEF1E0DE011196C2
:1039800001900D928A95E1F7660F771F660F771FFA
:1039900081E090E08C0F9D1F680F791FFB01608113
:1039A000718182819381C058DF4F0FB6F894DEBFDA
:1039B0000FBECDBFDF91CF910895CF93DF93EC0180
:1039C000BA010E94B01CAB01BC01CE01DF91CF91C6
:1039D0000C948E12CF93DF93CDB7DEB7C057D109C9
:1039E0000FB6F894DEBF0FBECDBF80E2E2E6F2E094
:1039F000DE01999601900D928A95E1F780E1E2E867
:103A0000F2E0DE01AF59BF4F01900D928A95E1F7C8
:103A100088E1E2E9F2E0DE01A75BBF4F01900D9281
:103A20008A95E1F788E2EAEAF2E0DE011196019078
:103A30000D928A95E1F76130710509F194F4672BD5
:103A4000B1F5FA01EE0FFF1FEE0FFF1F81E090E0CE
:103A50008C0F9D1FE80FF91F60A571A582A593A586
:103A600026C06230710599F06330710501F5FA01E5
:103A7000EE0FFF1FEE0FFF1F81E090E00FC0FA0175
:103A8000EE0FFF1FEE0FFF1F81E690E007C0FA0167
:103A9000EE0FFF1FEE0FFF1F89E490E08C0F9D1FBC
:103AA000E80FF91F608171818281938100C0C05944
:103AB000DF4F0FB6F894DEBF0FBECDBFDF91CF91C1
:103AC0000895CF93DF93EC01CB01BA01A901CE0198
:103AD0000E94EA1CAB01BC01CE01DF91CF910C9496
:103AE0008E1221110C94DD1C0C948E120C949512E4
:103AF0008F929F92AF92BF92EF92FF920F931F937C
:103B0000CF93DF93EC0148015901E114F10419F45A
:103B1000EE24E394F12CCB01BA010E94B535C85FC5
:103B2000DE4FA501940188810E94532EC501B40186
:103B30000E940B32B701882777FD8095982FDF917F
:103B4000CF911F910F91FF90EF90BF90AF909F90FA
:103B50008F900C940B322F923F924F925F926F9204
:103B60007F928F929F92AF92BF92CF92DF92EF920D
:103B7000FF920F931F93CF93DF93CDB7DEB72897B4
:103B80000FB6F894DEBF0FBECDBF1C012A013B016A
:103B900009831A832B833C83CD82DE82EF82F886F1
:103BA000CD8CDE8CC114D10419F4CC24C394D12C57
:103BB00029813A814B815C81C301B2010E94443565
:103BC00087FF25C0C301B2010E94B035882777FD69
:103BD0008095982F0E94E3352B013C0129813A8181
:103BE0004B815C810E94443587FF36C07601950188
:103BF0008401B301A201C1010E94781D2D813E8183
:103C00004F815885C301B2010E949736DDCFC301B1
:103C1000B2010E94B035882777FD8095982F0E94C9
:103C2000E3352B013C0129813A814B815C810E9463
:103C3000933618168CF4760195018401B301A20124
:103C4000C1010E94781D2D813E814F815885C3019D
:103C5000B2010E944835DDCF28960FB6F894DEBF3A
:103C60000FBECDBFDF91CF911F910F91FF90EF90CD
:103C7000DF90CF90BF90AF909F908F907F906F908C
:103C80005F904F903F902F9008957F928F929F92D8
:103C9000AF92BF92CF92DF92EF92FF920F931F935A
:103CA000CF93DF93EC016331710508F047C3FB014B
:103CB000E759FF4F0C94F2375EE1E52EF12C02E359
:103CC00010E020E030E044EA50ED64E274E40E9449
:103CD000781D69E1E62EF12C07E310E020E030E0EA
:103CE00042E550ED64EA74E4CE010E94781D7AE06A
:103CF000E72EF12C0CE310E020E030E040E050E053
:103D00006CED74E426C02EE1E22EF12C02E310E00B
:103D100020E030E044EA50ED64E274E40E94781D53
:103D200039E1E32EF12C07E310E020E030E040E041
:103D300050E06CED74E4CE010E94781D4AE0E42E60
:103D4000F12C02E310E020E030E042E550ED64EABF
:103D500074E4CE010E94781DF1C21F92B2E07B2E66
:103D60007F9214E1812E912CA12CB12C0AE0C02E5F
:103D700007EDD02E03E8E02E0FE3F02E0CE51FEF49
:103D800023EC34E442E550ED64EA74E40E94AB1D98
:103D90006EE170E080E090E00E940B321F927F9213
:103DA0008AE0882E912CA12CB12C98EBC92E9EE193
:103DB000D92E95E8E92E9FE3F92E0FE115ED22E1CA
:103DC00035E442E550ED64EA74E4B1C21F928AE042
:103DD0008F93FEE18F2E912CA12CB12CACE5CA2E35
:103DE000AFE8DA2EA2E8EA2EAFE3FA2E00E010E008
:103DF0002CED34E442E550ED64EA74E46DC21F92A8
:103E00008AE08F937EE1872E912CA12CB12CEAE0E1
:103E1000CE2EE7EDDE2EE3E8EE2EEFE3FE2E0FE1F1
:103E200015ED22E135E44CE55FEF63EC74E454C238
:103E300054E6E52EF12C02E310E020E030E042E50C
:103E400050ED64EA74E40E94781D60E5E62EF12CE2
:103E500002E310E020E030E04CE55FEF63EC74E457
:103E6000CE010E94781DE12CF12C0CE211E020E043
:103E700030E04FE155ED62E175E46BCF1F9277249E
:103E800073947F929AE0892E912CA12CB12C2CE571
:103E9000C22E2FE8D22E22E8E22E2FE3F22E00E0EF
:103EA00010E626E035E440E050E068E474E4CE013A
:103EB0000E94AB1D1F927F9237E0832E912CA12C84
:103EC000B12C4AE0C42E47EDD42E43E8E42E4FE354
:103ED000F42E00E010E028E434E440E050E566E031
:103EE00075E425C21F9283E08F9318E0812E912CF8
:103EF000A12CB12C08EBC02E0EE1D02E05E8E02E4F
:103F00000FE3F02E00E010E02AEF34E440E050E050
:103F10006CE574E4CE010E94AB1D68EC70E080E0BB
:103F200090E00E940B320F900F9086E1C82ED12CAA
:103F3000BAE0EB2EF12C05E010E020E030E048E4A0
:103F400051EF66E774E4CE010E94781D81E0C81A43
:103F5000D10871F7F3C11F9283E08F93E8E08E2EB2
:103F6000912CA12CB12CFAE0CF2EF7EDDF2EF3E847
:103F7000EF2EFFE3FF2E00E010E82BE335E440E0F6
:103F800050E06BEE74E4CE010E94AB1D68EC70E073
:103F900080E090E00E940B320F900F90A0E1CA2EBB
:103FA000D12C7AE0E72EF12C0AE010E020E030E09E
:103FB00040E050ED62E874E4CE010E94781D81E09B
:103FC000C81AD10871F7BAC11F9284E08F9330E10B
:103FD000832E912CA12CB12C4AE0C42E47EDD42E77
:103FE00043E8E42E4FE3F42E00E010E021E634E451
:103FF00040E050E06FE274E4CE010E94AB1D1F92DE
:1040000087E08F9352E1852E912CA12CB12C6EEA82
:10401000C62E67E4D62E61E8E62E6FE3F62E00E0AA
:1040200010E822E234E440E050EC60E674E47FC142
:104030001F928AE08F939AE0892E912CA12CB12CAB
:1040400028EBC22E2EE1D22E25E8E22E2FE3F22E0F
:1040500000E010E02AEF33E440E050E068EC72E466
:10406000CE010E94AB1D64EF71E080E090E00E9401
:104070000B321F9281E08F9300E010E028EC32E4D5
:1040800040E050E068EC73E452C11F92B8E07B2E30
:104090007F9214E1812E912CA12CB12C06E6C02E2A
:1040A000DC2C06E8E02E0FE3F02E00E010E42CE11B
:1040B00035E440E050E86BEB74E40E94AB1D1F92C6
:1040C0007F9289E1882E912CA12CB12C00E010E880
:1040D0002BEB34E440E050E36CE175E428C11F921F
:1040E00083E08F93E8E08E2E912CA12CB12CF6E684
:1040F000CF2EDC2CF6E8EF2EFFE3FF2E00E010E8D9
:104100002BEB35E440E050E06AEF74E4CE010E940E
:10411000AB1D62E370E080E090E00E940B321F92E2
:1041200082E08F93ADE08A2E912CA12CB12C00E07F
:1041300010E02AEF34E440E058E76BEB75E4F7C099
:104140001F9248E0742E7F925FE0852E912CA12C67
:10415000B12C66E6C62EDC2C66E8E62E6FE3F62E62
:1041600000E010E02AEF34E440E050E86BEB74E448
:104170000E94AB1D64E670E080E090E00E940B328C
:104180001F927F927AE0872E912CA12CB12C00E017
:1041900010E42CE135E440E050E86DEE74E4C7C073
:1041A0001F9288EC8F9324E1822E912CA12CB12CAC
:1041B0003CE5C32E3FE8D32E32E8E32E3FE3F32E57
:1041C00000E010E427E234E440E050E06CE574E401
:1041D00083C01F9282E08F93B8E08B2E912CA12C8C
:1041E000B12C1AE0C12E17EDD12E13E8E12E1FE3FA
:1041F000F12E00E010E824ED34E440E050E06AE7FE
:1042000074E4CE010E94AB1D1F9283E08F9308EBF4
:10421000C02E0EE1D02E05E8E02E0FE3F02E00E0D8
:1042200010E02AEF33E440E050E664ED74E4CE01A0
:104230000E94AB1D1F928AE08F9389E0882E912CFB
:10424000A12CB12C96E6C92EDC2C96E8E92E9FE332
:10425000F92E00E010E824ED34E440E050E06AE795
:1042600074E4CE010E94AB1D0F900F900F900F9041
:104270000F900F9063C01F928FE08F93F2E08F2E0C
:10428000912CA12CB12CACE5CA2EAFE8DA2EA2E815
:10429000EA2EAFE3FA2E00E010E82BE335E440E02D
:1042A00050E068EC74E418C01F9284E18F9372E0D0
:1042B000872E912CA12CB12CECE5CE2EEFE8DE2E32
:1042C000E2E8EE2EEFE3FE2E00E010E82BEB35E403
:1042D00040E050E06AEF74E4CE010E94AB1D0F9005
:1042E0000F902CC01F9244E1742E7F9252E0852ED5
:1042F000912CA12CB12C6CE5C62E6FE8D62E62E86D
:10430000E62E6FE3F62E00E010E02AE735E440E009
:1043100050E068EC74E40E94AB1D1F927F9200E0B5
:1043200010E82BE335E440E050E06AE775E4CE01A5
:104330000E94AB1D0F900F900F900F90DF91CF91C7
:104340001F910F91FF90EF90DF90CF90BF90AF90B3
:104350009F908F907F9008952F923F924F925F92FF
:104360006F927F928F929F92AF92BF92CF92DF9285
:10437000EF92FF920F931F93CF93DF93CDB7DEB7EA
:10438000C258D1090FB6F894DEBF0FBECDBF3C01B5
:1043900088E0E2EDF2E0DE01AF58BF4F01900D92F0
:1043A0008A95E1F788E0EAEDF2E0DE01A759BF4F18
:1043B00001900D928A95E1F788E0E2EEF2E0DE01ED
:1043C000AF59BF4F01900D928A95E1F788E0EAEE70
:1043D000F2E0DE01A75ABF4F01900D928A95E1F7F6
:1043E00088E0E2EFF2E0DE01AF5ABF4F01900D929C
:1043F0008A95E1F788E0EAEFF2E0DE01A75BBF4FC4
:1044000001900D928A95E1F788E0E2E0F3E0DE01A9
:10441000AF5BBF4F01900D928A95E1F788E0EAE02B
:10442000F3E0DE01D99601900D928A95E1F788E0DC
:10443000E2E1F3E0DE01D19601900D928A95E1F779
:1044400088E0EAE1F3E0DE01999601900D928A9509
:10445000E1F788E0E2E2F3E0DE01919601900D924F
:104460008A95E1F788E0EAE2F3E0DE0159960190EF
:104470000D928A95E1F788E0E2E3F3E0DE015196E0
:1044800001900D928A95E1F788E0EAE3F3E0DE011E
:10449000199601900D928A95E1F76D30710508F03B
:1044A000CEC6FB01E458FF4F0C94F23782E090E057
:1044B000EF969FAF8EAFEF973DC4E4E0F0E0EF964C
:1044C000FFAFEEAFEF976BC3FEE1EF2EF12C02E3EF
:1044D00010E020E030E044EA50ED64E274E4C3010F
:1044E0000E94781D4AE050E060E070E0C3010E9445
:1044F000DD1C6DE070E0C3010E94451E04E110E088
:1045000020E233E040E050E060E87FE3C3010E9436
:104510001A196DE070E076C14BE050E060E070E0A9
:10452000C3010E94DD1C6BE070E0C3010E94451EC8
:104530004CE050E060E070E0C3010E94DD1C04E14B
:1045400010E024EF31E040E050E060E87FE3C30199
:104550000E946B194BE050E060E070E0C3010E94E4
:10456000DD1C6CE070E0C3010E94451E4CE050E091
:1045700060E070E0C3010E94DD1C24EF31E040E008
:1045800050E060E87FE3C3010E946B1904C346E179
:1045900050E060E070E0C3010E94DD1CAE014F58A6
:1045A0005F4F6CEB72E0C3010E94D7131F9268EC5F
:1045B000562E5F9274E1872E912CA12CB12CECE544
:1045C000CE2EEFE8DE2EE2E8EE2EEFE3FE2E00E048
:1045D00010E82FE434E440E050E06CE574E4C301FB
:1045E0000E94AB1D48E150E060E070E0C3010E9412
:1045F000DD1C1F925F9200E010E825E434E440E007
:1046000050E86FE474E4C3010E94AB1D47E150E041
:1046100060E070E0C3010E94DD1C1F925F9200E029
:1046200010E029E334E440E050E865E474E4C301B9
:104630000E94AB1D48E150E060E070E0C3010E94C1
:10464000DD1C1F925F9200E010E02FE234E440E0B6
:1046500050E069E374E4C3010E94AB1D47E150E000
:1046600060E070E0C3010E94DD1C1F925F9200E0D9
:1046700010E427E234E440E050E06FE274E4C30168
:104680000E94AB1D46E150E060E070E0C3010E9473
:10469000DD1C64EF71E080E090E00E940B32C3010A
:1046A0000E943E166CE271E080E090E00E940B32C6
:1046B00007C2AE0147595F4F6CEB72E0C3010E9425
:1046C000D71344E0442E512C5AE0352E2224239453
:1046D00020E030E041E050E060E070E0C3010E9483
:1046E000611D1F923F922AE0822E912CA12CB12CA9
:1046F00038EBC32E3EE1D32E35E8E32E3FE3F32E15
:1047000000E010E028E433E440E050E068EC72E4BC
:10471000C3010E94AB1D21E030E041E050E060E0C9
:1047200070E0C3010E94611D1F923F9200E010E003
:1047300026E933E440E050E068E473E4C3010E94FA
:10474000AB1D22E030E041E050E060E070E0C301EA
:104750000E94611D1F923F9200E010E02AEF33E4B7
:1047600040E050E066E973E4C3010E94AB1D64EFD2
:1047700071E080E090E00E940B3221E030E041E007
:1047800050E060E070E0C3010E94611D1F922F9213
:1047900000E010E02AE733E440E050E068EC73E426
:1047A000C3010E94AB1D20E030E041E050E060E03A
:1047B00070E0C3010E94611D1F922F9200E010E083
:1047C00028EC32E440E050E06AE773E4C3010E9461
:1047D000AB1D64EF71E080E090E00E940B3291E04D
:1047E000491A51080FB6F894DEBF0FBECDBF09F0CD
:1047F0006FCF43E150E060E070E0C3010E94DD1C38
:1048000069E070E0C3010E94451EC5C1AE014F5969
:104810005F4F64EF71E0C3010E94D7136CE271E057
:1048200080E090E00E940B3243E150E060E070E0F5
:10483000C3010E94DD1C60E170E0C3010E94451EBF
:1048400040E150E060E070E0C3010E94DD1C6AEFCF
:1048500070E080E090E00E940B32AE01475A5F4F5B
:1048600064EF71E0C3010E94D7136CE271E080E055
:1048700090E00E940B3243E150E060E070E0C30141
:104880000E94DD1C61E170E0C3010E94451E40E111
:1048900050E060E070E0C3010E94DD1C6AEF70E050
:1048A00080E090E00E940B32AE014F5A5F4F64EF00
:1048B00071E0C3010E94D7136CE271E080E090E0E8
:1048C0000E940B3243E150E060E070E0C3010E94BF
:1048D000DD1C62E170E0C3010E94451E40E150E032
:1048E00060E070E0C3010E94DD1C6CE271E080E0DA
:1048F00090E00E940B32C3010E943E1664EF71E00B
:1049000080E090E052C3AE01475B5F4F6CE271E024
:10491000C3010E94D71344E150E060E070E0C3019E
:104920000E94DD1C6FE070E0C3010E94451E2DC196
:104930004DE050E060E070E0C3010E94DD1C69E0E2
:1049400070E0C3010E94451EEE24E394F12C0FE0B9
:1049500010E02CED35E040E050E060E070E4C30191
:104960000E94FD1AC3010E943E166DE070E0C30173
:104970000E94451EDBC3AE014F5B5F4F6CE271E0EE
:10498000C3010E94D7134EE150E060E070E0C30124
:104990000E94DD1CFEE1EF2EF12C04E610E020E089
:1049A00030E040E050E06CE574E4C3010E94781D03
:1049B0001F92A4E05A2E5F92B7E08B2E912CA12C6F
:1049C000B12C1CE5C12E1FE8D12E12E8E12E1FE309
:1049D000F12E0FE115ED22E934E440E050E06CE502
:1049E00074E4C3010E94AB1D1F92442443944F9270
:1049F0000AE0802E912CA12CB12C0CE51FEF23ECAA
:104A000034E44FE155ED62E974E4C3010E94AB1D4B
:104A10001F924F9200E010E02CE534E44CE55FEF8C
:104A200063EC74E4C3010E94AB1D6FE070E080E0B2
:104A300090E00E940B321F925F9284E1882E912CAD
:104A4000A12CB12C04EA10ED24E234E440E050E063
:104A50006CE574E4C3010E94AB1D60E971E080E085
:104A600090E00E940B32AE01475C5F4F68EC70E053
:104A7000C3010E94D7131F925F920FE115ED22E947
:104A800034E440E050E06CE574E4C3010E94AB1DE7
:104A9000AE014F5C5F4F68EC70E0C3010E94D7131A
:104AA0001F925F9204EA10ED24E234E440E050E00B
:104AB0006CE574E4C3010E94AB1DC3010E943E1665
:104AC0004BE050E060E070E0C3010E94DD1C0FB6D7
:104AD000F894DEBF0FBECDBFB2C34EE150E060E040
:104AE00070E0C3010E94DD1C1F9264E0562E5F92AD
:104AF00074E1872E912CA12CB12CECE5CE2EEFE8A1
:104B0000DE2EE2E8EE2EEFE3FE2E0FE115ED22E9B8
:104B100034E440E050E06CE574E4C3010E94AB1D56
:104B20001F925F9204EA10ED24E234E440E050E08A
:104B30006CE574E4C3010E94AB1D6CE271E080E09F
:104B400090E00E940B3243E150E060E070E0C3016E
:104B50000E94DD1C0F900F900F900F9004E010E06A
:104B6000AE01475D5F4F64E670E0C3010E94D7135A
:104B7000C3010E943E160150110991F74EE150E029
:104B800060E070E0C3010E94DD1C64EF71E080E032
:104B900090E00E940B32C3010E943E16C7C2EB9602
:104BA0001FAE1EAEEB9700E911E0EB962EAD3FADC8
:104BB000EB9742E050E060E070E0C3010E94611DAD
:104BC000180194E6290E311CB801882777FD8095DD
:104BD000982F0E94E335C158DF4F688379838A8319
:104BE0009B83CF57D040B101882777FD8095982FC0
:104BF0000E94E3358B019C011F92EAE0EF934AE0AB
:104C0000842E912CA12CB12C58EBC52E5EE1D52E13
:104C100055E8E52E5FE3F52EC158DF4F48815981F5
:104C20006A817B81CF57D040C3010E94AB1DEB96B8
:104C30008EAD9FADEB970196EB969FAF8EAFEB9746
:104C40000F900F9098EE291693E0390611F081012C
:104C5000ACCFC3010E9495121F92EAE0EF9300E0EF
:104C600010E829E834E4C158DF4F488159816A814E
:104C70007B81CF57D040C3010E94AB1D0F900F9096
:104C8000412C512C920142E050E060E070E0C30101
:104C90000E94611DB1016C597F4F882777FD809577
:104CA000982F0E94E335ED966CAF7DAF8EAF9FAF2E
:104CB000ED97B101882777FD8095982F0E94E33505
:104CC000AB01BC011F92FAE0FF932AE0822E912CE7
:104CD000A12CB12C38EBC32E3EE1D32E35E8E32EC8
:104CE0003FE3F32EED960CAD1DAD2EAD3FADED9730
:104CF000C3010E94AB1D84E6281A31089FEF491AB0
:104D0000590A0F900F90E0E92E16E1E03E0609F0F7
:104D1000B9CFEF968EAD9FADEF970197EF969FAF0E
:104D20008EAFEF97892B09F03ACF6CE271E080E00B
:104D300090E03BC1212C312C54EF452E5524539447
:104D4000910143E050E060E070E0C3010E94611D0A
:104D5000B2016C597F4F882777FD8095982F0E946C
:104D6000E335ED966CAF7DAF8EAF9FAFED97B2019F
:104D7000882777FD8095982F0E94E335AB01BC0111
:104D80001F929AE09F938AE0882E912CA12CB12C3F
:104D90009CE5C92E9FE8D92E92E8E92E9FE3F92ED3
:104DA000ED960CAD1DAD2EAD3FADED97C3010E944C
:104DB000AB1DE5E64E0E511CFFEF2F1A3F0A0F9078
:104DC0000F9086EE481685E0580609F0B9CF212CE1
:104DD000312C910143E050E060E070E0C3010E949B
:104DE000611DB2016C597F4F882777FD8095982F00
:104DF0000E94E335ED966CAF7DAF8EAF9FAFED9720
:104E0000B201882777FD8095982F0E94E335AB018A
:104E1000BC011F929AE09F931AE0812E912CA12C45
:104E2000B12C0CE5C02E0FE8D02E02E8E02E0FE3E7
:104E3000F02EED960CAD1DAD2EAD3FADED97C3013F
:104E40000E94AB1DE5E64E0E511CFFEF2F1A3F0AE4
:104E50000F900F9088ED481689E0580609F0B9CFF9
:104E6000212C312C910143E050E060E070E0C3015F
:104E70000E94611DB20164567109882777FD8095F3
:104E8000982F0E94E335ED966CAF7DAF8EAF9FAF4C
:104E9000ED97B201882777FD8095982F0E94E33522
:104EA000AB01BC011F929AE09F93AAE08A2E912C3D
:104EB000A12CB12CBCE5CB2EBFE8DB2EB2E8EB2E4B
:104EC000BFE3FB2EED960CAD1DAD2EAD3FADED97C6
:104ED000C3010E94AB1DE5E64E1A5108FFEF2F1AE1
:104EE0003F0A0F900F9086EE481685E0580609F0AD
:104EF000B9CF212C312C910143E050E060E070E00B
:104F0000C3010E94611DB20164567109882777FDB3
:104F10008095982F0E94E335ED966CAF7DAF8EAFF4
:104F20009FAFED97B201882777FD8095982F0E945B
:104F3000E335AB01BC011F929AE09F93EAE08E2E0D
:104F4000912CA12CB12CFCE5CF2EFFE8DF2EF2E84E
:104F5000EF2EFFE3FF2EED960CAD1DAD2EAD3FAD58
:104F6000ED97C3010E94AB1DE5E64E1A5108FFEF15
:104F70002F1A3F0A0F900F9084EF481681E05806D1
:104F800009F0B9CFEF96EEADFFADEF973197EF9601
:104F9000FFAFEEAFEF97EF2B09F0CCCEC3010E942D
:104FA000951264E670E080E090E00E940B32BEC093
:104FB0004FE050E060E070E0C3010E94DD1C90E42F
:104FC000C92E96E0D92E2AE5422E512CCE0101960B
:104FD0001C013AE5A32EB12C44EB842E912CF10157
:104FE00088E011928A95E9F7BA82A982BC82AB82E5
:104FF0005E824D82C4018419950998878F83A1012F
:105000006AE070E0C3010E94D713B601882777FDDC
:105010008095982F0E94E335AB01BC01EE24E39408
:10502000F12C0FE010E020E030E0C3010E94781D79
:105030009FEF491A590AE4E1CE0ED11CF6E94F164A
:10504000510469F64EE050E060E070E0C3010E9458
:10505000DD1CA0EFAA2EAAE0BA2EB6E9CB2ED12CE9
:105060001AE5412E512C04EB802E912CF10188E0A1
:1050700011928A95E9F75A8249825C824B82DE82DC
:10508000CD82C4018C199D0998878F83A1016AE0A4
:1050900070E0C3010E94D713B501882777FD809582
:1050A000982F0E94E335AB01BC01EE24E394F12C70
:1050B0000FE010E020E030E0C3010E94781D91E095
:1050C000C91AD108E4E1AE0EB11CFAE5CF16D1043D
:1050D00069F64BE050E060E070E0C3010E94DD1C27
:1050E00004E110E024EF31E040E050E060E87FE3CD
:1050F000C3010E946B196CE070E0C3010E94451E61
:105100004CE050E060E070E0C3010E94DD1C24EF41
:1051100031E040E050E060E87FE3C3010E946B199A
:10512000C3010E943E16C3010E9495124BE050E05D
:1051300060E070E0C3010E94DD1C81C047E150E0E7
:1051400060E070E0C3010E94DD1CAE014F5D5F4F67
:105150006CE271E0C3010E94D713EE24E394F12CBA
:1051600008EC10E020E030E040E050E061E674E45C
:10517000C3010E94781D48E150E060E070E0C30187
:105180000E94DD1CAE01475E5F4F6CE271E0C3011F
:105190000E94D71308EC10E020E030E040E050E03F
:1051A00066E174E4C3010E94781D44E150E060E0D0
:1051B00070E0C3010E94DD1CAE014F5E5F4F6CE2E8
:1051C00071E0C3010E94D71308EC10E020E030E04A
:1051D00040E050E066E973E4C3010E94781DAE012F
:1051E000475F5F4F6CE271E0C3010E94D7134AE151
:1051F00050E060E070E0C3010E94DD1CC3010E942A
:105200008F1308E918E020E030E040E050E066E16C
:1052100073E4C3010E94781D68E572E080E090E0CD
:105220000E940B32C3010E9495124BE050E060E0F7
:1052300070E0C3010E94DD1CC3010E943E16CE57E0
:10524000DF4F0FB6F894DEBF0FBECDBFDF91CF9119
:105250001F910F91FF90EF90DF90CF90BF90AF9094
:105260009F908F907F906F905F904F903F902F9086
:10527000089521E030E0FC01E20FF31F10822F5F60
:105280003F4F24323105B9F7FC0115A214A208954D
:1052900020E230E0FC0137A326A32DE020A716A6CC
:1052A00015A60C943929AC01455D5F4FBC016A5DC0
:1052B0007F4F80E090E00C94CE39FF920F931F93C4
:1052C000CF93DF93EC018A012DA53EA52E30310549
:1052D00004F585E2F82EF29EC001F39E900D112494
:1052E0008F9643E250E08C0F9D1F0E94BF392DA581
:1052F0003EA5F29EC001F39E900D11248C0F9D1FC0
:10530000FC01EE5AFF4F118300832F5F3F4F3EA7F2
:105310002DA7DF91CF911F910F91FF9008958B5C86
:105320009D4FFC017183608308952F923F924F92AD
:105330005F926F927F928F929F92AF92BF92CF9225
:10534000DF92EF92FF920F931F93CF93DF9300D0E2
:1053500000D0CDB7DEB79C838B8311E05C012BE2DC
:10536000A20EB11C1C0136E2230E311C2C018FEF62
:10537000481A580ACB80DC809FE2C90ED11C2B81D1
:105380003C812B5C3D4F3A83298387E597E00E945F
:105390005B2A181619060CF077C0112309F474C0A3
:1053A00087E597E00E94742AEB81FC81808390A5B9
:1053B000891344C0AB81BC8195961C921E92949730
:1053C000A501B101C2010E94CE393C01EB81FC81F3
:1053D00092A781A7009709F457C085A496A47601E7
:1053E00000E010E008151905FCF443E250E0B701B5
:1053F000C3010E94B139F5E2EF0EF11C892B89F44B
:1054000025E2209FC001219F900D11242B813C811A
:10541000820F931FFC01EE5AFF4F0190F081E02DA7
:1054200007C00F5F1F4FDECFA981BA81ED91FC91BC
:1054300009958B819C810E94392910E0AB81BC8148
:105440000C91802F992787FD90950E94A339892B75
:1054500009F49BCFEB81FC8124A135A1C901019600
:1054600095A384A3E20FF31F0183EB81FC81E80F76
:10547000F91F118283970CF488CFAB81BC8195967C
:105480001C921E92949781CF0F900F900F900F90C7
:10549000DF91CF911F910F91FF90EF90DF90CF9010
:1054A000BF90AF909F908F907F906F905F904F9044
:1054B0003F902F900895FC01818D228D90E0805CBB
:1054C0009F4F821B91098F7399270895FC01918D3D
:1054D000828D981731F0828DE80FF11D858D90E057
:1054E00008958FEF9FEF0895FC01918D828D98179D
:1054F00061F0828DDF01A80FB11D5D968C91928DB8
:105500009F5F9F73928F90E008958FEF9FEF0895B4
:1055100088EF9BE2892B49F080E090E0892B29F00D
:105520000E94F82B81110C9400000895FC01848DD9
:10553000DF01A80FB11DA35ABF4F2C91848D90E0BD
:1055400001968F739927848FA689B7892C93A08998
:10555000B1898C9180648C93938D848D981306C04F
:105560000288F389E02D80818F7D80830895CF9319
:10557000DF93EC01888D8823C9F0EA89FB8980815B
:1055800085FD05C0A889B9898C9186FD0FC00FB62D
:1055900007FCF5CF808185FFF2CFA889B9898C916E
:1055A00085FFEDCFCE010E94962AE7CFDF91CF9104
:1055B0000895CF92DF92FF920F931F93CF93DF93C3
:1055C0001F92CDB7DEB76C0181E0D60158968C935F
:1055D00058975B969C915B975C968C915C9798131F
:1055E00007C05096ED91FC915197808185FD2EC0AA
:1055F000F601038D10E00F5F1F4F0F731127F02E80
:10560000F601848DF81211C00FB607FCF9CFD60150
:105610005096ED91FC915197808185FFF1CFC601A5
:1056200069830E94962A6981EBCF838DE80FF11D73
:10563000E35AFF4F6083D6015B960C935B975296BB
:10564000ED91FC915397808180620CC0D6015696F3
:10565000ED91FC91579760835096ED91FC91519795
:1056600080818064808381E090E00F90DF91CF9112
:105670001F910F91FF90DF90CF900895BF92CF922E
:10568000DF92EF92FF92CF93DF93EC016A017B01EF
:10569000B22EE889F98982E08083411581EE5807AE
:1056A00061057105A1F060E079E08DE390E0A7016C
:1056B00096010E94B137215031094109510956958F
:1056C000479537952795211580E1380798F0E889A7
:1056D000F989108260E874E88EE190E0A7019601F4
:1056E0000E94B1372150310941095109569547951A
:1056F00037952795EC85FD853083EE85FF852083E2
:10570000188EEC89FD89B082EA89FB8980818061ED
:105710008083EA89FB89808188608083EA89FB89AC
:10572000808180688083EA89FB8980818F7D808386
:10573000DF91CF91FF90EF90DF90CF90BF900895D1
:105740001F920F920FB60F9211242F938F939F9356
:10575000EF93FF93E0916707F09168078081E091F4
:105760006D07F0916E0782FD12C0908180917007E5
:105770008F5F8F7320917107821751F0E09170074E
:10578000F0E0E95AF84F958F8093700701C080814F
:10579000FF91EF919F918F912F910F900FBE0F90DE
:1057A0001F9018951F920F920FB60F9211242F93EE
:1057B0003F934F935F936F937F938F939F93AF9399
:1057C000BF93EF93FF9387E597E00E94962AFF919E
:1057D000EF91BF91AF919F918F917F916F915F9169
:1057E0004F913F912F910F900FBE0F901F901895E2
:1057F00087E597E00E945B2A21E0892B09F420E0ED
:10580000822F089510925A071092590788EE93E05C
:10581000A0E0B0E080935B0790935C07A0935D07E6
:10582000B0935E0780E793E0909358078093570703
:1058300085EC90E0909364078093630784EC90E09C
:10584000909366078093650780EC90E090936807DB
:105850008093670781EC90E090936A0780936907D3
:1058600082EC90E090936C0780936B0786EC90E05D
:1058700090936E0780936D071092700710927107D6
:1058800010927207109273070895CF92DF92EF92F1
:10589000FF920F931F93CF93DF937C016A01EB017B
:1058A00000E010E00C151D0571F06991D701ED9134
:1058B000FC910190F081E02DC7010995892B19F029
:1058C0000F5F1F4FEFCFC801DF91CF911F910F9155
:1058D000FF90EF90DF90CF9008956115710581F0F2
:1058E000DB010D900020E9F7AD0141505109461B45
:1058F000570BDC01ED91FC910280F381E02D0994BE
:1059000080E090E00895EF92FF920F931F93CF9362
:10591000DF938C017B01C0E0D0E0F701EC0FFD1FAD
:105920006491662359F0F801A081B181ED91FC9159
:10593000C8010995892B11F02196EFCFCE01DF9197
:10594000CF911F910F91FF90EF9008950C946D2CC3
:10595000DC01ED91FC910190F081E02D09946CE760
:1059600073E00C946D2C0F931F93CF93DF93EC0196
:105970000E94832C8C01CE010E94AF2C800F911FBE
:10598000DF91CF911F910F9108958F929F92AF92C7
:10599000BF92DF92EF92FF920F931F93CF93DF930B
:1059A000CDB7DEB7A1970FB6F894DEBF0FBECDBF5F
:1059B0007C01F42FD52ECB0119A2223008F42AE065
:1059C0008E010F5D1F4F822E912CA12CB12C6F2FB9
:1059D0007D2DA50194010E94B137F22FD32ECA016B
:1059E000015011096A3014F4E0E301C0E7E3E60F67
:1059F000D801EC93232B242B252B49F7B801C701A1
:105A00000E946D2CA1960FB6F894DEBF0FBECDBFDD
:105A1000DF91CF911F910F91FF90EF90DF90BF909A
:105A2000AF909F908F900895CF92DF92EF92FF9268
:105A30000F931F93CF93DF93EC016A017B01211534
:105A4000310579F4E881F9810190F081E02D642F2E
:105A5000DF91CF911F910F91FF90EF90DF90CF904A
:105A600009942A303105E9F477FF1AC06DE20E94EB
:105A7000A82C8C0144275527BA014C195D096E09E1
:105A80007F092AE0CE010E94C52C800F911FDF9173
:105A9000CF911F910F91FF90EF90DF90CF900895DD
:105AA0002AE0B701A601CE01DF91CF911F910F919E
:105AB000FF90EF90DF90CF900C94C52C9A01AB0132
:105AC000662757FD6095762F0C94142D4F925F92A8
:105AD0006F927F928F929F92AF92BF92CF92DF92FE
